{
  "_format": "hh-sol-artifact-1",
  "contractName": "CarpoolingSystemFinal",
  "sourceName": "contracts/CarPoolFinal.sol",
  "abi": [
    {
      "inputs": [],
      "stateMutability": "nonpayable",
      "type": "constructor"
    },
    {
      "inputs": [
        {
          "internalType": "address payable",
          "name": "_carOwner",
          "type": "address"
        },
        {
          "internalType": "uint256",
          "name": "_num_of_seat",
          "type": "uint256"
        },
        {
          "internalType": "string",
          "name": "_name",
          "type": "string"
        },
        {
          "internalType": "string",
          "name": "_vehicle",
          "type": "string"
        },
        {
          "internalType": "string",
          "name": "_vehicleNo",
          "type": "string"
        },
        {
          "internalType": "string",
          "name": "_category",
          "type": "string"
        },
        {
          "internalType": "string",
          "name": "_licence_id",
          "type": "string"
        },
        {
          "internalType": "string",
          "name": "_phoneNumber",
          "type": "string"
        },
        {
          "internalType": "uint256",
          "name": "_rent",
          "type": "uint256"
        },
        {
          "internalType": "string",
          "name": "_from",
          "type": "string"
        },
        {
          "internalType": "string",
          "name": "_dest",
          "type": "string"
        }
      ],
      "name": "addCar",
      "outputs": [],
      "stateMutability": "payable",
      "type": "function"
    },
    {
      "inputs": [
        {
          "internalType": "string",
          "name": "_dest",
          "type": "string"
        }
      ],
      "name": "getAvailableCarByDest",
      "outputs": [
        {
          "components": [
            {
              "internalType": "address payable",
              "name": "carOwner",
              "type": "address"
            },
            {
              "internalType": "address payable",
              "name": "driver",
              "type": "address"
            },
            {
              "internalType": "uint256",
              "name": "num_of_seat",
              "type": "uint256"
            },
            {
              "internalType": "uint256",
              "name": "carId",
              "type": "uint256"
            },
            {
              "internalType": "string",
              "name": "name",
              "type": "string"
            },
            {
              "internalType": "string",
              "name": "vehicle",
              "type": "string"
            },
            {
              "internalType": "string",
              "name": "vehicleNo",
              "type": "string"
            },
            {
              "internalType": "string",
              "name": "category",
              "type": "string"
            },
            {
              "internalType": "string",
              "name": "licence_id",
              "type": "string"
            },
            {
              "internalType": "string",
              "name": "phoneNumber",
              "type": "string"
            },
            {
              "internalType": "uint256",
              "name": "rent",
              "type": "uint256"
            },
            {
              "internalType": "string",
              "name": "from",
              "type": "string"
            },
            {
              "internalType": "string",
              "name": "dest",
              "type": "string"
            }
          ],
          "internalType": "struct CarpoolingSystemFinal.Car[]",
          "name": "",
          "type": "tuple[]"
        }
      ],
      "stateMutability": "view",
      "type": "function"
    },
    {
      "inputs": [
        {
          "internalType": "string",
          "name": "_licence_id",
          "type": "string"
        }
      ],
      "name": "getAvailableCarBylicenceId",
      "outputs": [
        {
          "components": [
            {
              "internalType": "address payable",
              "name": "carOwner",
              "type": "address"
            },
            {
              "internalType": "address payable",
              "name": "driver",
              "type": "address"
            },
            {
              "internalType": "uint256",
              "name": "num_of_seat",
              "type": "uint256"
            },
            {
              "internalType": "uint256",
              "name": "carId",
              "type": "uint256"
            },
            {
              "internalType": "string",
              "name": "name",
              "type": "string"
            },
            {
              "internalType": "string",
              "name": "vehicle",
              "type": "string"
            },
            {
              "internalType": "string",
              "name": "vehicleNo",
              "type": "string"
            },
            {
              "internalType": "string",
              "name": "category",
              "type": "string"
            },
            {
              "internalType": "string",
              "name": "licence_id",
              "type": "string"
            },
            {
              "internalType": "string",
              "name": "phoneNumber",
              "type": "string"
            },
            {
              "internalType": "uint256",
              "name": "rent",
              "type": "uint256"
            },
            {
              "internalType": "string",
              "name": "from",
              "type": "string"
            },
            {
              "internalType": "string",
              "name": "dest",
              "type": "string"
            }
          ],
          "internalType": "struct CarpoolingSystemFinal.Car[]",
          "name": "",
          "type": "tuple[]"
        }
      ],
      "stateMutability": "view",
      "type": "function"
    },
    {
      "inputs": [
        {
          "internalType": "string",
          "name": "_vehicleNo",
          "type": "string"
        }
      ],
      "name": "getAvailableCarpools",
      "outputs": [
        {
          "components": [
            {
              "internalType": "address payable",
              "name": "carOwner",
              "type": "address"
            },
            {
              "internalType": "address payable",
              "name": "driver",
              "type": "address"
            },
            {
              "internalType": "uint256",
              "name": "num_of_seat",
              "type": "uint256"
            },
            {
              "internalType": "uint256",
              "name": "carId",
              "type": "uint256"
            },
            {
              "internalType": "string",
              "name": "name",
              "type": "string"
            },
            {
              "internalType": "string",
              "name": "vehicle",
              "type": "string"
            },
            {
              "internalType": "string",
              "name": "vehicleNo",
              "type": "string"
            },
            {
              "internalType": "string",
              "name": "category",
              "type": "string"
            },
            {
              "internalType": "string",
              "name": "licence_id",
              "type": "string"
            },
            {
              "internalType": "string",
              "name": "phoneNumber",
              "type": "string"
            },
            {
              "internalType": "uint256",
              "name": "rent",
              "type": "uint256"
            },
            {
              "internalType": "string",
              "name": "from",
              "type": "string"
            },
            {
              "internalType": "string",
              "name": "dest",
              "type": "string"
            }
          ],
          "internalType": "struct CarpoolingSystemFinal.Car",
          "name": "",
          "type": "tuple"
        }
      ],
      "stateMutability": "view",
      "type": "function"
    },
    {
      "inputs": [
        {
          "internalType": "string",
          "name": "_phoneNo",
          "type": "string"
        }
      ],
      "name": "getAvailableUser",
      "outputs": [
        {
          "components": [
            {
              "internalType": "address",
              "name": "user",
              "type": "address"
            },
            {
              "internalType": "string",
              "name": "name",
              "type": "string"
            },
            {
              "internalType": "uint256",
              "name": "userId",
              "type": "uint256"
            },
            {
              "internalType": "string",
              "name": "from",
              "type": "string"
            },
            {
              "internalType": "string",
              "name": "dest",
              "type": "string"
            },
            {
              "internalType": "string",
              "name": "phone_no",
              "type": "string"
            },
            {
              "components": [
                {
                  "internalType": "address payable",
                  "name": "carOwner",
                  "type": "address"
                },
                {
                  "internalType": "address payable",
                  "name": "driver",
                  "type": "address"
                },
                {
                  "internalType": "uint256",
                  "name": "num_of_seat",
                  "type": "uint256"
                },
                {
                  "internalType": "uint256",
                  "name": "carId",
                  "type": "uint256"
                },
                {
                  "internalType": "string",
                  "name": "name",
                  "type": "string"
                },
                {
                  "internalType": "string",
                  "name": "vehicle",
                  "type": "string"
                },
                {
                  "internalType": "string",
                  "name": "vehicleNo",
                  "type": "string"
                },
                {
                  "internalType": "string",
                  "name": "category",
                  "type": "string"
                },
                {
                  "internalType": "string",
                  "name": "licence_id",
                  "type": "string"
                },
                {
                  "internalType": "string",
                  "name": "phoneNumber",
                  "type": "string"
                },
                {
                  "internalType": "uint256",
                  "name": "rent",
                  "type": "uint256"
                },
                {
                  "internalType": "string",
                  "name": "from",
                  "type": "string"
                },
                {
                  "internalType": "string",
                  "name": "dest",
                  "type": "string"
                }
              ],
              "internalType": "struct CarpoolingSystemFinal.Car",
              "name": "BookedCar",
              "type": "tuple"
            }
          ],
          "internalType": "struct CarpoolingSystemFinal.User[]",
          "name": "",
          "type": "tuple[]"
        }
      ],
      "stateMutability": "view",
      "type": "function"
    },
    {
      "inputs": [],
      "name": "getCarCount",
      "outputs": [
        {
          "internalType": "uint256",
          "name": "",
          "type": "uint256"
        }
      ],
      "stateMutability": "view",
      "type": "function"
    },
    {
      "inputs": [
        {
          "internalType": "string",
          "name": "_licence_id",
          "type": "string"
        }
      ],
      "name": "getSelected",
      "outputs": [
        {
          "components": [
            {
              "internalType": "address",
              "name": "user",
              "type": "address"
            },
            {
              "internalType": "string",
              "name": "name",
              "type": "string"
            },
            {
              "internalType": "uint256",
              "name": "userId",
              "type": "uint256"
            },
            {
              "internalType": "string",
              "name": "from",
              "type": "string"
            },
            {
              "internalType": "string",
              "name": "dest",
              "type": "string"
            },
            {
              "internalType": "string",
              "name": "phone_no",
              "type": "string"
            },
            {
              "components": [
                {
                  "internalType": "address payable",
                  "name": "carOwner",
                  "type": "address"
                },
                {
                  "internalType": "address payable",
                  "name": "driver",
                  "type": "address"
                },
                {
                  "internalType": "uint256",
                  "name": "num_of_seat",
                  "type": "uint256"
                },
                {
                  "internalType": "uint256",
                  "name": "carId",
                  "type": "uint256"
                },
                {
                  "internalType": "string",
                  "name": "name",
                  "type": "string"
                },
                {
                  "internalType": "string",
                  "name": "vehicle",
                  "type": "string"
                },
                {
                  "internalType": "string",
                  "name": "vehicleNo",
                  "type": "string"
                },
                {
                  "internalType": "string",
                  "name": "category",
                  "type": "string"
                },
                {
                  "internalType": "string",
                  "name": "licence_id",
                  "type": "string"
                },
                {
                  "internalType": "string",
                  "name": "phoneNumber",
                  "type": "string"
                },
                {
                  "internalType": "uint256",
                  "name": "rent",
                  "type": "uint256"
                },
                {
                  "internalType": "string",
                  "name": "from",
                  "type": "string"
                },
                {
                  "internalType": "string",
                  "name": "dest",
                  "type": "string"
                }
              ],
              "internalType": "struct CarpoolingSystemFinal.Car",
              "name": "BookedCar",
              "type": "tuple"
            }
          ],
          "internalType": "struct CarpoolingSystemFinal.User",
          "name": "",
          "type": "tuple"
        }
      ],
      "stateMutability": "view",
      "type": "function"
    },
    {
      "inputs": [],
      "name": "getUserCount",
      "outputs": [
        {
          "internalType": "uint256",
          "name": "",
          "type": "uint256"
        }
      ],
      "stateMutability": "view",
      "type": "function"
    },
    {
      "inputs": [
        {
          "internalType": "string",
          "name": "_name",
          "type": "string"
        },
        {
          "internalType": "string",
          "name": "_from",
          "type": "string"
        },
        {
          "internalType": "string",
          "name": "_dest",
          "type": "string"
        },
        {
          "internalType": "string",
          "name": "_phone_no",
          "type": "string"
        },
        {
          "internalType": "string",
          "name": "_vehicleNo",
          "type": "string"
        },
        {
          "internalType": "string",
          "name": "_licence_id",
          "type": "string"
        }
      ],
      "name": "makePayment",
      "outputs": [],
      "stateMutability": "payable",
      "type": "function"
    }
  ],
  "bytecode": "0x608060405234801561001057600080fd5b50336000806101000a81548173ffffffffffffffffffffffffffffffffffffffff021916908373ffffffffffffffffffffffffffffffffffffffff160217905550614d02806100606000396000f3fe6080604052600436106100865760003560e01c80638c8b984d116100595780638c8b984d1461014c578063a5f5645d14610189578063b5cb15f7146101c6578063be2c950c146101f1578063c8f300cb1461022e57610086565b806308c797581461008b57806327436b59146100a7578063458f9adb146100d25780637a7d56eb1461010f575b600080fd5b6100a560048036038101906100a09190613b4a565b61024a565b005b3480156100b357600080fd5b506100bc61089c565b6040516100c99190613d2d565b60405180910390f35b3480156100de57600080fd5b506100f960048036038101906100f49190613d48565b6108a6565b6040516101069190614113565b60405180910390f35b34801561011b57600080fd5b5061013660048036038101906101319190613d48565b611140565b604051610143919061427f565b60405180910390f35b34801561015857600080fd5b50610173600480360381019061016e9190613d48565b6116d9565b6040516101809190614359565b60405180910390f35b34801561019557600080fd5b506101b060048036038101906101ab9190613d48565b612047565b6040516101bd919061443d565b60405180910390f35b3480156101d257600080fd5b506101db612625565b6040516101e89190613d2d565b60405180910390f35b3480156101fd57600080fd5b5061021860048036038101906102139190613d48565b61262f565b604051610225919061443d565b60405180910390f35b6102486004803603810190610243919061445f565b612c0d565b005b6001805461025891906145c3565b600181905550600082905060008290506000828260405160200161027d92919061463e565b6040516020818303038152906040529050604051806101a001604052808f73ffffffffffffffffffffffffffffffffffffffff1681526020013373ffffffffffffffffffffffffffffffffffffffff1681526020018e815260200160015481526020018d81526020018c81526020018b81526020018a81526020018981526020018881526020018781526020018681526020018581525060048b604051610324919061469e565b908152602001604051809103902060008201518160000160006101000a81548173ffffffffffffffffffffffffffffffffffffffff021916908373ffffffffffffffffffffffffffffffffffffffff16021790555060208201518160010160006101000a81548173ffffffffffffffffffffffffffffffffffffffff021916908373ffffffffffffffffffffffffffffffffffffffff160217905550604082015181600201556060820151816003015560808201518160040190816103e991906148c1565b5060a08201518160050190816103ff91906148c1565b5060c082015181600601908161041591906148c1565b5060e082015181600701908161042b91906148c1565b5061010082015181600801908161044291906148c1565b5061012082015181600901908161045991906148c1565b5061014082015181600a015561016082015181600b01908161047b91906148c1565b5061018082015181600c01908161049291906148c1565b509050506005816040516104a6919061469e565b908152602001604051809103902060048b6040516104c4919061469e565b908152602001604051809103902090806001815401808255809150506001900390600052602060002090600d02016000909190919091506000820160009054906101000a900473ffffffffffffffffffffffffffffffffffffffff168160000160006101000a81548173ffffffffffffffffffffffffffffffffffffffff021916908373ffffffffffffffffffffffffffffffffffffffff1602179055506001820160009054906101000a900473ffffffffffffffffffffffffffffffffffffffff168160010160006101000a81548173ffffffffffffffffffffffffffffffffffffffff021916908373ffffffffffffffffffffffffffffffffffffffff1602179055506002820154816002015560038201548160030155600482018160040190816105f191906149a9565b506005820181600501908161060691906149a9565b506006820181600601908161061b91906149a9565b506007820181600701908161063091906149a9565b506008820181600801908161064591906149a9565b506009820181600901908161065a91906149a9565b50600a82015481600a0155600b820181600b01908161067991906149a9565b50600c820181600c01908161068e91906149a9565b5050506006886040516106a1919061469e565b908152602001604051809103902060048b6040516106bf919061469e565b908152602001604051809103902090806001815401808255809150506001900390600052602060002090600d02016000909190919091506000820160009054906101000a900473ffffffffffffffffffffffffffffffffffffffff168160000160006101000a81548173ffffffffffffffffffffffffffffffffffffffff021916908373ffffffffffffffffffffffffffffffffffffffff1602179055506001820160009054906101000a900473ffffffffffffffffffffffffffffffffffffffff168160010160006101000a81548173ffffffffffffffffffffffffffffffffffffffff021916908373ffffffffffffffffffffffffffffffffffffffff1602179055506002820154816002015560038201548160030155600482018160040190816107ec91906149a9565b506005820181600501908161080191906149a9565b506006820181600601908161081691906149a9565b506007820181600701908161082b91906149a9565b506008820181600801908161084091906149a9565b506009820181600901908161085591906149a9565b50600a82015481600a0155600b820181600b01908161087491906149a9565b50600c820181600c01908161088991906149a9565b5050505050505050505050505050505050565b6000600154905090565b606060006007836040516108ba919061469e565b9081526020016040518091039020805480602002602001604051908101604052809291908181526020016000905b8282101561113157838290600052602060002090601302016040518060e00160405290816000820160009054906101000a900473ffffffffffffffffffffffffffffffffffffffff1673ffffffffffffffffffffffffffffffffffffffff1673ffffffffffffffffffffffffffffffffffffffff168152602001600182018054610971906146e4565b80601f016020809104026020016040519081016040528092919081815260200182805461099d906146e4565b80156109ea5780601f106109bf576101008083540402835291602001916109ea565b820191906000526020600020905b8154815290600101906020018083116109cd57829003601f168201915b5050505050815260200160028201548152602001600382018054610a0d906146e4565b80601f0160208091040260200160405190810160405280929190818152602001828054610a39906146e4565b8015610a865780601f10610a5b57610100808354040283529160200191610a86565b820191906000526020600020905b815481529060010190602001808311610a6957829003601f168201915b50505050508152602001600482018054610a9f906146e4565b80601f0160208091040260200160405190810160405280929190818152602001828054610acb906146e4565b8015610b185780601f10610aed57610100808354040283529160200191610b18565b820191906000526020600020905b815481529060010190602001808311610afb57829003601f168201915b50505050508152602001600582018054610b31906146e4565b80601f0160208091040260200160405190810160405280929190818152602001828054610b5d906146e4565b8015610baa5780601f10610b7f57610100808354040283529160200191610baa565b820191906000526020600020905b815481529060010190602001808311610b8d57829003601f168201915b5050505050815260200160068201604051806101a00160405290816000820160009054906101000a900473ffffffffffffffffffffffffffffffffffffffff1673ffffffffffffffffffffffffffffffffffffffff1673ffffffffffffffffffffffffffffffffffffffff1681526020016001820160009054906101000a900473ffffffffffffffffffffffffffffffffffffffff1673ffffffffffffffffffffffffffffffffffffffff1673ffffffffffffffffffffffffffffffffffffffff1681526020016002820154815260200160038201548152602001600482018054610c94906146e4565b80601f0160208091040260200160405190810160405280929190818152602001828054610cc0906146e4565b8015610d0d5780601f10610ce257610100808354040283529160200191610d0d565b820191906000526020600020905b815481529060010190602001808311610cf057829003601f168201915b50505050508152602001600582018054610d26906146e4565b80601f0160208091040260200160405190810160405280929190818152602001828054610d52906146e4565b8015610d9f5780601f10610d7457610100808354040283529160200191610d9f565b820191906000526020600020905b815481529060010190602001808311610d8257829003601f168201915b50505050508152602001600682018054610db8906146e4565b80601f0160208091040260200160405190810160405280929190818152602001828054610de4906146e4565b8015610e315780601f10610e0657610100808354040283529160200191610e31565b820191906000526020600020905b815481529060010190602001808311610e1457829003601f168201915b50505050508152602001600782018054610e4a906146e4565b80601f0160208091040260200160405190810160405280929190818152602001828054610e76906146e4565b8015610ec35780601f10610e9857610100808354040283529160200191610ec3565b820191906000526020600020905b815481529060010190602001808311610ea657829003601f168201915b50505050508152602001600882018054610edc906146e4565b80601f0160208091040260200160405190810160405280929190818152602001828054610f08906146e4565b8015610f555780601f10610f2a57610100808354040283529160200191610f55565b820191906000526020600020905b815481529060010190602001808311610f3857829003601f168201915b50505050508152602001600982018054610f6e906146e4565b80601f0160208091040260200160405190810160405280929190818152602001828054610f9a906146e4565b8015610fe75780601f10610fbc57610100808354040283529160200191610fe7565b820191906000526020600020905b815481529060010190602001808311610fca57829003601f168201915b50505050508152602001600a8201548152602001600b8201805461100a906146e4565b80601f0160208091040260200160405190810160405280929190818152602001828054611036906146e4565b80156110835780601f1061105857610100808354040283529160200191611083565b820191906000526020600020905b81548152906001019060200180831161106657829003601f168201915b50505050508152602001600c8201805461109c906146e4565b80601f01602080910402602001604051908101604052809291908181526020018280546110c8906146e4565b80156111155780601f106110ea57610100808354040283529160200191611115565b820191906000526020600020905b8154815290600101906020018083116110f857829003601f168201915b50505050508152505081525050815260200190600101906108e8565b50505050905080915050919050565b61114861386f565b600060048360405161115a919061469e565b9081526020016040518091039020604051806101a00160405290816000820160009054906101000a900473ffffffffffffffffffffffffffffffffffffffff1673ffffffffffffffffffffffffffffffffffffffff1673ffffffffffffffffffffffffffffffffffffffff1681526020016001820160009054906101000a900473ffffffffffffffffffffffffffffffffffffffff1673ffffffffffffffffffffffffffffffffffffffff1673ffffffffffffffffffffffffffffffffffffffff1681526020016002820154815260200160038201548152602001600482018054611244906146e4565b80601f0160208091040260200160405190810160405280929190818152602001828054611270906146e4565b80156112bd5780601f10611292576101008083540402835291602001916112bd565b820191906000526020600020905b8154815290600101906020018083116112a057829003601f168201915b505050505081526020016005820180546112d6906146e4565b80601f0160208091040260200160405190810160405280929190818152602001828054611302906146e4565b801561134f5780601f106113245761010080835404028352916020019161134f565b820191906000526020600020905b81548152906001019060200180831161133257829003601f168201915b50505050508152602001600682018054611368906146e4565b80601f0160208091040260200160405190810160405280929190818152602001828054611394906146e4565b80156113e15780601f106113b6576101008083540402835291602001916113e1565b820191906000526020600020905b8154815290600101906020018083116113c457829003601f168201915b505050505081526020016007820180546113fa906146e4565b80601f0160208091040260200160405190810160405280929190818152602001828054611426906146e4565b80156114735780601f1061144857610100808354040283529160200191611473565b820191906000526020600020905b81548152906001019060200180831161145657829003601f168201915b5050505050815260200160088201805461148c906146e4565b80601f01602080910402602001604051908101604052809291908181526020018280546114b8906146e4565b80156115055780601f106114da57610100808354040283529160200191611505565b820191906000526020600020905b8154815290600101906020018083116114e857829003601f168201915b5050505050815260200160098201805461151e906146e4565b80601f016020809104026020016040519081016040528092919081815260200182805461154a906146e4565b80156115975780601f1061156c57610100808354040283529160200191611597565b820191906000526020600020905b81548152906001019060200180831161157a57829003601f168201915b50505050508152602001600a8201548152602001600b820180546115ba906146e4565b80601f01602080910402602001604051908101604052809291908181526020018280546115e6906146e4565b80156116335780601f1061160857610100808354040283529160200191611633565b820191906000526020600020905b81548152906001019060200180831161161657829003601f168201915b50505050508152602001600c8201805461164c906146e4565b80601f0160208091040260200160405190810160405280929190818152602001828054611678906146e4565b80156116c55780601f1061169a576101008083540402835291602001916116c5565b820191906000526020600020905b8154815290600101906020018083116116a857829003601f168201915b505050505081525050905080915050919050565b6116e1613903565b6000600380546116f0906146e4565b80601f016020809104026020016040519081016040528092919081815260200182805461171c906146e4565b80156117695780601f1061173e57610100808354040283529160200191611769565b820191906000526020600020905b81548152906001019060200180831161174c57829003601f168201915b5050505050905082604051602001611781919061469e565b60405160208183030381529060405280519060200120816040516020016117a8919061469e565b60405160208183030381529060405280519060200120146117fe576040517f08c379a00000000000000000000000000000000000000000000000000000000081526004016117f590614b14565b60405180910390fd5b6008600360405161180f9190614bb7565b90815260200160405180910390206040518060e00160405290816000820160009054906101000a900473ffffffffffffffffffffffffffffffffffffffff1673ffffffffffffffffffffffffffffffffffffffff1673ffffffffffffffffffffffffffffffffffffffff16815260200160018201805461188e906146e4565b80601f01602080910402602001604051908101604052809291908181526020018280546118ba906146e4565b80156119075780601f106118dc57610100808354040283529160200191611907565b820191906000526020600020905b8154815290600101906020018083116118ea57829003601f168201915b505050505081526020016002820154815260200160038201805461192a906146e4565b80601f0160208091040260200160405190810160405280929190818152602001828054611956906146e4565b80156119a35780601f10611978576101008083540402835291602001916119a3565b820191906000526020600020905b81548152906001019060200180831161198657829003601f168201915b505050505081526020016004820180546119bc906146e4565b80601f01602080910402602001604051908101604052809291908181526020018280546119e8906146e4565b8015611a355780601f10611a0a57610100808354040283529160200191611a35565b820191906000526020600020905b815481529060010190602001808311611a1857829003601f168201915b50505050508152602001600582018054611a4e906146e4565b80601f0160208091040260200160405190810160405280929190818152602001828054611a7a906146e4565b8015611ac75780601f10611a9c57610100808354040283529160200191611ac7565b820191906000526020600020905b815481529060010190602001808311611aaa57829003601f168201915b5050505050815260200160068201604051806101a00160405290816000820160009054906101000a900473ffffffffffffffffffffffffffffffffffffffff1673ffffffffffffffffffffffffffffffffffffffff1673ffffffffffffffffffffffffffffffffffffffff1681526020016001820160009054906101000a900473ffffffffffffffffffffffffffffffffffffffff1673ffffffffffffffffffffffffffffffffffffffff1673ffffffffffffffffffffffffffffffffffffffff1681526020016002820154815260200160038201548152602001600482018054611bb1906146e4565b80601f0160208091040260200160405190810160405280929190818152602001828054611bdd906146e4565b8015611c2a5780601f10611bff57610100808354040283529160200191611c2a565b820191906000526020600020905b815481529060010190602001808311611c0d57829003601f168201915b50505050508152602001600582018054611c43906146e4565b80601f0160208091040260200160405190810160405280929190818152602001828054611c6f906146e4565b8015611cbc5780601f10611c9157610100808354040283529160200191611cbc565b820191906000526020600020905b815481529060010190602001808311611c9f57829003601f168201915b50505050508152602001600682018054611cd5906146e4565b80601f0160208091040260200160405190810160405280929190818152602001828054611d01906146e4565b8015611d4e5780601f10611d2357610100808354040283529160200191611d4e565b820191906000526020600020905b815481529060010190602001808311611d3157829003601f168201915b50505050508152602001600782018054611d67906146e4565b80601f0160208091040260200160405190810160405280929190818152602001828054611d93906146e4565b8015611de05780601f10611db557610100808354040283529160200191611de0565b820191906000526020600020905b815481529060010190602001808311611dc357829003601f168201915b50505050508152602001600882018054611df9906146e4565b80601f0160208091040260200160405190810160405280929190818152602001828054611e25906146e4565b8015611e725780601f10611e4757610100808354040283529160200191611e72565b820191906000526020600020905b815481529060010190602001808311611e5557829003601f168201915b50505050508152602001600982018054611e8b906146e4565b80601f0160208091040260200160405190810160405280929190818152602001828054611eb7906146e4565b8015611f045780601f10611ed957610100808354040283529160200191611f04565b820191906000526020600020905b815481529060010190602001808311611ee757829003601f168201915b50505050508152602001600a8201548152602001600b82018054611f27906146e4565b80601f0160208091040260200160405190810160405280929190818152602001828054611f53906146e4565b8015611fa05780601f10611f7557610100808354040283529160200191611fa0565b820191906000526020600020905b815481529060010190602001808311611f8357829003601f168201915b50505050508152602001600c82018054611fb9906146e4565b80601f0160208091040260200160405190810160405280929190818152602001828054611fe5906146e4565b80156120325780601f1061200757610100808354040283529160200191612032565b820191906000526020600020905b81548152906001019060200180831161201557829003601f168201915b50505050508152505081525050915050919050565b6060600060058360405161205b919061469e565b9081526020016040518091039020805480602002602001604051908101604052809291908181526020016000905b8282101561261657838290600052602060002090600d0201604051806101a00160405290816000820160009054906101000a900473ffffffffffffffffffffffffffffffffffffffff1673ffffffffffffffffffffffffffffffffffffffff1673ffffffffffffffffffffffffffffffffffffffff1681526020016001820160009054906101000a900473ffffffffffffffffffffffffffffffffffffffff1673ffffffffffffffffffffffffffffffffffffffff1673ffffffffffffffffffffffffffffffffffffffff168152602001600282015481526020016003820154815260200160048201805461217d906146e4565b80601f01602080910402602001604051908101604052809291908181526020018280546121a9906146e4565b80156121f65780601f106121cb576101008083540402835291602001916121f6565b820191906000526020600020905b8154815290600101906020018083116121d957829003601f168201915b5050505050815260200160058201805461220f906146e4565b80601f016020809104026020016040519081016040528092919081815260200182805461223b906146e4565b80156122885780601f1061225d57610100808354040283529160200191612288565b820191906000526020600020905b81548152906001019060200180831161226b57829003601f168201915b505050505081526020016006820180546122a1906146e4565b80601f01602080910402602001604051908101604052809291908181526020018280546122cd906146e4565b801561231a5780601f106122ef5761010080835404028352916020019161231a565b820191906000526020600020905b8154815290600101906020018083116122fd57829003601f168201915b50505050508152602001600782018054612333906146e4565b80601f016020809104026020016040519081016040528092919081815260200182805461235f906146e4565b80156123ac5780601f10612381576101008083540402835291602001916123ac565b820191906000526020600020905b81548152906001019060200180831161238f57829003601f168201915b505050505081526020016008820180546123c5906146e4565b80601f01602080910402602001604051908101604052809291908181526020018280546123f1906146e4565b801561243e5780601f106124135761010080835404028352916020019161243e565b820191906000526020600020905b81548152906001019060200180831161242157829003601f168201915b50505050508152602001600982018054612457906146e4565b80601f0160208091040260200160405190810160405280929190818152602001828054612483906146e4565b80156124d05780601f106124a5576101008083540402835291602001916124d0565b820191906000526020600020905b8154815290600101906020018083116124b357829003601f168201915b50505050508152602001600a8201548152602001600b820180546124f3906146e4565b80601f016020809104026020016040519081016040528092919081815260200182805461251f906146e4565b801561256c5780601f106125415761010080835404028352916020019161256c565b820191906000526020600020905b81548152906001019060200180831161254f57829003601f168201915b50505050508152602001600c82018054612585906146e4565b80601f01602080910402602001604051908101604052809291908181526020018280546125b1906146e4565b80156125fe5780601f106125d3576101008083540402835291602001916125fe565b820191906000526020600020905b8154815290600101906020018083116125e157829003601f168201915b50505050508152505081526020019060010190612089565b50505050905080915050919050565b6000600254905090565b60606000600683604051612643919061469e565b9081526020016040518091039020805480602002602001604051908101604052809291908181526020016000905b82821015612bfe57838290600052602060002090600d0201604051806101a00160405290816000820160009054906101000a900473ffffffffffffffffffffffffffffffffffffffff1673ffffffffffffffffffffffffffffffffffffffff1673ffffffffffffffffffffffffffffffffffffffff1681526020016001820160009054906101000a900473ffffffffffffffffffffffffffffffffffffffff1673ffffffffffffffffffffffffffffffffffffffff1673ffffffffffffffffffffffffffffffffffffffff1681526020016002820154815260200160038201548152602001600482018054612765906146e4565b80601f0160208091040260200160405190810160405280929190818152602001828054612791906146e4565b80156127de5780601f106127b3576101008083540402835291602001916127de565b820191906000526020600020905b8154815290600101906020018083116127c157829003601f168201915b505050505081526020016005820180546127f7906146e4565b80601f0160208091040260200160405190810160405280929190818152602001828054612823906146e4565b80156128705780601f1061284557610100808354040283529160200191612870565b820191906000526020600020905b81548152906001019060200180831161285357829003601f168201915b50505050508152602001600682018054612889906146e4565b80601f01602080910402602001604051908101604052809291908181526020018280546128b5906146e4565b80156129025780601f106128d757610100808354040283529160200191612902565b820191906000526020600020905b8154815290600101906020018083116128e557829003601f168201915b5050505050815260200160078201805461291b906146e4565b80601f0160208091040260200160405190810160405280929190818152602001828054612947906146e4565b80156129945780601f1061296957610100808354040283529160200191612994565b820191906000526020600020905b81548152906001019060200180831161297757829003601f168201915b505050505081526020016008820180546129ad906146e4565b80601f01602080910402602001604051908101604052809291908181526020018280546129d9906146e4565b8015612a265780601f106129fb57610100808354040283529160200191612a26565b820191906000526020600020905b815481529060010190602001808311612a0957829003601f168201915b50505050508152602001600982018054612a3f906146e4565b80601f0160208091040260200160405190810160405280929190818152602001828054612a6b906146e4565b8015612ab85780601f10612a8d57610100808354040283529160200191612ab8565b820191906000526020600020905b815481529060010190602001808311612a9b57829003601f168201915b50505050508152602001600a8201548152602001600b82018054612adb906146e4565b80601f0160208091040260200160405190810160405280929190818152602001828054612b07906146e4565b8015612b545780601f10612b2957610100808354040283529160200191612b54565b820191906000526020600020905b815481529060010190602001808311612b3757829003601f168201915b50505050508152602001600c82018054612b6d906146e4565b80601f0160208091040260200160405190810160405280929190818152602001828054612b99906146e4565b8015612be65780601f10612bbb57610100808354040283529160200191612be6565b820191906000526020600020905b815481529060010190602001808311612bc957829003601f168201915b50505050508152505081526020019060010190612671565b50505050905080915050919050565b6000600483604051612c1f919061469e565b908152602001604051809103902090508060010160009054906101000a900473ffffffffffffffffffffffffffffffffffffffff1673ffffffffffffffffffffffffffffffffffffffff163373ffffffffffffffffffffffffffffffffffffffff1603612cc1576040517f08c379a0000000000000000000000000000000000000000000000000000000008152600401612cb890614c1a565b60405180910390fd5b80600a0154341015612d08576040517f08c379a0000000000000000000000000000000000000000000000000000000008152600401612cff90614cac565b60405180910390fd5b8060010160009054906101000a900473ffffffffffffffffffffffffffffffffffffffff1673ffffffffffffffffffffffffffffffffffffffff166108fc349081150290604051600060405180830381858888f19350505050158015612d72573d6000803e3d6000fd5b506001600254612d8291906145c3565b6002819055506040518060e001604052803373ffffffffffffffffffffffffffffffffffffffff1681526020018881526020016002548152602001878152602001868152602001858152602001600485604051612ddf919061469e565b9081526020016040518091039020604051806101a00160405290816000820160009054906101000a900473ffffffffffffffffffffffffffffffffffffffff1673ffffffffffffffffffffffffffffffffffffffff1673ffffffffffffffffffffffffffffffffffffffff1681526020016001820160009054906101000a900473ffffffffffffffffffffffffffffffffffffffff1673ffffffffffffffffffffffffffffffffffffffff1673ffffffffffffffffffffffffffffffffffffffff1681526020016002820154815260200160038201548152602001600482018054612ec9906146e4565b80601f0160208091040260200160405190810160405280929190818152602001828054612ef5906146e4565b8015612f425780601f10612f1757610100808354040283529160200191612f42565b820191906000526020600020905b815481529060010190602001808311612f2557829003601f168201915b50505050508152602001600582018054612f5b906146e4565b80601f0160208091040260200160405190810160405280929190818152602001828054612f87906146e4565b8015612fd45780601f10612fa957610100808354040283529160200191612fd4565b820191906000526020600020905b815481529060010190602001808311612fb757829003601f168201915b50505050508152602001600682018054612fed906146e4565b80601f0160208091040260200160405190810160405280929190818152602001828054613019906146e4565b80156130665780601f1061303b57610100808354040283529160200191613066565b820191906000526020600020905b81548152906001019060200180831161304957829003601f168201915b5050505050815260200160078201805461307f906146e4565b80601f01602080910402602001604051908101604052809291908181526020018280546130ab906146e4565b80156130f85780601f106130cd576101008083540402835291602001916130f8565b820191906000526020600020905b8154815290600101906020018083116130db57829003601f168201915b50505050508152602001600882018054613111906146e4565b80601f016020809104026020016040519081016040528092919081815260200182805461313d906146e4565b801561318a5780601f1061315f5761010080835404028352916020019161318a565b820191906000526020600020905b81548152906001019060200180831161316d57829003601f168201915b505050505081526020016009820180546131a3906146e4565b80601f01602080910402602001604051908101604052809291908181526020018280546131cf906146e4565b801561321c5780601f106131f15761010080835404028352916020019161321c565b820191906000526020600020905b8154815290600101906020018083116131ff57829003601f168201915b50505050508152602001600a8201548152602001600b8201805461323f906146e4565b80601f016020809104026020016040519081016040528092919081815260200182805461326b906146e4565b80156132b85780601f1061328d576101008083540402835291602001916132b8565b820191906000526020600020905b81548152906001019060200180831161329b57829003601f168201915b50505050508152602001600c820180546132d1906146e4565b80601f01602080910402602001604051908101604052809291908181526020018280546132fd906146e4565b801561334a5780601f1061331f5761010080835404028352916020019161334a565b820191906000526020600020905b81548152906001019060200180831161332d57829003601f168201915b505050505081525050815250600883604051613366919061469e565b908152602001604051809103902060008201518160000160006101000a81548173ffffffffffffffffffffffffffffffffffffffff021916908373ffffffffffffffffffffffffffffffffffffffff16021790555060208201518160010190816133d091906148c1565b506040820151816002015560608201518160030190816133f091906148c1565b50608082015181600401908161340691906148c1565b5060a082015181600501908161341c91906148c1565b5060c08201518160060160008201518160000160006101000a81548173ffffffffffffffffffffffffffffffffffffffff021916908373ffffffffffffffffffffffffffffffffffffffff16021790555060208201518160010160006101000a81548173ffffffffffffffffffffffffffffffffffffffff021916908373ffffffffffffffffffffffffffffffffffffffff160217905550604082015181600201556060820151816003015560808201518160040190816134dd91906148c1565b5060a08201518160050190816134f391906148c1565b5060c082015181600601908161350991906148c1565b5060e082015181600701908161351f91906148c1565b5061010082015181600801908161353691906148c1565b5061012082015181600901908161354d91906148c1565b5061014082015181600a015561016082015181600b01908161356f91906148c1565b5061018082015181600c01908161358691906148c1565b50505090505060078460405161359c919061469e565b90815260200160405180910390206008836040516135ba919061469e565b908152602001604051809103902090806001815401808255809150506001900390600052602060002090601302016000909190919091506000820160009054906101000a900473ffffffffffffffffffffffffffffffffffffffff168160000160006101000a81548173ffffffffffffffffffffffffffffffffffffffff021916908373ffffffffffffffffffffffffffffffffffffffff1602179055506001820181600101908161366c91906149a9565b50600282015481600201556003820181600301908161368b91906149a9565b50600482018160040190816136a091906149a9565b50600582018160050190816136b591906149a9565b5060068201816006016000820160009054906101000a900473ffffffffffffffffffffffffffffffffffffffff168160000160006101000a81548173ffffffffffffffffffffffffffffffffffffffff021916908373ffffffffffffffffffffffffffffffffffffffff1602179055506001820160009054906101000a900473ffffffffffffffffffffffffffffffffffffffff168160010160006101000a81548173ffffffffffffffffffffffffffffffffffffffff021916908373ffffffffffffffffffffffffffffffffffffffff1602179055506002820154816002015560038201548160030155600482018160040190816137b491906149a9565b50600582018160050190816137c991906149a9565b50600682018160060190816137de91906149a9565b50600782018160070190816137f391906149a9565b506008820181600801908161380891906149a9565b506009820181600901908161381d91906149a9565b50600a82015481600a0155600b820181600b01908161383c91906149a9565b50600c820181600c01908161385191906149a9565b5050505050816003908161386591906148c1565b5050505050505050565b604051806101a00160405280600073ffffffffffffffffffffffffffffffffffffffff168152602001600073ffffffffffffffffffffffffffffffffffffffff16815260200160008152602001600081526020016060815260200160608152602001606081526020016060815260200160608152602001606081526020016000815260200160608152602001606081525090565b6040518060e00160405280600073ffffffffffffffffffffffffffffffffffffffff168152602001606081526020016000815260200160608152602001606081526020016060815260200161395661386f565b81525090565b6000604051905090565b600080fd5b600080fd5b600073ffffffffffffffffffffffffffffffffffffffff82169050919050565b600061399b82613970565b9050919050565b6139ab81613990565b81146139b657600080fd5b50565b6000813590506139c8816139a2565b92915050565b6000819050919050565b6139e1816139ce565b81146139ec57600080fd5b50565b6000813590506139fe816139d8565b92915050565b600080fd5b600080fd5b6000601f19601f8301169050919050565b7f4e487b7100000000000000000000000000000000000000000000000000000000600052604160045260246000fd5b613a5782613a0e565b810181811067ffffffffffffffff82111715613a7657613a75613a1f565b5b80604052505050565b6000613a8961395c565b9050613a958282613a4e565b919050565b600067ffffffffffffffff821115613ab557613ab4613a1f565b5b613abe82613a0e565b9050602081019050919050565b82818337600083830152505050565b6000613aed613ae884613a9a565b613a7f565b905082815260208101848484011115613b0957613b08613a09565b5b613b14848285613acb565b509392505050565b600082601f830112613b3157613b30613a04565b5b8135613b41848260208601613ada565b91505092915050565b60008060008060008060008060008060006101608c8e031215613b7057613b6f613966565b5b6000613b7e8e828f016139b9565b9b50506020613b8f8e828f016139ef565b9a505060408c013567ffffffffffffffff811115613bb057613baf61396b565b5b613bbc8e828f01613b1c565b99505060608c013567ffffffffffffffff811115613bdd57613bdc61396b565b5b613be98e828f01613b1c565b98505060808c013567ffffffffffffffff811115613c0a57613c0961396b565b5b613c168e828f01613b1c565b97505060a08c013567ffffffffffffffff811115613c3757613c3661396b565b5b613c438e828f01613b1c565b96505060c08c013567ffffffffffffffff811115613c6457613c6361396b565b5b613c708e828f01613b1c565b95505060e08c013567ffffffffffffffff811115613c9157613c9061396b565b5b613c9d8e828f01613b1c565b945050610100613caf8e828f016139ef565b9350506101208c013567ffffffffffffffff811115613cd157613cd061396b565b5b613cdd8e828f01613b1c565b9250506101408c013567ffffffffffffffff811115613cff57613cfe61396b565b5b613d0b8e828f01613b1c565b9150509295989b509295989b9093969950565b613d27816139ce565b82525050565b6000602082019050613d426000830184613d1e565b92915050565b600060208284031215613d5e57613d5d613966565b5b600082013567ffffffffffffffff811115613d7c57613d7b61396b565b5b613d8884828501613b1c565b91505092915050565b600081519050919050565b600082825260208201905092915050565b6000819050602082019050919050565b6000613dc882613970565b9050919050565b613dd881613dbd565b82525050565b600081519050919050565b600082825260208201905092915050565b60005b83811015613e18578082015181840152602081019050613dfd565b60008484015250505050565b6000613e2f82613dde565b613e398185613de9565b9350613e49818560208601613dfa565b613e5281613a0e565b840191505092915050565b613e66816139ce565b82525050565b613e7581613990565b82525050565b60006101a083016000830151613e946000860182613e6c565b506020830151613ea76020860182613e6c565b506040830151613eba6040860182613e5d565b506060830151613ecd6060860182613e5d565b5060808301518482036080860152613ee58282613e24565b91505060a083015184820360a0860152613eff8282613e24565b91505060c083015184820360c0860152613f198282613e24565b91505060e083015184820360e0860152613f338282613e24565b915050610100830151848203610100860152613f4f8282613e24565b915050610120830151848203610120860152613f6b8282613e24565b915050610140830151613f82610140860182613e5d565b50610160830151848203610160860152613f9c8282613e24565b915050610180830151848203610180860152613fb88282613e24565b9150508091505092915050565b600060e083016000830151613fdd6000860182613dcf565b5060208301518482036020860152613ff58282613e24565b915050604083015161400a6040860182613e5d565b50606083015184820360608601526140228282613e24565b9150506080830151848203608086015261403c8282613e24565b91505060a083015184820360a08601526140568282613e24565b91505060c083015184820360c08601526140708282613e7b565b9150508091505092915050565b60006140898383613fc5565b905092915050565b6000602082019050919050565b60006140a982613d91565b6140b38185613d9c565b9350836020820285016140c585613dad565b8060005b8581101561410157848403895281516140e2858261407d565b94506140ed83614091565b925060208a019950506001810190506140c9565b50829750879550505050505092915050565b6000602082019050818103600083015261412d818461409e565b905092915050565b60006101a08301600083015161414e6000860182613e6c565b5060208301516141616020860182613e6c565b5060408301516141746040860182613e5d565b5060608301516141876060860182613e5d565b506080830151848203608086015261419f8282613e24565b91505060a083015184820360a08601526141b98282613e24565b91505060c083015184820360c08601526141d38282613e24565b91505060e083015184820360e08601526141ed8282613e24565b9150506101008301518482036101008601526142098282613e24565b9150506101208301518482036101208601526142258282613e24565b91505061014083015161423c610140860182613e5d565b506101608301518482036101608601526142568282613e24565b9150506101808301518482036101808601526142728282613e24565b9150508091505092915050565b600060208201905081810360008301526142998184614135565b905092915050565b600060e0830160008301516142b96000860182613dcf565b50602083015184820360208601526142d18282613e24565b91505060408301516142e66040860182613e5d565b50606083015184820360608601526142fe8282613e24565b915050608083015184820360808601526143188282613e24565b91505060a083015184820360a08601526143328282613e24565b91505060c083015184820360c086015261434c8282613e7b565b9150508091505092915050565b6000602082019050818103600083015261437381846142a1565b905092915050565b600081519050919050565b600082825260208201905092915050565b6000819050602082019050919050565b60006143b38383613e7b565b905092915050565b6000602082019050919050565b60006143d38261437b565b6143dd8185614386565b9350836020820285016143ef85614397565b8060005b8581101561442b578484038952815161440c85826143a7565b9450614417836143bb565b925060208a019950506001810190506143f3565b50829750879550505050505092915050565b6000602082019050818103600083015261445781846143c8565b905092915050565b60008060008060008060c0878903121561447c5761447b613966565b5b600087013567ffffffffffffffff81111561449a5761449961396b565b5b6144a689828a01613b1c565b965050602087013567ffffffffffffffff8111156144c7576144c661396b565b5b6144d389828a01613b1c565b955050604087013567ffffffffffffffff8111156144f4576144f361396b565b5b61450089828a01613b1c565b945050606087013567ffffffffffffffff8111156145215761452061396b565b5b61452d89828a01613b1c565b935050608087013567ffffffffffffffff81111561454e5761454d61396b565b5b61455a89828a01613b1c565b92505060a087013567ffffffffffffffff81111561457b5761457a61396b565b5b61458789828a01613b1c565b9150509295509295509295565b7f4e487b7100000000000000000000000000000000000000000000000000000000600052601160045260246000fd5b60006145ce826139ce565b91506145d9836139ce565b92508282019050808211156145f1576145f0614594565b5b92915050565b600081519050919050565b600081905092915050565b6000614618826145f7565b6146228185614602565b9350614632818560208601613dfa565b80840191505092915050565b600061464a828561460d565b9150614656828461460d565b91508190509392505050565b600081905092915050565b600061467882613dde565b6146828185614662565b9350614692818560208601613dfa565b80840191505092915050565b60006146aa828461466d565b915081905092915050565b7f4e487b7100000000000000000000000000000000000000000000000000000000600052602260045260246000fd5b600060028204905060018216806146fc57607f821691505b60208210810361470f5761470e6146b5565b5b50919050565b60008190508160005260206000209050919050565b60006020601f8301049050919050565b600082821b905092915050565b6000600883026147777fffffffffffffffffffffffffffffffffffffffffffffffffffffffffffffffff8261473a565b614781868361473a565b95508019841693508086168417925050509392505050565b6000819050919050565b60006147be6147b96147b4846139ce565b614799565b6139ce565b9050919050565b6000819050919050565b6147d8836147a3565b6147ec6147e4826147c5565b848454614747565b825550505050565b600090565b6148016147f4565b61480c8184846147cf565b505050565b5b81811015614830576148256000826147f9565b600181019050614812565b5050565b601f8211156148755761484681614715565b61484f8461472a565b8101602085101561485e578190505b61487261486a8561472a565b830182614811565b50505b505050565b600082821c905092915050565b60006148986000198460080261487a565b1980831691505092915050565b60006148b18383614887565b9150826002028217905092915050565b6148ca82613dde565b67ffffffffffffffff8111156148e3576148e2613a1f565b5b6148ed82546146e4565b6148f8828285614834565b600060209050601f83116001811461492b5760008415614919578287015190505b61492385826148a5565b86555061498b565b601f19841661493986614715565b60005b828110156149615784890151825560018201915060208501945060208101905061493c565b8683101561497e578489015161497a601f891682614887565b8355505b6001600288020188555050505b505050505050565b6000815490506149a2816146e4565b9050919050565b8181036149b7575050614a8f565b6149c082614993565b67ffffffffffffffff8111156149d9576149d8613a1f565b5b6149e382546146e4565b6149ee828285614834565b6000601f831160018114614a1d5760008415614a0b578287015490505b614a1585826148a5565b865550614a88565b601f198416614a2b87614715565b9650614a3686614715565b60005b82811015614a5e57848901548255600182019150600185019450602081019050614a39565b86831015614a7b5784890154614a77601f891682614887565b8355505b6001600288020188555050505b5050505050505b565b600082825260208201905092915050565b7f4f6e6c792043484f4f5345206472697665722063616e20706572666f726d207460008201527f68697320616374696f6e00000000000000000000000000000000000000000000602082015250565b6000614afe602a83614a91565b9150614b0982614aa2565b604082019050919050565b60006020820190508181036000830152614b2d81614af1565b9050919050565b60008154614b41816146e4565b614b4b8186614662565b94506001821660008114614b665760018114614b7b57614bae565b60ff1983168652811515820286019350614bae565b614b8485614715565b60005b83811015614ba657815481890152600182019150602081019050614b87565b838801955050505b50505092915050565b6000614bc38284614b34565b915081905092915050565b7f43616e6e6f742070617920796f757273656c6600000000000000000000000000600082015250565b6000614c04601383614a91565b9150614c0f82614bce565b602082019050919050565b60006020820190508181036000830152614c3381614bf7565b9050919050565b7f496e73756666696369656e742066756e647320746f206d616b65207061796d6560008201527f6e74000000000000000000000000000000000000000000000000000000000000602082015250565b6000614c96602283614a91565b9150614ca182614c3a565b604082019050919050565b60006020820190508181036000830152614cc581614c89565b905091905056fea26469706673582212202915a3344b69f5d9704988def2d47d19bc0028f33f28b426e8e63ddd796b915464736f6c63430008180033",
  "linkReferences": {},
  "deployedLinkReferences": {}
}