{
  "_format": "hh-sol-artifact-1",
  "contractName": "CarpoolingSystemFinal",
  "sourceName": "contracts/CarPoolFinal.sol",
  "abi": [
    {
      "inputs": [],
      "stateMutability": "nonpayable",
      "type": "constructor"
    },
    {
      "inputs": [
        {
          "internalType": "address payable",
          "name": "_carOwner",
          "type": "address"
        },
        {
          "internalType": "uint256",
          "name": "_num_of_seat",
          "type": "uint256"
        },
        {
          "internalType": "string",
          "name": "_name",
          "type": "string"
        },
        {
          "internalType": "string",
          "name": "_vehicle",
          "type": "string"
        },
        {
          "internalType": "string",
          "name": "_vehicleNo",
          "type": "string"
        },
        {
          "internalType": "string",
          "name": "_category",
          "type": "string"
        },
        {
          "internalType": "string",
          "name": "_licence_id",
          "type": "string"
        },
        {
          "internalType": "string",
          "name": "_phoneNumber",
          "type": "string"
        },
        {
          "internalType": "uint256",
          "name": "_rent",
          "type": "uint256"
        },
        {
          "internalType": "string",
          "name": "_from",
          "type": "string"
        },
        {
          "internalType": "string",
          "name": "_dest",
          "type": "string"
        }
      ],
      "name": "addCar",
      "outputs": [],
      "stateMutability": "payable",
      "type": "function"
    },
    {
      "inputs": [
        {
          "internalType": "string",
          "name": "_dest",
          "type": "string"
        }
      ],
      "name": "getAvailableCarByDest",
      "outputs": [
        {
          "components": [
            {
              "internalType": "address payable",
              "name": "carOwner",
              "type": "address"
            },
            {
              "internalType": "address payable",
              "name": "driver",
              "type": "address"
            },
            {
              "internalType": "uint256",
              "name": "num_of_seat",
              "type": "uint256"
            },
            {
              "internalType": "uint256",
              "name": "carId",
              "type": "uint256"
            },
            {
              "internalType": "string",
              "name": "name",
              "type": "string"
            },
            {
              "internalType": "string",
              "name": "vehicle",
              "type": "string"
            },
            {
              "internalType": "string",
              "name": "vehicleNo",
              "type": "string"
            },
            {
              "internalType": "string",
              "name": "category",
              "type": "string"
            },
            {
              "internalType": "string",
              "name": "licence_id",
              "type": "string"
            },
            {
              "internalType": "string",
              "name": "phoneNumber",
              "type": "string"
            },
            {
              "internalType": "uint256",
              "name": "rent",
              "type": "uint256"
            },
            {
              "internalType": "string",
              "name": "from",
              "type": "string"
            },
            {
              "internalType": "string",
              "name": "dest",
              "type": "string"
            }
          ],
          "internalType": "struct CarpoolingSystemFinal.Car[]",
          "name": "",
          "type": "tuple[]"
        }
      ],
      "stateMutability": "view",
      "type": "function"
    },
    {
      "inputs": [
        {
          "internalType": "string",
          "name": "_licence_id",
          "type": "string"
        }
      ],
      "name": "getAvailableCarBylicenceId",
      "outputs": [
        {
          "components": [
            {
              "internalType": "address payable",
              "name": "carOwner",
              "type": "address"
            },
            {
              "internalType": "address payable",
              "name": "driver",
              "type": "address"
            },
            {
              "internalType": "uint256",
              "name": "num_of_seat",
              "type": "uint256"
            },
            {
              "internalType": "uint256",
              "name": "carId",
              "type": "uint256"
            },
            {
              "internalType": "string",
              "name": "name",
              "type": "string"
            },
            {
              "internalType": "string",
              "name": "vehicle",
              "type": "string"
            },
            {
              "internalType": "string",
              "name": "vehicleNo",
              "type": "string"
            },
            {
              "internalType": "string",
              "name": "category",
              "type": "string"
            },
            {
              "internalType": "string",
              "name": "licence_id",
              "type": "string"
            },
            {
              "internalType": "string",
              "name": "phoneNumber",
              "type": "string"
            },
            {
              "internalType": "uint256",
              "name": "rent",
              "type": "uint256"
            },
            {
              "internalType": "string",
              "name": "from",
              "type": "string"
            },
            {
              "internalType": "string",
              "name": "dest",
              "type": "string"
            }
          ],
          "internalType": "struct CarpoolingSystemFinal.Car[]",
          "name": "",
          "type": "tuple[]"
        }
      ],
      "stateMutability": "view",
      "type": "function"
    },
    {
      "inputs": [
        {
          "internalType": "string",
          "name": "_vehicleNo",
          "type": "string"
        }
      ],
      "name": "getAvailableCarpools",
      "outputs": [
        {
          "components": [
            {
              "internalType": "address payable",
              "name": "carOwner",
              "type": "address"
            },
            {
              "internalType": "address payable",
              "name": "driver",
              "type": "address"
            },
            {
              "internalType": "uint256",
              "name": "num_of_seat",
              "type": "uint256"
            },
            {
              "internalType": "uint256",
              "name": "carId",
              "type": "uint256"
            },
            {
              "internalType": "string",
              "name": "name",
              "type": "string"
            },
            {
              "internalType": "string",
              "name": "vehicle",
              "type": "string"
            },
            {
              "internalType": "string",
              "name": "vehicleNo",
              "type": "string"
            },
            {
              "internalType": "string",
              "name": "category",
              "type": "string"
            },
            {
              "internalType": "string",
              "name": "licence_id",
              "type": "string"
            },
            {
              "internalType": "string",
              "name": "phoneNumber",
              "type": "string"
            },
            {
              "internalType": "uint256",
              "name": "rent",
              "type": "uint256"
            },
            {
              "internalType": "string",
              "name": "from",
              "type": "string"
            },
            {
              "internalType": "string",
              "name": "dest",
              "type": "string"
            }
          ],
          "internalType": "struct CarpoolingSystemFinal.Car",
          "name": "",
          "type": "tuple"
        }
      ],
      "stateMutability": "view",
      "type": "function"
    },
    {
      "inputs": [
        {
          "internalType": "string",
          "name": "_phoneNo",
          "type": "string"
        }
      ],
      "name": "getAvailableUser",
      "outputs": [
        {
          "components": [
            {
              "internalType": "address",
              "name": "user",
              "type": "address"
            },
            {
              "internalType": "string",
              "name": "name",
              "type": "string"
            },
            {
              "internalType": "uint256",
              "name": "userId",
              "type": "uint256"
            },
            {
              "internalType": "string",
              "name": "from",
              "type": "string"
            },
            {
              "internalType": "string",
              "name": "dest",
              "type": "string"
            },
            {
              "internalType": "string",
              "name": "phone_no",
              "type": "string"
            },
            {
              "components": [
                {
                  "internalType": "address payable",
                  "name": "carOwner",
                  "type": "address"
                },
                {
                  "internalType": "address payable",
                  "name": "driver",
                  "type": "address"
                },
                {
                  "internalType": "uint256",
                  "name": "num_of_seat",
                  "type": "uint256"
                },
                {
                  "internalType": "uint256",
                  "name": "carId",
                  "type": "uint256"
                },
                {
                  "internalType": "string",
                  "name": "name",
                  "type": "string"
                },
                {
                  "internalType": "string",
                  "name": "vehicle",
                  "type": "string"
                },
                {
                  "internalType": "string",
                  "name": "vehicleNo",
                  "type": "string"
                },
                {
                  "internalType": "string",
                  "name": "category",
                  "type": "string"
                },
                {
                  "internalType": "string",
                  "name": "licence_id",
                  "type": "string"
                },
                {
                  "internalType": "string",
                  "name": "phoneNumber",
                  "type": "string"
                },
                {
                  "internalType": "uint256",
                  "name": "rent",
                  "type": "uint256"
                },
                {
                  "internalType": "string",
                  "name": "from",
                  "type": "string"
                },
                {
                  "internalType": "string",
                  "name": "dest",
                  "type": "string"
                }
              ],
              "internalType": "struct CarpoolingSystemFinal.Car",
              "name": "BookedCar",
              "type": "tuple"
            }
          ],
          "internalType": "struct CarpoolingSystemFinal.User[]",
          "name": "",
          "type": "tuple[]"
        }
      ],
      "stateMutability": "view",
      "type": "function"
    },
    {
      "inputs": [],
      "name": "getCarCount",
      "outputs": [
        {
          "internalType": "uint256",
          "name": "",
          "type": "uint256"
        }
      ],
      "stateMutability": "view",
      "type": "function"
    },
    {
      "inputs": [
        {
          "internalType": "string",
          "name": "_vehicleNo",
          "type": "string"
        }
      ],
      "name": "getSelected",
      "outputs": [
        {
          "components": [
            {
              "internalType": "address",
              "name": "user",
              "type": "address"
            },
            {
              "internalType": "string",
              "name": "name",
              "type": "string"
            },
            {
              "internalType": "uint256",
              "name": "userId",
              "type": "uint256"
            },
            {
              "internalType": "string",
              "name": "from",
              "type": "string"
            },
            {
              "internalType": "string",
              "name": "dest",
              "type": "string"
            },
            {
              "internalType": "string",
              "name": "phone_no",
              "type": "string"
            },
            {
              "components": [
                {
                  "internalType": "address payable",
                  "name": "carOwner",
                  "type": "address"
                },
                {
                  "internalType": "address payable",
                  "name": "driver",
                  "type": "address"
                },
                {
                  "internalType": "uint256",
                  "name": "num_of_seat",
                  "type": "uint256"
                },
                {
                  "internalType": "uint256",
                  "name": "carId",
                  "type": "uint256"
                },
                {
                  "internalType": "string",
                  "name": "name",
                  "type": "string"
                },
                {
                  "internalType": "string",
                  "name": "vehicle",
                  "type": "string"
                },
                {
                  "internalType": "string",
                  "name": "vehicleNo",
                  "type": "string"
                },
                {
                  "internalType": "string",
                  "name": "category",
                  "type": "string"
                },
                {
                  "internalType": "string",
                  "name": "licence_id",
                  "type": "string"
                },
                {
                  "internalType": "string",
                  "name": "phoneNumber",
                  "type": "string"
                },
                {
                  "internalType": "uint256",
                  "name": "rent",
                  "type": "uint256"
                },
                {
                  "internalType": "string",
                  "name": "from",
                  "type": "string"
                },
                {
                  "internalType": "string",
                  "name": "dest",
                  "type": "string"
                }
              ],
              "internalType": "struct CarpoolingSystemFinal.Car",
              "name": "BookedCar",
              "type": "tuple"
            }
          ],
          "internalType": "struct CarpoolingSystemFinal.User",
          "name": "",
          "type": "tuple"
        }
      ],
      "stateMutability": "view",
      "type": "function"
    },
    {
      "inputs": [],
      "name": "getUserCount",
      "outputs": [
        {
          "internalType": "uint256",
          "name": "",
          "type": "uint256"
        }
      ],
      "stateMutability": "view",
      "type": "function"
    },
    {
      "inputs": [
        {
          "internalType": "string",
          "name": "_name",
          "type": "string"
        },
        {
          "internalType": "string",
          "name": "_from",
          "type": "string"
        },
        {
          "internalType": "string",
          "name": "_dest",
          "type": "string"
        },
        {
          "internalType": "string",
          "name": "_phone_no",
          "type": "string"
        },
        {
          "internalType": "string",
          "name": "_vehicleNo",
          "type": "string"
        }
      ],
      "name": "makePayment",
      "outputs": [],
      "stateMutability": "payable",
      "type": "function"
    }
  ],
  "bytecode": "0x608060405234801561001057600080fd5b50336000806101000a81548173ffffffffffffffffffffffffffffffffffffffff021916908373ffffffffffffffffffffffffffffffffffffffff160217905550614cd3806100606000396000f3fe6080604052600436106100865760003560e01c80638c8b984d116100595780638c8b984d1461014c578063a5f5645d14610189578063ad65e1d6146101c6578063b5cb15f7146101e2578063be2c950c1461020d57610086565b806308c797581461008b57806327436b59146100a7578063458f9adb146100d25780637a7d56eb1461010f575b600080fd5b6100a560048036038101906100a09190613b49565b61024a565b005b3480156100b357600080fd5b506100bc61089c565b6040516100c99190613d2c565b60405180910390f35b3480156100de57600080fd5b506100f960048036038101906100f49190613d47565b6108a6565b6040516101069190614112565b60405180910390f35b34801561011b57600080fd5b5061013660048036038101906101319190613d47565b611140565b604051610143919061427e565b60405180910390f35b34801561015857600080fd5b50610173600480360381019061016e9190613d47565b6116d9565b6040516101809190614358565b60405180910390f35b34801561019557600080fd5b506101b060048036038101906101ab9190613d47565b612047565b6040516101bd919061443c565b60405180910390f35b6101e060048036038101906101db919061445e565b612625565b005b3480156101ee57600080fd5b506101f7613286565b6040516102049190613d2c565b60405180910390f35b34801561021957600080fd5b50610234600480360381019061022f9190613d47565b613290565b604051610241919061443c565b60405180910390f35b600180546102589190614594565b600181905550600082905060008290506000828260405160200161027d92919061460f565b6040516020818303038152906040529050604051806101a001604052808f73ffffffffffffffffffffffffffffffffffffffff1681526020013373ffffffffffffffffffffffffffffffffffffffff1681526020018e815260200160015481526020018d81526020018c81526020018b81526020018a81526020018981526020018881526020018781526020018681526020018581525060048b604051610324919061466f565b908152602001604051809103902060008201518160000160006101000a81548173ffffffffffffffffffffffffffffffffffffffff021916908373ffffffffffffffffffffffffffffffffffffffff16021790555060208201518160010160006101000a81548173ffffffffffffffffffffffffffffffffffffffff021916908373ffffffffffffffffffffffffffffffffffffffff160217905550604082015181600201556060820151816003015560808201518160040190816103e99190614892565b5060a08201518160050190816103ff9190614892565b5060c08201518160060190816104159190614892565b5060e082015181600701908161042b9190614892565b506101008201518160080190816104429190614892565b506101208201518160090190816104599190614892565b5061014082015181600a015561016082015181600b01908161047b9190614892565b5061018082015181600c0190816104929190614892565b509050506005816040516104a6919061466f565b908152602001604051809103902060048b6040516104c4919061466f565b908152602001604051809103902090806001815401808255809150506001900390600052602060002090600d02016000909190919091506000820160009054906101000a900473ffffffffffffffffffffffffffffffffffffffff168160000160006101000a81548173ffffffffffffffffffffffffffffffffffffffff021916908373ffffffffffffffffffffffffffffffffffffffff1602179055506001820160009054906101000a900473ffffffffffffffffffffffffffffffffffffffff168160010160006101000a81548173ffffffffffffffffffffffffffffffffffffffff021916908373ffffffffffffffffffffffffffffffffffffffff1602179055506002820154816002015560038201548160030155600482018160040190816105f1919061497a565b5060058201816005019081610606919061497a565b506006820181600601908161061b919061497a565b5060078201816007019081610630919061497a565b5060088201816008019081610645919061497a565b506009820181600901908161065a919061497a565b50600a82015481600a0155600b820181600b019081610679919061497a565b50600c820181600c01908161068e919061497a565b5050506006886040516106a1919061466f565b908152602001604051809103902060048b6040516106bf919061466f565b908152602001604051809103902090806001815401808255809150506001900390600052602060002090600d02016000909190919091506000820160009054906101000a900473ffffffffffffffffffffffffffffffffffffffff168160000160006101000a81548173ffffffffffffffffffffffffffffffffffffffff021916908373ffffffffffffffffffffffffffffffffffffffff1602179055506001820160009054906101000a900473ffffffffffffffffffffffffffffffffffffffff168160010160006101000a81548173ffffffffffffffffffffffffffffffffffffffff021916908373ffffffffffffffffffffffffffffffffffffffff1602179055506002820154816002015560038201548160030155600482018160040190816107ec919061497a565b5060058201816005019081610801919061497a565b5060068201816006019081610816919061497a565b506007820181600701908161082b919061497a565b5060088201816008019081610840919061497a565b5060098201816009019081610855919061497a565b50600a82015481600a0155600b820181600b019081610874919061497a565b50600c820181600c019081610889919061497a565b5050505050505050505050505050505050565b6000600154905090565b606060006007836040516108ba919061466f565b9081526020016040518091039020805480602002602001604051908101604052809291908181526020016000905b8282101561113157838290600052602060002090601302016040518060e00160405290816000820160009054906101000a900473ffffffffffffffffffffffffffffffffffffffff1673ffffffffffffffffffffffffffffffffffffffff1673ffffffffffffffffffffffffffffffffffffffff168152602001600182018054610971906146b5565b80601f016020809104026020016040519081016040528092919081815260200182805461099d906146b5565b80156109ea5780601f106109bf576101008083540402835291602001916109ea565b820191906000526020600020905b8154815290600101906020018083116109cd57829003601f168201915b5050505050815260200160028201548152602001600382018054610a0d906146b5565b80601f0160208091040260200160405190810160405280929190818152602001828054610a39906146b5565b8015610a865780601f10610a5b57610100808354040283529160200191610a86565b820191906000526020600020905b815481529060010190602001808311610a6957829003601f168201915b50505050508152602001600482018054610a9f906146b5565b80601f0160208091040260200160405190810160405280929190818152602001828054610acb906146b5565b8015610b185780601f10610aed57610100808354040283529160200191610b18565b820191906000526020600020905b815481529060010190602001808311610afb57829003601f168201915b50505050508152602001600582018054610b31906146b5565b80601f0160208091040260200160405190810160405280929190818152602001828054610b5d906146b5565b8015610baa5780601f10610b7f57610100808354040283529160200191610baa565b820191906000526020600020905b815481529060010190602001808311610b8d57829003601f168201915b5050505050815260200160068201604051806101a00160405290816000820160009054906101000a900473ffffffffffffffffffffffffffffffffffffffff1673ffffffffffffffffffffffffffffffffffffffff1673ffffffffffffffffffffffffffffffffffffffff1681526020016001820160009054906101000a900473ffffffffffffffffffffffffffffffffffffffff1673ffffffffffffffffffffffffffffffffffffffff1673ffffffffffffffffffffffffffffffffffffffff1681526020016002820154815260200160038201548152602001600482018054610c94906146b5565b80601f0160208091040260200160405190810160405280929190818152602001828054610cc0906146b5565b8015610d0d5780601f10610ce257610100808354040283529160200191610d0d565b820191906000526020600020905b815481529060010190602001808311610cf057829003601f168201915b50505050508152602001600582018054610d26906146b5565b80601f0160208091040260200160405190810160405280929190818152602001828054610d52906146b5565b8015610d9f5780601f10610d7457610100808354040283529160200191610d9f565b820191906000526020600020905b815481529060010190602001808311610d8257829003601f168201915b50505050508152602001600682018054610db8906146b5565b80601f0160208091040260200160405190810160405280929190818152602001828054610de4906146b5565b8015610e315780601f10610e0657610100808354040283529160200191610e31565b820191906000526020600020905b815481529060010190602001808311610e1457829003601f168201915b50505050508152602001600782018054610e4a906146b5565b80601f0160208091040260200160405190810160405280929190818152602001828054610e76906146b5565b8015610ec35780601f10610e9857610100808354040283529160200191610ec3565b820191906000526020600020905b815481529060010190602001808311610ea657829003601f168201915b50505050508152602001600882018054610edc906146b5565b80601f0160208091040260200160405190810160405280929190818152602001828054610f08906146b5565b8015610f555780601f10610f2a57610100808354040283529160200191610f55565b820191906000526020600020905b815481529060010190602001808311610f3857829003601f168201915b50505050508152602001600982018054610f6e906146b5565b80601f0160208091040260200160405190810160405280929190818152602001828054610f9a906146b5565b8015610fe75780601f10610fbc57610100808354040283529160200191610fe7565b820191906000526020600020905b815481529060010190602001808311610fca57829003601f168201915b50505050508152602001600a8201548152602001600b8201805461100a906146b5565b80601f0160208091040260200160405190810160405280929190818152602001828054611036906146b5565b80156110835780601f1061105857610100808354040283529160200191611083565b820191906000526020600020905b81548152906001019060200180831161106657829003601f168201915b50505050508152602001600c8201805461109c906146b5565b80601f01602080910402602001604051908101604052809291908181526020018280546110c8906146b5565b80156111155780601f106110ea57610100808354040283529160200191611115565b820191906000526020600020905b8154815290600101906020018083116110f857829003601f168201915b50505050508152505081525050815260200190600101906108e8565b50505050905080915050919050565b61114861386e565b600060048360405161115a919061466f565b9081526020016040518091039020604051806101a00160405290816000820160009054906101000a900473ffffffffffffffffffffffffffffffffffffffff1673ffffffffffffffffffffffffffffffffffffffff1673ffffffffffffffffffffffffffffffffffffffff1681526020016001820160009054906101000a900473ffffffffffffffffffffffffffffffffffffffff1673ffffffffffffffffffffffffffffffffffffffff1673ffffffffffffffffffffffffffffffffffffffff1681526020016002820154815260200160038201548152602001600482018054611244906146b5565b80601f0160208091040260200160405190810160405280929190818152602001828054611270906146b5565b80156112bd5780601f10611292576101008083540402835291602001916112bd565b820191906000526020600020905b8154815290600101906020018083116112a057829003601f168201915b505050505081526020016005820180546112d6906146b5565b80601f0160208091040260200160405190810160405280929190818152602001828054611302906146b5565b801561134f5780601f106113245761010080835404028352916020019161134f565b820191906000526020600020905b81548152906001019060200180831161133257829003601f168201915b50505050508152602001600682018054611368906146b5565b80601f0160208091040260200160405190810160405280929190818152602001828054611394906146b5565b80156113e15780601f106113b6576101008083540402835291602001916113e1565b820191906000526020600020905b8154815290600101906020018083116113c457829003601f168201915b505050505081526020016007820180546113fa906146b5565b80601f0160208091040260200160405190810160405280929190818152602001828054611426906146b5565b80156114735780601f1061144857610100808354040283529160200191611473565b820191906000526020600020905b81548152906001019060200180831161145657829003601f168201915b5050505050815260200160088201805461148c906146b5565b80601f01602080910402602001604051908101604052809291908181526020018280546114b8906146b5565b80156115055780601f106114da57610100808354040283529160200191611505565b820191906000526020600020905b8154815290600101906020018083116114e857829003601f168201915b5050505050815260200160098201805461151e906146b5565b80601f016020809104026020016040519081016040528092919081815260200182805461154a906146b5565b80156115975780601f1061156c57610100808354040283529160200191611597565b820191906000526020600020905b81548152906001019060200180831161157a57829003601f168201915b50505050508152602001600a8201548152602001600b820180546115ba906146b5565b80601f01602080910402602001604051908101604052809291908181526020018280546115e6906146b5565b80156116335780601f1061160857610100808354040283529160200191611633565b820191906000526020600020905b81548152906001019060200180831161161657829003601f168201915b50505050508152602001600c8201805461164c906146b5565b80601f0160208091040260200160405190810160405280929190818152602001828054611678906146b5565b80156116c55780601f1061169a576101008083540402835291602001916116c5565b820191906000526020600020905b8154815290600101906020018083116116a857829003601f168201915b505050505081525050905080915050919050565b6116e1613902565b6000600380546116f0906146b5565b80601f016020809104026020016040519081016040528092919081815260200182805461171c906146b5565b80156117695780601f1061173e57610100808354040283529160200191611769565b820191906000526020600020905b81548152906001019060200180831161174c57829003601f168201915b5050505050905082604051602001611781919061466f565b60405160208183030381529060405280519060200120816040516020016117a8919061466f565b60405160208183030381529060405280519060200120146117fe576040517f08c379a00000000000000000000000000000000000000000000000000000000081526004016117f590614ae5565b60405180910390fd5b6008600360405161180f9190614b88565b90815260200160405180910390206040518060e00160405290816000820160009054906101000a900473ffffffffffffffffffffffffffffffffffffffff1673ffffffffffffffffffffffffffffffffffffffff1673ffffffffffffffffffffffffffffffffffffffff16815260200160018201805461188e906146b5565b80601f01602080910402602001604051908101604052809291908181526020018280546118ba906146b5565b80156119075780601f106118dc57610100808354040283529160200191611907565b820191906000526020600020905b8154815290600101906020018083116118ea57829003601f168201915b505050505081526020016002820154815260200160038201805461192a906146b5565b80601f0160208091040260200160405190810160405280929190818152602001828054611956906146b5565b80156119a35780601f10611978576101008083540402835291602001916119a3565b820191906000526020600020905b81548152906001019060200180831161198657829003601f168201915b505050505081526020016004820180546119bc906146b5565b80601f01602080910402602001604051908101604052809291908181526020018280546119e8906146b5565b8015611a355780601f10611a0a57610100808354040283529160200191611a35565b820191906000526020600020905b815481529060010190602001808311611a1857829003601f168201915b50505050508152602001600582018054611a4e906146b5565b80601f0160208091040260200160405190810160405280929190818152602001828054611a7a906146b5565b8015611ac75780601f10611a9c57610100808354040283529160200191611ac7565b820191906000526020600020905b815481529060010190602001808311611aaa57829003601f168201915b5050505050815260200160068201604051806101a00160405290816000820160009054906101000a900473ffffffffffffffffffffffffffffffffffffffff1673ffffffffffffffffffffffffffffffffffffffff1673ffffffffffffffffffffffffffffffffffffffff1681526020016001820160009054906101000a900473ffffffffffffffffffffffffffffffffffffffff1673ffffffffffffffffffffffffffffffffffffffff1673ffffffffffffffffffffffffffffffffffffffff1681526020016002820154815260200160038201548152602001600482018054611bb1906146b5565b80601f0160208091040260200160405190810160405280929190818152602001828054611bdd906146b5565b8015611c2a5780601f10611bff57610100808354040283529160200191611c2a565b820191906000526020600020905b815481529060010190602001808311611c0d57829003601f168201915b50505050508152602001600582018054611c43906146b5565b80601f0160208091040260200160405190810160405280929190818152602001828054611c6f906146b5565b8015611cbc5780601f10611c9157610100808354040283529160200191611cbc565b820191906000526020600020905b815481529060010190602001808311611c9f57829003601f168201915b50505050508152602001600682018054611cd5906146b5565b80601f0160208091040260200160405190810160405280929190818152602001828054611d01906146b5565b8015611d4e5780601f10611d2357610100808354040283529160200191611d4e565b820191906000526020600020905b815481529060010190602001808311611d3157829003601f168201915b50505050508152602001600782018054611d67906146b5565b80601f0160208091040260200160405190810160405280929190818152602001828054611d93906146b5565b8015611de05780601f10611db557610100808354040283529160200191611de0565b820191906000526020600020905b815481529060010190602001808311611dc357829003601f168201915b50505050508152602001600882018054611df9906146b5565b80601f0160208091040260200160405190810160405280929190818152602001828054611e25906146b5565b8015611e725780601f10611e4757610100808354040283529160200191611e72565b820191906000526020600020905b815481529060010190602001808311611e5557829003601f168201915b50505050508152602001600982018054611e8b906146b5565b80601f0160208091040260200160405190810160405280929190818152602001828054611eb7906146b5565b8015611f045780601f10611ed957610100808354040283529160200191611f04565b820191906000526020600020905b815481529060010190602001808311611ee757829003601f168201915b50505050508152602001600a8201548152602001600b82018054611f27906146b5565b80601f0160208091040260200160405190810160405280929190818152602001828054611f53906146b5565b8015611fa05780601f10611f7557610100808354040283529160200191611fa0565b820191906000526020600020905b815481529060010190602001808311611f8357829003601f168201915b50505050508152602001600c82018054611fb9906146b5565b80601f0160208091040260200160405190810160405280929190818152602001828054611fe5906146b5565b80156120325780601f1061200757610100808354040283529160200191612032565b820191906000526020600020905b81548152906001019060200180831161201557829003601f168201915b50505050508152505081525050915050919050565b6060600060058360405161205b919061466f565b9081526020016040518091039020805480602002602001604051908101604052809291908181526020016000905b8282101561261657838290600052602060002090600d0201604051806101a00160405290816000820160009054906101000a900473ffffffffffffffffffffffffffffffffffffffff1673ffffffffffffffffffffffffffffffffffffffff1673ffffffffffffffffffffffffffffffffffffffff1681526020016001820160009054906101000a900473ffffffffffffffffffffffffffffffffffffffff1673ffffffffffffffffffffffffffffffffffffffff1673ffffffffffffffffffffffffffffffffffffffff168152602001600282015481526020016003820154815260200160048201805461217d906146b5565b80601f01602080910402602001604051908101604052809291908181526020018280546121a9906146b5565b80156121f65780601f106121cb576101008083540402835291602001916121f6565b820191906000526020600020905b8154815290600101906020018083116121d957829003601f168201915b5050505050815260200160058201805461220f906146b5565b80601f016020809104026020016040519081016040528092919081815260200182805461223b906146b5565b80156122885780601f1061225d57610100808354040283529160200191612288565b820191906000526020600020905b81548152906001019060200180831161226b57829003601f168201915b505050505081526020016006820180546122a1906146b5565b80601f01602080910402602001604051908101604052809291908181526020018280546122cd906146b5565b801561231a5780601f106122ef5761010080835404028352916020019161231a565b820191906000526020600020905b8154815290600101906020018083116122fd57829003601f168201915b50505050508152602001600782018054612333906146b5565b80601f016020809104026020016040519081016040528092919081815260200182805461235f906146b5565b80156123ac5780601f10612381576101008083540402835291602001916123ac565b820191906000526020600020905b81548152906001019060200180831161238f57829003601f168201915b505050505081526020016008820180546123c5906146b5565b80601f01602080910402602001604051908101604052809291908181526020018280546123f1906146b5565b801561243e5780601f106124135761010080835404028352916020019161243e565b820191906000526020600020905b81548152906001019060200180831161242157829003601f168201915b50505050508152602001600982018054612457906146b5565b80601f0160208091040260200160405190810160405280929190818152602001828054612483906146b5565b80156124d05780601f106124a5576101008083540402835291602001916124d0565b820191906000526020600020905b8154815290600101906020018083116124b357829003601f168201915b50505050508152602001600a8201548152602001600b820180546124f3906146b5565b80601f016020809104026020016040519081016040528092919081815260200182805461251f906146b5565b801561256c5780601f106125415761010080835404028352916020019161256c565b820191906000526020600020905b81548152906001019060200180831161254f57829003601f168201915b50505050508152602001600c82018054612585906146b5565b80601f01602080910402602001604051908101604052809291908181526020018280546125b1906146b5565b80156125fe5780601f106125d3576101008083540402835291602001916125fe565b820191906000526020600020905b8154815290600101906020018083116125e157829003601f168201915b50505050508152505081526020019060010190612089565b50505050905080915050919050565b6000600482604051612637919061466f565b908152602001604051809103902090508060010160009054906101000a900473ffffffffffffffffffffffffffffffffffffffff1673ffffffffffffffffffffffffffffffffffffffff163373ffffffffffffffffffffffffffffffffffffffff16036126d9576040517f08c379a00000000000000000000000000000000000000000000000000000000081526004016126d090614beb565b60405180910390fd5b80600a0154341015612720576040517f08c379a000000000000000000000000000000000000000000000000000000000815260040161271790614c7d565b60405180910390fd5b8060010160009054906101000a900473ffffffffffffffffffffffffffffffffffffffff1673ffffffffffffffffffffffffffffffffffffffff166108fc349081150290604051600060405180830381858888f1935050505015801561278a573d6000803e3d6000fd5b50600160025461279a9190614594565b6002819055506040518060e001604052803373ffffffffffffffffffffffffffffffffffffffff16815260200187815260200160025481526020018681526020018581526020018481526020016004846040516127f7919061466f565b9081526020016040518091039020604051806101a00160405290816000820160009054906101000a900473ffffffffffffffffffffffffffffffffffffffff1673ffffffffffffffffffffffffffffffffffffffff1673ffffffffffffffffffffffffffffffffffffffff1681526020016001820160009054906101000a900473ffffffffffffffffffffffffffffffffffffffff1673ffffffffffffffffffffffffffffffffffffffff1673ffffffffffffffffffffffffffffffffffffffff16815260200160028201548152602001600382015481526020016004820180546128e1906146b5565b80601f016020809104026020016040519081016040528092919081815260200182805461290d906146b5565b801561295a5780601f1061292f5761010080835404028352916020019161295a565b820191906000526020600020905b81548152906001019060200180831161293d57829003601f168201915b50505050508152602001600582018054612973906146b5565b80601f016020809104026020016040519081016040528092919081815260200182805461299f906146b5565b80156129ec5780601f106129c1576101008083540402835291602001916129ec565b820191906000526020600020905b8154815290600101906020018083116129cf57829003601f168201915b50505050508152602001600682018054612a05906146b5565b80601f0160208091040260200160405190810160405280929190818152602001828054612a31906146b5565b8015612a7e5780601f10612a5357610100808354040283529160200191612a7e565b820191906000526020600020905b815481529060010190602001808311612a6157829003601f168201915b50505050508152602001600782018054612a97906146b5565b80601f0160208091040260200160405190810160405280929190818152602001828054612ac3906146b5565b8015612b105780601f10612ae557610100808354040283529160200191612b10565b820191906000526020600020905b815481529060010190602001808311612af357829003601f168201915b50505050508152602001600882018054612b29906146b5565b80601f0160208091040260200160405190810160405280929190818152602001828054612b55906146b5565b8015612ba25780601f10612b7757610100808354040283529160200191612ba2565b820191906000526020600020905b815481529060010190602001808311612b8557829003601f168201915b50505050508152602001600982018054612bbb906146b5565b80601f0160208091040260200160405190810160405280929190818152602001828054612be7906146b5565b8015612c345780601f10612c0957610100808354040283529160200191612c34565b820191906000526020600020905b815481529060010190602001808311612c1757829003601f168201915b50505050508152602001600a8201548152602001600b82018054612c57906146b5565b80601f0160208091040260200160405190810160405280929190818152602001828054612c83906146b5565b8015612cd05780601f10612ca557610100808354040283529160200191612cd0565b820191906000526020600020905b815481529060010190602001808311612cb357829003601f168201915b50505050508152602001600c82018054612ce9906146b5565b80601f0160208091040260200160405190810160405280929190818152602001828054612d15906146b5565b8015612d625780601f10612d3757610100808354040283529160200191612d62565b820191906000526020600020905b815481529060010190602001808311612d4557829003601f168201915b505050505081525050815250600883604051612d7e919061466f565b908152602001604051809103902060008201518160000160006101000a81548173ffffffffffffffffffffffffffffffffffffffff021916908373ffffffffffffffffffffffffffffffffffffffff1602179055506020820151816001019081612de89190614892565b50604082015181600201556060820151816003019081612e089190614892565b506080820151816004019081612e1e9190614892565b5060a0820151816005019081612e349190614892565b5060c08201518160060160008201518160000160006101000a81548173ffffffffffffffffffffffffffffffffffffffff021916908373ffffffffffffffffffffffffffffffffffffffff16021790555060208201518160010160006101000a81548173ffffffffffffffffffffffffffffffffffffffff021916908373ffffffffffffffffffffffffffffffffffffffff16021790555060408201518160020155606082015181600301556080820151816004019081612ef59190614892565b5060a0820151816005019081612f0b9190614892565b5060c0820151816006019081612f219190614892565b5060e0820151816007019081612f379190614892565b50610100820151816008019081612f4e9190614892565b50610120820151816009019081612f659190614892565b5061014082015181600a015561016082015181600b019081612f879190614892565b5061018082015181600c019081612f9e9190614892565b505050905050600783604051612fb4919061466f565b9081526020016040518091039020600883604051612fd2919061466f565b908152602001604051809103902090806001815401808255809150506001900390600052602060002090601302016000909190919091506000820160009054906101000a900473ffffffffffffffffffffffffffffffffffffffff168160000160006101000a81548173ffffffffffffffffffffffffffffffffffffffff021916908373ffffffffffffffffffffffffffffffffffffffff16021790555060018201816001019081613084919061497a565b5060028201548160020155600382018160030190816130a3919061497a565b50600482018160040190816130b8919061497a565b50600582018160050190816130cd919061497a565b5060068201816006016000820160009054906101000a900473ffffffffffffffffffffffffffffffffffffffff168160000160006101000a81548173ffffffffffffffffffffffffffffffffffffffff021916908373ffffffffffffffffffffffffffffffffffffffff1602179055506001820160009054906101000a900473ffffffffffffffffffffffffffffffffffffffff168160010160006101000a81548173ffffffffffffffffffffffffffffffffffffffff021916908373ffffffffffffffffffffffffffffffffffffffff1602179055506002820154816002015560038201548160030155600482018160040190816131cc919061497a565b50600582018160050190816131e1919061497a565b50600682018160060190816131f6919061497a565b506007820181600701908161320b919061497a565b5060088201816008019081613220919061497a565b5060098201816009019081613235919061497a565b50600a82015481600a0155600b820181600b019081613254919061497a565b50600c820181600c019081613269919061497a565b5050505050816003908161327d9190614892565b50505050505050565b6000600254905090565b606060006006836040516132a4919061466f565b9081526020016040518091039020805480602002602001604051908101604052809291908181526020016000905b8282101561385f57838290600052602060002090600d0201604051806101a00160405290816000820160009054906101000a900473ffffffffffffffffffffffffffffffffffffffff1673ffffffffffffffffffffffffffffffffffffffff1673ffffffffffffffffffffffffffffffffffffffff1681526020016001820160009054906101000a900473ffffffffffffffffffffffffffffffffffffffff1673ffffffffffffffffffffffffffffffffffffffff1673ffffffffffffffffffffffffffffffffffffffff16815260200160028201548152602001600382015481526020016004820180546133c6906146b5565b80601f01602080910402602001604051908101604052809291908181526020018280546133f2906146b5565b801561343f5780601f106134145761010080835404028352916020019161343f565b820191906000526020600020905b81548152906001019060200180831161342257829003601f168201915b50505050508152602001600582018054613458906146b5565b80601f0160208091040260200160405190810160405280929190818152602001828054613484906146b5565b80156134d15780601f106134a6576101008083540402835291602001916134d1565b820191906000526020600020905b8154815290600101906020018083116134b457829003601f168201915b505050505081526020016006820180546134ea906146b5565b80601f0160208091040260200160405190810160405280929190818152602001828054613516906146b5565b80156135635780601f1061353857610100808354040283529160200191613563565b820191906000526020600020905b81548152906001019060200180831161354657829003601f168201915b5050505050815260200160078201805461357c906146b5565b80601f01602080910402602001604051908101604052809291908181526020018280546135a8906146b5565b80156135f55780601f106135ca576101008083540402835291602001916135f5565b820191906000526020600020905b8154815290600101906020018083116135d857829003601f168201915b5050505050815260200160088201805461360e906146b5565b80601f016020809104026020016040519081016040528092919081815260200182805461363a906146b5565b80156136875780601f1061365c57610100808354040283529160200191613687565b820191906000526020600020905b81548152906001019060200180831161366a57829003601f168201915b505050505081526020016009820180546136a0906146b5565b80601f01602080910402602001604051908101604052809291908181526020018280546136cc906146b5565b80156137195780601f106136ee57610100808354040283529160200191613719565b820191906000526020600020905b8154815290600101906020018083116136fc57829003601f168201915b50505050508152602001600a8201548152602001600b8201805461373c906146b5565b80601f0160208091040260200160405190810160405280929190818152602001828054613768906146b5565b80156137b55780601f1061378a576101008083540402835291602001916137b5565b820191906000526020600020905b81548152906001019060200180831161379857829003601f168201915b50505050508152602001600c820180546137ce906146b5565b80601f01602080910402602001604051908101604052809291908181526020018280546137fa906146b5565b80156138475780601f1061381c57610100808354040283529160200191613847565b820191906000526020600020905b81548152906001019060200180831161382a57829003601f168201915b505050505081525050815260200190600101906132d2565b50505050905080915050919050565b604051806101a00160405280600073ffffffffffffffffffffffffffffffffffffffff168152602001600073ffffffffffffffffffffffffffffffffffffffff16815260200160008152602001600081526020016060815260200160608152602001606081526020016060815260200160608152602001606081526020016000815260200160608152602001606081525090565b6040518060e00160405280600073ffffffffffffffffffffffffffffffffffffffff168152602001606081526020016000815260200160608152602001606081526020016060815260200161395561386e565b81525090565b6000604051905090565b600080fd5b600080fd5b600073ffffffffffffffffffffffffffffffffffffffff82169050919050565b600061399a8261396f565b9050919050565b6139aa8161398f565b81146139b557600080fd5b50565b6000813590506139c7816139a1565b92915050565b6000819050919050565b6139e0816139cd565b81146139eb57600080fd5b50565b6000813590506139fd816139d7565b92915050565b600080fd5b600080fd5b6000601f19601f8301169050919050565b7f4e487b7100000000000000000000000000000000000000000000000000000000600052604160045260246000fd5b613a5682613a0d565b810181811067ffffffffffffffff82111715613a7557613a74613a1e565b5b80604052505050565b6000613a8861395b565b9050613a948282613a4d565b919050565b600067ffffffffffffffff821115613ab457613ab3613a1e565b5b613abd82613a0d565b9050602081019050919050565b82818337600083830152505050565b6000613aec613ae784613a99565b613a7e565b905082815260208101848484011115613b0857613b07613a08565b5b613b13848285613aca565b509392505050565b600082601f830112613b3057613b2f613a03565b5b8135613b40848260208601613ad9565b91505092915050565b60008060008060008060008060008060006101608c8e031215613b6f57613b6e613965565b5b6000613b7d8e828f016139b8565b9b50506020613b8e8e828f016139ee565b9a505060408c013567ffffffffffffffff811115613baf57613bae61396a565b5b613bbb8e828f01613b1b565b99505060608c013567ffffffffffffffff811115613bdc57613bdb61396a565b5b613be88e828f01613b1b565b98505060808c013567ffffffffffffffff811115613c0957613c0861396a565b5b613c158e828f01613b1b565b97505060a08c013567ffffffffffffffff811115613c3657613c3561396a565b5b613c428e828f01613b1b565b96505060c08c013567ffffffffffffffff811115613c6357613c6261396a565b5b613c6f8e828f01613b1b565b95505060e08c013567ffffffffffffffff811115613c9057613c8f61396a565b5b613c9c8e828f01613b1b565b945050610100613cae8e828f016139ee565b9350506101208c013567ffffffffffffffff811115613cd057613ccf61396a565b5b613cdc8e828f01613b1b565b9250506101408c013567ffffffffffffffff811115613cfe57613cfd61396a565b5b613d0a8e828f01613b1b565b9150509295989b509295989b9093969950565b613d26816139cd565b82525050565b6000602082019050613d416000830184613d1d565b92915050565b600060208284031215613d5d57613d5c613965565b5b600082013567ffffffffffffffff811115613d7b57613d7a61396a565b5b613d8784828501613b1b565b91505092915050565b600081519050919050565b600082825260208201905092915050565b6000819050602082019050919050565b6000613dc78261396f565b9050919050565b613dd781613dbc565b82525050565b600081519050919050565b600082825260208201905092915050565b60005b83811015613e17578082015181840152602081019050613dfc565b60008484015250505050565b6000613e2e82613ddd565b613e388185613de8565b9350613e48818560208601613df9565b613e5181613a0d565b840191505092915050565b613e65816139cd565b82525050565b613e748161398f565b82525050565b60006101a083016000830151613e936000860182613e6b565b506020830151613ea66020860182613e6b565b506040830151613eb96040860182613e5c565b506060830151613ecc6060860182613e5c565b5060808301518482036080860152613ee48282613e23565b91505060a083015184820360a0860152613efe8282613e23565b91505060c083015184820360c0860152613f188282613e23565b91505060e083015184820360e0860152613f328282613e23565b915050610100830151848203610100860152613f4e8282613e23565b915050610120830151848203610120860152613f6a8282613e23565b915050610140830151613f81610140860182613e5c565b50610160830151848203610160860152613f9b8282613e23565b915050610180830151848203610180860152613fb78282613e23565b9150508091505092915050565b600060e083016000830151613fdc6000860182613dce565b5060208301518482036020860152613ff48282613e23565b91505060408301516140096040860182613e5c565b50606083015184820360608601526140218282613e23565b9150506080830151848203608086015261403b8282613e23565b91505060a083015184820360a08601526140558282613e23565b91505060c083015184820360c086015261406f8282613e7a565b9150508091505092915050565b60006140888383613fc4565b905092915050565b6000602082019050919050565b60006140a882613d90565b6140b28185613d9b565b9350836020820285016140c485613dac565b8060005b8581101561410057848403895281516140e1858261407c565b94506140ec83614090565b925060208a019950506001810190506140c8565b50829750879550505050505092915050565b6000602082019050818103600083015261412c818461409d565b905092915050565b60006101a08301600083015161414d6000860182613e6b565b5060208301516141606020860182613e6b565b5060408301516141736040860182613e5c565b5060608301516141866060860182613e5c565b506080830151848203608086015261419e8282613e23565b91505060a083015184820360a08601526141b88282613e23565b91505060c083015184820360c08601526141d28282613e23565b91505060e083015184820360e08601526141ec8282613e23565b9150506101008301518482036101008601526142088282613e23565b9150506101208301518482036101208601526142248282613e23565b91505061014083015161423b610140860182613e5c565b506101608301518482036101608601526142558282613e23565b9150506101808301518482036101808601526142718282613e23565b9150508091505092915050565b600060208201905081810360008301526142988184614134565b905092915050565b600060e0830160008301516142b86000860182613dce565b50602083015184820360208601526142d08282613e23565b91505060408301516142e56040860182613e5c565b50606083015184820360608601526142fd8282613e23565b915050608083015184820360808601526143178282613e23565b91505060a083015184820360a08601526143318282613e23565b91505060c083015184820360c086015261434b8282613e7a565b9150508091505092915050565b6000602082019050818103600083015261437281846142a0565b905092915050565b600081519050919050565b600082825260208201905092915050565b6000819050602082019050919050565b60006143b28383613e7a565b905092915050565b6000602082019050919050565b60006143d28261437a565b6143dc8185614385565b9350836020820285016143ee85614396565b8060005b8581101561442a578484038952815161440b85826143a6565b9450614416836143ba565b925060208a019950506001810190506143f2565b50829750879550505050505092915050565b6000602082019050818103600083015261445681846143c7565b905092915050565b600080600080600060a0868803121561447a57614479613965565b5b600086013567ffffffffffffffff8111156144985761449761396a565b5b6144a488828901613b1b565b955050602086013567ffffffffffffffff8111156144c5576144c461396a565b5b6144d188828901613b1b565b945050604086013567ffffffffffffffff8111156144f2576144f161396a565b5b6144fe88828901613b1b565b935050606086013567ffffffffffffffff81111561451f5761451e61396a565b5b61452b88828901613b1b565b925050608086013567ffffffffffffffff81111561454c5761454b61396a565b5b61455888828901613b1b565b9150509295509295909350565b7f4e487b7100000000000000000000000000000000000000000000000000000000600052601160045260246000fd5b600061459f826139cd565b91506145aa836139cd565b92508282019050808211156145c2576145c1614565565b5b92915050565b600081519050919050565b600081905092915050565b60006145e9826145c8565b6145f381856145d3565b9350614603818560208601613df9565b80840191505092915050565b600061461b82856145de565b915061462782846145de565b91508190509392505050565b600081905092915050565b600061464982613ddd565b6146538185614633565b9350614663818560208601613df9565b80840191505092915050565b600061467b828461463e565b915081905092915050565b7f4e487b7100000000000000000000000000000000000000000000000000000000600052602260045260246000fd5b600060028204905060018216806146cd57607f821691505b6020821081036146e0576146df614686565b5b50919050565b60008190508160005260206000209050919050565b60006020601f8301049050919050565b600082821b905092915050565b6000600883026147487fffffffffffffffffffffffffffffffffffffffffffffffffffffffffffffffff8261470b565b614752868361470b565b95508019841693508086168417925050509392505050565b6000819050919050565b600061478f61478a614785846139cd565b61476a565b6139cd565b9050919050565b6000819050919050565b6147a983614774565b6147bd6147b582614796565b848454614718565b825550505050565b600090565b6147d26147c5565b6147dd8184846147a0565b505050565b5b81811015614801576147f66000826147ca565b6001810190506147e3565b5050565b601f82111561484657614817816146e6565b614820846146fb565b8101602085101561482f578190505b61484361483b856146fb565b8301826147e2565b50505b505050565b600082821c905092915050565b60006148696000198460080261484b565b1980831691505092915050565b60006148828383614858565b9150826002028217905092915050565b61489b82613ddd565b67ffffffffffffffff8111156148b4576148b3613a1e565b5b6148be82546146b5565b6148c9828285614805565b600060209050601f8311600181146148fc57600084156148ea578287015190505b6148f48582614876565b86555061495c565b601f19841661490a866146e6565b60005b828110156149325784890151825560018201915060208501945060208101905061490d565b8683101561494f578489015161494b601f891682614858565b8355505b6001600288020188555050505b505050505050565b600081549050614973816146b5565b9050919050565b818103614988575050614a60565b61499182614964565b67ffffffffffffffff8111156149aa576149a9613a1e565b5b6149b482546146b5565b6149bf828285614805565b6000601f8311600181146149ee57600084156149dc578287015490505b6149e68582614876565b865550614a59565b601f1984166149fc876146e6565b9650614a07866146e6565b60005b82811015614a2f57848901548255600182019150600185019450602081019050614a0a565b86831015614a4c5784890154614a48601f891682614858565b8355505b6001600288020188555050505b5050505050505b565b600082825260208201905092915050565b7f4f6e6c792043484f4f5345206472697665722063616e20706572666f726d207460008201527f68697320616374696f6e00000000000000000000000000000000000000000000602082015250565b6000614acf602a83614a62565b9150614ada82614a73565b604082019050919050565b60006020820190508181036000830152614afe81614ac2565b9050919050565b60008154614b12816146b5565b614b1c8186614633565b94506001821660008114614b375760018114614b4c57614b7f565b60ff1983168652811515820286019350614b7f565b614b55856146e6565b60005b83811015614b7757815481890152600182019150602081019050614b58565b838801955050505b50505092915050565b6000614b948284614b05565b915081905092915050565b7f43616e6e6f742070617920796f757273656c6600000000000000000000000000600082015250565b6000614bd5601383614a62565b9150614be082614b9f565b602082019050919050565b60006020820190508181036000830152614c0481614bc8565b9050919050565b7f496e73756666696369656e742066756e647320746f206d616b65207061796d6560008201527f6e74000000000000000000000000000000000000000000000000000000000000602082015250565b6000614c67602283614a62565b9150614c7282614c0b565b604082019050919050565b60006020820190508181036000830152614c9681614c5a565b905091905056fea26469706673582212201a57458be59f86ef62c671dea1d3b37da01b8a3c7e4dafe30bf30d7e73cca59364736f6c63430008180033",
  "linkReferences": {},
  "deployedLinkReferences": {}
}