{
  "_format": "hh-sol-artifact-1",
  "contractName": "CarpoolingSystemFinal",
  "sourceName": "contracts/CarPoolFinal.sol",
  "abi": [
    {
      "inputs": [
        {
          "internalType": "address payable",
          "name": "_carOwner",
          "type": "address"
        },
        {
          "internalType": "uint256",
          "name": "_num_of_seat",
          "type": "uint256"
        },
        {
          "internalType": "string",
          "name": "_name",
          "type": "string"
        },
        {
          "internalType": "string",
          "name": "_vehicle",
          "type": "string"
        },
        {
          "internalType": "string",
          "name": "_vehicleNo",
          "type": "string"
        },
        {
          "internalType": "string",
          "name": "_category",
          "type": "string"
        },
        {
          "internalType": "string",
          "name": "_licence_id",
          "type": "string"
        },
        {
          "internalType": "string",
          "name": "_phoneNumber",
          "type": "string"
        },
        {
          "internalType": "uint256",
          "name": "_rent",
          "type": "uint256"
        },
        {
          "internalType": "string",
          "name": "_from",
          "type": "string"
        },
        {
          "internalType": "string",
          "name": "_dest",
          "type": "string"
        }
      ],
      "name": "addCar",
      "outputs": [],
      "stateMutability": "payable",
      "type": "function"
    },
    {
      "inputs": [
        {
          "internalType": "string",
          "name": "_vehicleNo",
          "type": "string"
        },
        {
          "internalType": "string",
          "name": "_licence_id",
          "type": "string"
        }
      ],
      "name": "bookedList",
      "outputs": [],
      "stateMutability": "nonpayable",
      "type": "function"
    },
    {
      "inputs": [
        {
          "internalType": "string",
          "name": "_vehicleNo",
          "type": "string"
        }
      ],
      "name": "cardeleteRecord",
      "outputs": [],
      "stateMutability": "nonpayable",
      "type": "function"
    },
    {
      "inputs": [
        {
          "internalType": "string",
          "name": "_dest",
          "type": "string"
        }
      ],
      "name": "getAvailableCarByDest",
      "outputs": [
        {
          "components": [
            {
              "internalType": "address payable",
              "name": "driver",
              "type": "address"
            },
            {
              "internalType": "uint256",
              "name": "num_of_seat",
              "type": "uint256"
            },
            {
              "internalType": "string",
              "name": "name",
              "type": "string"
            },
            {
              "internalType": "string",
              "name": "vehicle",
              "type": "string"
            },
            {
              "internalType": "string",
              "name": "vehicleNo",
              "type": "string"
            },
            {
              "internalType": "string",
              "name": "category",
              "type": "string"
            },
            {
              "internalType": "string",
              "name": "licence_id",
              "type": "string"
            },
            {
              "internalType": "string",
              "name": "phoneNumber",
              "type": "string"
            },
            {
              "internalType": "uint256",
              "name": "rent",
              "type": "uint256"
            },
            {
              "internalType": "string",
              "name": "from",
              "type": "string"
            },
            {
              "internalType": "string",
              "name": "dest",
              "type": "string"
            }
          ],
          "internalType": "struct CarpoolingSystemFinal.Car[]",
          "name": "",
          "type": "tuple[]"
        }
      ],
      "stateMutability": "view",
      "type": "function"
    },
    {
      "inputs": [
        {
          "internalType": "string",
          "name": "_licence_id",
          "type": "string"
        }
      ],
      "name": "getAvailableCarBylicenceId",
      "outputs": [
        {
          "components": [
            {
              "internalType": "address payable",
              "name": "driver",
              "type": "address"
            },
            {
              "internalType": "uint256",
              "name": "num_of_seat",
              "type": "uint256"
            },
            {
              "internalType": "string",
              "name": "name",
              "type": "string"
            },
            {
              "internalType": "string",
              "name": "vehicle",
              "type": "string"
            },
            {
              "internalType": "string",
              "name": "vehicleNo",
              "type": "string"
            },
            {
              "internalType": "string",
              "name": "category",
              "type": "string"
            },
            {
              "internalType": "string",
              "name": "licence_id",
              "type": "string"
            },
            {
              "internalType": "string",
              "name": "phoneNumber",
              "type": "string"
            },
            {
              "internalType": "uint256",
              "name": "rent",
              "type": "uint256"
            },
            {
              "internalType": "string",
              "name": "from",
              "type": "string"
            },
            {
              "internalType": "string",
              "name": "dest",
              "type": "string"
            }
          ],
          "internalType": "struct CarpoolingSystemFinal.Car[]",
          "name": "",
          "type": "tuple[]"
        }
      ],
      "stateMutability": "view",
      "type": "function"
    },
    {
      "inputs": [
        {
          "internalType": "string",
          "name": "_vehicleNo",
          "type": "string"
        }
      ],
      "name": "getAvailableCarpools",
      "outputs": [
        {
          "components": [
            {
              "internalType": "address payable",
              "name": "driver",
              "type": "address"
            },
            {
              "internalType": "uint256",
              "name": "num_of_seat",
              "type": "uint256"
            },
            {
              "internalType": "string",
              "name": "name",
              "type": "string"
            },
            {
              "internalType": "string",
              "name": "vehicle",
              "type": "string"
            },
            {
              "internalType": "string",
              "name": "vehicleNo",
              "type": "string"
            },
            {
              "internalType": "string",
              "name": "category",
              "type": "string"
            },
            {
              "internalType": "string",
              "name": "licence_id",
              "type": "string"
            },
            {
              "internalType": "string",
              "name": "phoneNumber",
              "type": "string"
            },
            {
              "internalType": "uint256",
              "name": "rent",
              "type": "uint256"
            },
            {
              "internalType": "string",
              "name": "from",
              "type": "string"
            },
            {
              "internalType": "string",
              "name": "dest",
              "type": "string"
            }
          ],
          "internalType": "struct CarpoolingSystemFinal.Car",
          "name": "",
          "type": "tuple"
        }
      ],
      "stateMutability": "view",
      "type": "function"
    },
    {
      "inputs": [
        {
          "internalType": "string",
          "name": "_phoneNo",
          "type": "string"
        }
      ],
      "name": "getAvailableUser",
      "outputs": [
        {
          "components": [
            {
              "internalType": "address",
              "name": "user",
              "type": "address"
            },
            {
              "internalType": "uint256",
              "name": "userId",
              "type": "uint256"
            },
            {
              "internalType": "string",
              "name": "from",
              "type": "string"
            },
            {
              "internalType": "string",
              "name": "dest",
              "type": "string"
            },
            {
              "internalType": "string",
              "name": "phone_no",
              "type": "string"
            },
            {
              "components": [
                {
                  "internalType": "address payable",
                  "name": "driver",
                  "type": "address"
                },
                {
                  "internalType": "uint256",
                  "name": "num_of_seat",
                  "type": "uint256"
                },
                {
                  "internalType": "string",
                  "name": "name",
                  "type": "string"
                },
                {
                  "internalType": "string",
                  "name": "vehicle",
                  "type": "string"
                },
                {
                  "internalType": "string",
                  "name": "vehicleNo",
                  "type": "string"
                },
                {
                  "internalType": "string",
                  "name": "category",
                  "type": "string"
                },
                {
                  "internalType": "string",
                  "name": "licence_id",
                  "type": "string"
                },
                {
                  "internalType": "string",
                  "name": "phoneNumber",
                  "type": "string"
                },
                {
                  "internalType": "uint256",
                  "name": "rent",
                  "type": "uint256"
                },
                {
                  "internalType": "string",
                  "name": "from",
                  "type": "string"
                },
                {
                  "internalType": "string",
                  "name": "dest",
                  "type": "string"
                }
              ],
              "internalType": "struct CarpoolingSystemFinal.Car",
              "name": "BookedCar",
              "type": "tuple"
            }
          ],
          "internalType": "struct CarpoolingSystemFinal.User[]",
          "name": "",
          "type": "tuple[]"
        }
      ],
      "stateMutability": "view",
      "type": "function"
    },
    {
      "inputs": [
        {
          "internalType": "string",
          "name": "_licence_id",
          "type": "string"
        }
      ],
      "name": "getBookedCarBylicenceId",
      "outputs": [
        {
          "components": [
            {
              "internalType": "address",
              "name": "user",
              "type": "address"
            },
            {
              "internalType": "uint256",
              "name": "userId",
              "type": "uint256"
            },
            {
              "internalType": "string",
              "name": "from",
              "type": "string"
            },
            {
              "internalType": "string",
              "name": "dest",
              "type": "string"
            },
            {
              "internalType": "string",
              "name": "phone_no",
              "type": "string"
            },
            {
              "components": [
                {
                  "internalType": "address payable",
                  "name": "driver",
                  "type": "address"
                },
                {
                  "internalType": "uint256",
                  "name": "num_of_seat",
                  "type": "uint256"
                },
                {
                  "internalType": "string",
                  "name": "name",
                  "type": "string"
                },
                {
                  "internalType": "string",
                  "name": "vehicle",
                  "type": "string"
                },
                {
                  "internalType": "string",
                  "name": "vehicleNo",
                  "type": "string"
                },
                {
                  "internalType": "string",
                  "name": "category",
                  "type": "string"
                },
                {
                  "internalType": "string",
                  "name": "licence_id",
                  "type": "string"
                },
                {
                  "internalType": "string",
                  "name": "phoneNumber",
                  "type": "string"
                },
                {
                  "internalType": "uint256",
                  "name": "rent",
                  "type": "uint256"
                },
                {
                  "internalType": "string",
                  "name": "from",
                  "type": "string"
                },
                {
                  "internalType": "string",
                  "name": "dest",
                  "type": "string"
                }
              ],
              "internalType": "struct CarpoolingSystemFinal.Car",
              "name": "BookedCar",
              "type": "tuple"
            }
          ],
          "internalType": "struct CarpoolingSystemFinal.User[]",
          "name": "",
          "type": "tuple[]"
        }
      ],
      "stateMutability": "view",
      "type": "function"
    },
    {
      "inputs": [
        {
          "internalType": "string",
          "name": "_vehicleNo",
          "type": "string"
        },
        {
          "internalType": "string",
          "name": "_licence_id",
          "type": "string"
        }
      ],
      "name": "getSelected",
      "outputs": [
        {
          "components": [
            {
              "internalType": "address",
              "name": "user",
              "type": "address"
            },
            {
              "internalType": "uint256",
              "name": "userId",
              "type": "uint256"
            },
            {
              "internalType": "string",
              "name": "from",
              "type": "string"
            },
            {
              "internalType": "string",
              "name": "dest",
              "type": "string"
            },
            {
              "internalType": "string",
              "name": "phone_no",
              "type": "string"
            },
            {
              "components": [
                {
                  "internalType": "address payable",
                  "name": "driver",
                  "type": "address"
                },
                {
                  "internalType": "uint256",
                  "name": "num_of_seat",
                  "type": "uint256"
                },
                {
                  "internalType": "string",
                  "name": "name",
                  "type": "string"
                },
                {
                  "internalType": "string",
                  "name": "vehicle",
                  "type": "string"
                },
                {
                  "internalType": "string",
                  "name": "vehicleNo",
                  "type": "string"
                },
                {
                  "internalType": "string",
                  "name": "category",
                  "type": "string"
                },
                {
                  "internalType": "string",
                  "name": "licence_id",
                  "type": "string"
                },
                {
                  "internalType": "string",
                  "name": "phoneNumber",
                  "type": "string"
                },
                {
                  "internalType": "uint256",
                  "name": "rent",
                  "type": "uint256"
                },
                {
                  "internalType": "string",
                  "name": "from",
                  "type": "string"
                },
                {
                  "internalType": "string",
                  "name": "dest",
                  "type": "string"
                }
              ],
              "internalType": "struct CarpoolingSystemFinal.Car",
              "name": "BookedCar",
              "type": "tuple"
            }
          ],
          "internalType": "struct CarpoolingSystemFinal.User",
          "name": "",
          "type": "tuple"
        }
      ],
      "stateMutability": "view",
      "type": "function"
    },
    {
      "inputs": [],
      "name": "getUserCount",
      "outputs": [
        {
          "internalType": "uint256",
          "name": "",
          "type": "uint256"
        }
      ],
      "stateMutability": "view",
      "type": "function"
    },
    {
      "inputs": [
        {
          "internalType": "string",
          "name": "",
          "type": "string"
        }
      ],
      "name": "isDeleted",
      "outputs": [
        {
          "internalType": "bool",
          "name": "",
          "type": "bool"
        }
      ],
      "stateMutability": "view",
      "type": "function"
    },
    {
      "inputs": [
        {
          "internalType": "string",
          "name": "_from",
          "type": "string"
        },
        {
          "internalType": "string",
          "name": "_dest",
          "type": "string"
        },
        {
          "internalType": "string",
          "name": "_phone_no",
          "type": "string"
        },
        {
          "internalType": "string",
          "name": "_vehicleNo",
          "type": "string"
        }
      ],
      "name": "makePayment",
      "outputs": [],
      "stateMutability": "payable",
      "type": "function"
    },
    {
      "inputs": [
        {
          "internalType": "string",
          "name": "_licence_id",
          "type": "string"
        }
      ],
      "name": "setSelected",
      "outputs": [],
      "stateMutability": "nonpayable",
      "type": "function"
    },
    {
      "inputs": [
        {
          "internalType": "string",
          "name": "",
          "type": "string"
        }
      ],
      "name": "setSelectedDrivers",
      "outputs": [
        {
          "internalType": "string",
          "name": "",
          "type": "string"
        }
      ],
      "stateMutability": "view",
      "type": "function"
    }
  ],
  "bytecode": "0x608060405234801561001057600080fd5b50615e9680620000216000396000f3fe6080604052600436106100dd5760003560e01c8063811121121161007f578063b7a73d5911610059578063b7a73d59146102e9578063be2c950c14610305578063f8c5265e14610342578063f99046e61461037f576100dd565b80638111211214610258578063a5f5645d14610281578063b5cb15f7146102be576100dd565b8063458f9adb116100bb578063458f9adb146101645780636c9c088c146101a157806376b576cd146101de5780637a7d56eb1461021b576100dd565b806302b426b1146100e257806308c797581461011f57806321e603ad1461013b575b600080fd5b3480156100ee57600080fd5b5061010960048036038101906101049190614a56565b6103a8565b6040516101169190614e19565b60405180910390f35b61013960048036038101906101349190614e93565b610b50565b005b34801561014757600080fd5b50610162600480360381019061015d9190615067565b611049565b005b34801561017057600080fd5b5061018b60048036038101906101869190614a56565b611291565b6040516101989190614e19565b60405180910390f35b3480156101ad57600080fd5b506101c860048036038101906101c39190614a56565b611a39565b6040516101d591906150fa565b60405180910390f35b3480156101ea57600080fd5b5061020560048036038101906102009190614a56565b611a6f565b604051610212919061515f565b60405180910390f35b34801561022757600080fd5b50610242600480360381019061023d9190614a56565b611b25565b60405161024f91906152a1565b60405180910390f35b34801561026457600080fd5b5061027f600480360381019061027a9190614a56565b61205e565b005b34801561028d57600080fd5b506102a860048036038101906102a39190614a56565b61208b565b6040516102b59190615385565b60405180910390f35b3480156102ca57600080fd5b506102d3612609565b6040516102e091906153b6565b60405180910390f35b61030360048036038101906102fe91906153d1565b612613565b005b34801561031157600080fd5b5061032c60048036038101906103279190614a56565b61313d565b6040516103399190615385565b60405180910390f35b34801561034e57600080fd5b5061036960048036038101906103649190615067565b6136bb565b6040516103769190615546565b60405180910390f35b34801561038b57600080fd5b506103a660048036038101906103a19190614a56565b613f53565b005b60606000600a836040516103bc91906155a4565b9081526020016040518091039020805480602002602001604051908101604052809291908181526020016000905b82821015610b4157838290600052602060002090601002016040518060c00160405290816000820160009054906101000a900473ffffffffffffffffffffffffffffffffffffffff1673ffffffffffffffffffffffffffffffffffffffff1673ffffffffffffffffffffffffffffffffffffffff1681526020016001820154815260200160028201805461047d906155ea565b80601f01602080910402602001604051908101604052809291908181526020018280546104a9906155ea565b80156104f65780601f106104cb576101008083540402835291602001916104f6565b820191906000526020600020905b8154815290600101906020018083116104d957829003601f168201915b5050505050815260200160038201805461050f906155ea565b80601f016020809104026020016040519081016040528092919081815260200182805461053b906155ea565b80156105885780601f1061055d57610100808354040283529160200191610588565b820191906000526020600020905b81548152906001019060200180831161056b57829003601f168201915b505050505081526020016004820180546105a1906155ea565b80601f01602080910402602001604051908101604052809291908181526020018280546105cd906155ea565b801561061a5780601f106105ef5761010080835404028352916020019161061a565b820191906000526020600020905b8154815290600101906020018083116105fd57829003601f168201915b5050505050815260200160058201604051806101600160405290816000820160009054906101000a900473ffffffffffffffffffffffffffffffffffffffff1673ffffffffffffffffffffffffffffffffffffffff1673ffffffffffffffffffffffffffffffffffffffff168152602001600182015481526020016002820180546106a4906155ea565b80601f01602080910402602001604051908101604052809291908181526020018280546106d0906155ea565b801561071d5780601f106106f25761010080835404028352916020019161071d565b820191906000526020600020905b81548152906001019060200180831161070057829003601f168201915b50505050508152602001600382018054610736906155ea565b80601f0160208091040260200160405190810160405280929190818152602001828054610762906155ea565b80156107af5780601f10610784576101008083540402835291602001916107af565b820191906000526020600020905b81548152906001019060200180831161079257829003601f168201915b505050505081526020016004820180546107c8906155ea565b80601f01602080910402602001604051908101604052809291908181526020018280546107f4906155ea565b80156108415780601f1061081657610100808354040283529160200191610841565b820191906000526020600020905b81548152906001019060200180831161082457829003601f168201915b5050505050815260200160058201805461085a906155ea565b80601f0160208091040260200160405190810160405280929190818152602001828054610886906155ea565b80156108d35780601f106108a8576101008083540402835291602001916108d3565b820191906000526020600020905b8154815290600101906020018083116108b657829003601f168201915b505050505081526020016006820180546108ec906155ea565b80601f0160208091040260200160405190810160405280929190818152602001828054610918906155ea565b80156109655780601f1061093a57610100808354040283529160200191610965565b820191906000526020600020905b81548152906001019060200180831161094857829003601f168201915b5050505050815260200160078201805461097e906155ea565b80601f01602080910402602001604051908101604052809291908181526020018280546109aa906155ea565b80156109f75780601f106109cc576101008083540402835291602001916109f7565b820191906000526020600020905b8154815290600101906020018083116109da57829003601f168201915b5050505050815260200160088201548152602001600982018054610a1a906155ea565b80601f0160208091040260200160405190810160405280929190818152602001828054610a46906155ea565b8015610a935780601f10610a6857610100808354040283529160200191610a93565b820191906000526020600020905b815481529060010190602001808311610a7657829003601f168201915b50505050508152602001600a82018054610aac906155ea565b80601f0160208091040260200160405190810160405280929190818152602001828054610ad8906155ea565b8015610b255780601f10610afa57610100808354040283529160200191610b25565b820191906000526020600020905b815481529060010190602001808311610b0857829003601f168201915b50505050508152505081525050815260200190600101906103ea565b50505050905080915050919050565b60018054610b5e919061564a565b6001819055506000829050600082905060008282604051602001610b839291906156c5565b60405160208183030381529060405290506040518061016001604052808f73ffffffffffffffffffffffffffffffffffffffff1681526020018e81526020018d81526020018c81526020018b81526020018a81526020018981526020018881526020018781526020018681526020018581525060058b604051610c0691906155a4565b908152602001604051809103902060008201518160000160006101000a81548173ffffffffffffffffffffffffffffffffffffffff021916908373ffffffffffffffffffffffffffffffffffffffff160217905550602082015181600101556040820151816002019081610c7a9190615895565b506060820151816003019081610c909190615895565b506080820151816004019081610ca69190615895565b5060a0820151816005019081610cbc9190615895565b5060c0820151816006019081610cd29190615895565b5060e0820151816007019081610ce89190615895565b506101008201518160080155610120820151816009019081610d0a9190615895565b5061014082015181600a019081610d219190615895565b50905050600681604051610d3591906155a4565b908152602001604051809103902060058b604051610d5391906155a4565b908152602001604051809103902090806001815401808255809150506001900390600052602060002090600b02016000909190919091506000820160009054906101000a900473ffffffffffffffffffffffffffffffffffffffff168160000160006101000a81548173ffffffffffffffffffffffffffffffffffffffff021916908373ffffffffffffffffffffffffffffffffffffffff1602179055506001820154816001015560028201816002019081610e0f919061597d565b5060038201816003019081610e24919061597d565b5060048201816004019081610e39919061597d565b5060058201816005019081610e4e919061597d565b5060068201816006019081610e63919061597d565b5060078201816007019081610e78919061597d565b506008820154816008015560098201816009019081610e97919061597d565b50600a820181600a019081610eac919061597d565b505050600788604051610ebf91906155a4565b908152602001604051809103902060058b604051610edd91906155a4565b908152602001604051809103902090806001815401808255809150506001900390600052602060002090600b02016000909190919091506000820160009054906101000a900473ffffffffffffffffffffffffffffffffffffffff168160000160006101000a81548173ffffffffffffffffffffffffffffffffffffffff021916908373ffffffffffffffffffffffffffffffffffffffff1602179055506001820154816001015560028201816002019081610f99919061597d565b5060038201816003019081610fae919061597d565b5060048201816004019081610fc3919061597d565b5060058201816005019081610fd8919061597d565b5060068201816006019081610fed919061597d565b5060078201816007019081611002919061597d565b506008820154816008015560098201816009019081611021919061597d565b50600a820181600a019081611036919061597d565b5050505050505050505050505050505050565b600a8160405161105991906155a4565b908152602001604051809103902060098360405161107791906155a4565b908152602001604051809103902090806001815401808255809150506001900390600052602060002090601002016000909190919091506000820160009054906101000a900473ffffffffffffffffffffffffffffffffffffffff168160000160006101000a81548173ffffffffffffffffffffffffffffffffffffffff021916908373ffffffffffffffffffffffffffffffffffffffff1602179055506001820154816001015560028201816002019081611133919061597d565b5060038201816003019081611148919061597d565b506004820181600401908161115d919061597d565b5060058201816005016000820160009054906101000a900473ffffffffffffffffffffffffffffffffffffffff168160000160006101000a81548173ffffffffffffffffffffffffffffffffffffffff021916908373ffffffffffffffffffffffffffffffffffffffff16021790555060018201548160010155600282018160020190816111eb919061597d565b5060038201816003019081611200919061597d565b5060048201816004019081611215919061597d565b506005820181600501908161122a919061597d565b506006820181600601908161123f919061597d565b5060078201816007019081611254919061597d565b506008820154816008015560098201816009019081611273919061597d565b50600a820181600a019081611288919061597d565b50505050505050565b606060006008836040516112a591906155a4565b9081526020016040518091039020805480602002602001604051908101604052809291908181526020016000905b82821015611a2a57838290600052602060002090601002016040518060c00160405290816000820160009054906101000a900473ffffffffffffffffffffffffffffffffffffffff1673ffffffffffffffffffffffffffffffffffffffff1673ffffffffffffffffffffffffffffffffffffffff16815260200160018201548152602001600282018054611366906155ea565b80601f0160208091040260200160405190810160405280929190818152602001828054611392906155ea565b80156113df5780601f106113b4576101008083540402835291602001916113df565b820191906000526020600020905b8154815290600101906020018083116113c257829003601f168201915b505050505081526020016003820180546113f8906155ea565b80601f0160208091040260200160405190810160405280929190818152602001828054611424906155ea565b80156114715780601f1061144657610100808354040283529160200191611471565b820191906000526020600020905b81548152906001019060200180831161145457829003601f168201915b5050505050815260200160048201805461148a906155ea565b80601f01602080910402602001604051908101604052809291908181526020018280546114b6906155ea565b80156115035780601f106114d857610100808354040283529160200191611503565b820191906000526020600020905b8154815290600101906020018083116114e657829003601f168201915b5050505050815260200160058201604051806101600160405290816000820160009054906101000a900473ffffffffffffffffffffffffffffffffffffffff1673ffffffffffffffffffffffffffffffffffffffff1673ffffffffffffffffffffffffffffffffffffffff1681526020016001820154815260200160028201805461158d906155ea565b80601f01602080910402602001604051908101604052809291908181526020018280546115b9906155ea565b80156116065780601f106115db57610100808354040283529160200191611606565b820191906000526020600020905b8154815290600101906020018083116115e957829003601f168201915b5050505050815260200160038201805461161f906155ea565b80601f016020809104026020016040519081016040528092919081815260200182805461164b906155ea565b80156116985780601f1061166d57610100808354040283529160200191611698565b820191906000526020600020905b81548152906001019060200180831161167b57829003601f168201915b505050505081526020016004820180546116b1906155ea565b80601f01602080910402602001604051908101604052809291908181526020018280546116dd906155ea565b801561172a5780601f106116ff5761010080835404028352916020019161172a565b820191906000526020600020905b81548152906001019060200180831161170d57829003601f168201915b50505050508152602001600582018054611743906155ea565b80601f016020809104026020016040519081016040528092919081815260200182805461176f906155ea565b80156117bc5780601f10611791576101008083540402835291602001916117bc565b820191906000526020600020905b81548152906001019060200180831161179f57829003601f168201915b505050505081526020016006820180546117d5906155ea565b80601f0160208091040260200160405190810160405280929190818152602001828054611801906155ea565b801561184e5780601f106118235761010080835404028352916020019161184e565b820191906000526020600020905b81548152906001019060200180831161183157829003601f168201915b50505050508152602001600782018054611867906155ea565b80601f0160208091040260200160405190810160405280929190818152602001828054611893906155ea565b80156118e05780601f106118b5576101008083540402835291602001916118e0565b820191906000526020600020905b8154815290600101906020018083116118c357829003601f168201915b5050505050815260200160088201548152602001600982018054611903906155ea565b80601f016020809104026020016040519081016040528092919081815260200182805461192f906155ea565b801561197c5780601f106119515761010080835404028352916020019161197c565b820191906000526020600020905b81548152906001019060200180831161195f57829003601f168201915b50505050508152602001600a82018054611995906155ea565b80601f01602080910402602001604051908101604052809291908181526020018280546119c1906155ea565b8015611a0e5780601f106119e357610100808354040283529160200191611a0e565b820191906000526020600020905b8154815290600101906020018083116119f157829003601f168201915b50505050508152505081525050815260200190600101906112d3565b50505050905080915050919050565b6003818051602081018201805184825260208301602085012081835280955050505050506000915054906101000a900460ff1681565b6004818051602081018201805184825260208301602085012081835280955050505050506000915090508054611aa4906155ea565b80601f0160208091040260200160405190810160405280929190818152602001828054611ad0906155ea565b8015611b1d5780601f10611af257610100808354040283529160200191611b1d565b820191906000526020600020905b815481529060010190602001808311611b0057829003601f168201915b505050505081565b611b2d6147dd565b6000600583604051611b3f91906155a4565b9081526020016040518091039020604051806101600160405290816000820160009054906101000a900473ffffffffffffffffffffffffffffffffffffffff1673ffffffffffffffffffffffffffffffffffffffff1673ffffffffffffffffffffffffffffffffffffffff16815260200160018201548152602001600282018054611bc9906155ea565b80601f0160208091040260200160405190810160405280929190818152602001828054611bf5906155ea565b8015611c425780601f10611c1757610100808354040283529160200191611c42565b820191906000526020600020905b815481529060010190602001808311611c2557829003601f168201915b50505050508152602001600382018054611c5b906155ea565b80601f0160208091040260200160405190810160405280929190818152602001828054611c87906155ea565b8015611cd45780601f10611ca957610100808354040283529160200191611cd4565b820191906000526020600020905b815481529060010190602001808311611cb757829003601f168201915b50505050508152602001600482018054611ced906155ea565b80601f0160208091040260200160405190810160405280929190818152602001828054611d19906155ea565b8015611d665780601f10611d3b57610100808354040283529160200191611d66565b820191906000526020600020905b815481529060010190602001808311611d4957829003601f168201915b50505050508152602001600582018054611d7f906155ea565b80601f0160208091040260200160405190810160405280929190818152602001828054611dab906155ea565b8015611df85780601f10611dcd57610100808354040283529160200191611df8565b820191906000526020600020905b815481529060010190602001808311611ddb57829003601f168201915b50505050508152602001600682018054611e11906155ea565b80601f0160208091040260200160405190810160405280929190818152602001828054611e3d906155ea565b8015611e8a5780601f10611e5f57610100808354040283529160200191611e8a565b820191906000526020600020905b815481529060010190602001808311611e6d57829003601f168201915b50505050508152602001600782018054611ea3906155ea565b80601f0160208091040260200160405190810160405280929190818152602001828054611ecf906155ea565b8015611f1c5780601f10611ef157610100808354040283529160200191611f1c565b820191906000526020600020905b815481529060010190602001808311611eff57829003601f168201915b5050505050815260200160088201548152602001600982018054611f3f906155ea565b80601f0160208091040260200160405190810160405280929190818152602001828054611f6b906155ea565b8015611fb85780601f10611f8d57610100808354040283529160200191611fb8565b820191906000526020600020905b815481529060010190602001808311611f9b57829003601f168201915b50505050508152602001600a82018054611fd1906155ea565b80601f0160208091040260200160405190810160405280929190818152602001828054611ffd906155ea565b801561204a5780601f1061201f5761010080835404028352916020019161204a565b820191906000526020600020905b81548152906001019060200180831161202d57829003601f168201915b505050505081525050905080915050919050565b60048160405161206e91906155a4565b90815260200160405180910390206000612088919061484d565b50565b6060600060068360405161209f91906155a4565b9081526020016040518091039020805480602002602001604051908101604052809291908181526020016000905b828210156125fa57838290600052602060002090600b0201604051806101600160405290816000820160009054906101000a900473ffffffffffffffffffffffffffffffffffffffff1673ffffffffffffffffffffffffffffffffffffffff1673ffffffffffffffffffffffffffffffffffffffff16815260200160018201548152602001600282018054612161906155ea565b80601f016020809104026020016040519081016040528092919081815260200182805461218d906155ea565b80156121da5780601f106121af576101008083540402835291602001916121da565b820191906000526020600020905b8154815290600101906020018083116121bd57829003601f168201915b505050505081526020016003820180546121f3906155ea565b80601f016020809104026020016040519081016040528092919081815260200182805461221f906155ea565b801561226c5780601f106122415761010080835404028352916020019161226c565b820191906000526020600020905b81548152906001019060200180831161224f57829003601f168201915b50505050508152602001600482018054612285906155ea565b80601f01602080910402602001604051908101604052809291908181526020018280546122b1906155ea565b80156122fe5780601f106122d3576101008083540402835291602001916122fe565b820191906000526020600020905b8154815290600101906020018083116122e157829003601f168201915b50505050508152602001600582018054612317906155ea565b80601f0160208091040260200160405190810160405280929190818152602001828054612343906155ea565b80156123905780601f1061236557610100808354040283529160200191612390565b820191906000526020600020905b81548152906001019060200180831161237357829003601f168201915b505050505081526020016006820180546123a9906155ea565b80601f01602080910402602001604051908101604052809291908181526020018280546123d5906155ea565b80156124225780601f106123f757610100808354040283529160200191612422565b820191906000526020600020905b81548152906001019060200180831161240557829003601f168201915b5050505050815260200160078201805461243b906155ea565b80601f0160208091040260200160405190810160405280929190818152602001828054612467906155ea565b80156124b45780601f10612489576101008083540402835291602001916124b4565b820191906000526020600020905b81548152906001019060200180831161249757829003601f168201915b50505050508152602001600882015481526020016009820180546124d7906155ea565b80601f0160208091040260200160405190810160405280929190818152602001828054612503906155ea565b80156125505780601f1061252557610100808354040283529160200191612550565b820191906000526020600020905b81548152906001019060200180831161253357829003601f168201915b50505050508152602001600a82018054612569906155ea565b80601f0160208091040260200160405190810160405280929190818152602001828054612595906155ea565b80156125e25780601f106125b7576101008083540402835291602001916125e2565b820191906000526020600020905b8154815290600101906020018083116125c557829003601f168201915b505050505081525050815260200190600101906120cd565b50505050905080915050919050565b6000600254905090565b600060058260405161262591906155a4565b908152602001604051809103902090508060000160009054906101000a900473ffffffffffffffffffffffffffffffffffffffff1673ffffffffffffffffffffffffffffffffffffffff163373ffffffffffffffffffffffffffffffffffffffff16036126c7576040517f08c379a00000000000000000000000000000000000000000000000000000000081526004016126be90615ab1565b60405180910390fd5b806008015434101561270e576040517f08c379a000000000000000000000000000000000000000000000000000000000815260040161270590615b43565b60405180910390fd5b8060000160009054906101000a900473ffffffffffffffffffffffffffffffffffffffff1673ffffffffffffffffffffffffffffffffffffffff166108fc349081150290604051600060405180830381858888f19350505050158015612778573d6000803e3d6000fd5b506001600254612788919061564a565b6002819055506040518060c001604052803373ffffffffffffffffffffffffffffffffffffffff16815260200160025481526020018681526020018581526020018481526020016005846040516127df91906155a4565b9081526020016040518091039020604051806101600160405290816000820160009054906101000a900473ffffffffffffffffffffffffffffffffffffffff1673ffffffffffffffffffffffffffffffffffffffff1673ffffffffffffffffffffffffffffffffffffffff16815260200160018201548152602001600282018054612869906155ea565b80601f0160208091040260200160405190810160405280929190818152602001828054612895906155ea565b80156128e25780601f106128b7576101008083540402835291602001916128e2565b820191906000526020600020905b8154815290600101906020018083116128c557829003601f168201915b505050505081526020016003820180546128fb906155ea565b80601f0160208091040260200160405190810160405280929190818152602001828054612927906155ea565b80156129745780601f1061294957610100808354040283529160200191612974565b820191906000526020600020905b81548152906001019060200180831161295757829003601f168201915b5050505050815260200160048201805461298d906155ea565b80601f01602080910402602001604051908101604052809291908181526020018280546129b9906155ea565b8015612a065780601f106129db57610100808354040283529160200191612a06565b820191906000526020600020905b8154815290600101906020018083116129e957829003601f168201915b50505050508152602001600582018054612a1f906155ea565b80601f0160208091040260200160405190810160405280929190818152602001828054612a4b906155ea565b8015612a985780601f10612a6d57610100808354040283529160200191612a98565b820191906000526020600020905b815481529060010190602001808311612a7b57829003601f168201915b50505050508152602001600682018054612ab1906155ea565b80601f0160208091040260200160405190810160405280929190818152602001828054612add906155ea565b8015612b2a5780601f10612aff57610100808354040283529160200191612b2a565b820191906000526020600020905b815481529060010190602001808311612b0d57829003601f168201915b50505050508152602001600782018054612b43906155ea565b80601f0160208091040260200160405190810160405280929190818152602001828054612b6f906155ea565b8015612bbc5780601f10612b9157610100808354040283529160200191612bbc565b820191906000526020600020905b815481529060010190602001808311612b9f57829003601f168201915b5050505050815260200160088201548152602001600982018054612bdf906155ea565b80601f0160208091040260200160405190810160405280929190818152602001828054612c0b906155ea565b8015612c585780601f10612c2d57610100808354040283529160200191612c58565b820191906000526020600020905b815481529060010190602001808311612c3b57829003601f168201915b50505050508152602001600a82018054612c71906155ea565b80601f0160208091040260200160405190810160405280929190818152602001828054612c9d906155ea565b8015612cea5780601f10612cbf57610100808354040283529160200191612cea565b820191906000526020600020905b815481529060010190602001808311612ccd57829003601f168201915b505050505081525050815250600983604051612d0691906155a4565b908152602001604051809103902060008201518160000160006101000a81548173ffffffffffffffffffffffffffffffffffffffff021916908373ffffffffffffffffffffffffffffffffffffffff160217905550602082015181600101556040820151816002019081612d7a9190615895565b506060820151816003019081612d909190615895565b506080820151816004019081612da69190615895565b5060a08201518160050160008201518160000160006101000a81548173ffffffffffffffffffffffffffffffffffffffff021916908373ffffffffffffffffffffffffffffffffffffffff160217905550602082015181600101556040820151816002019081612e169190615895565b506060820151816003019081612e2c9190615895565b506080820151816004019081612e429190615895565b5060a0820151816005019081612e589190615895565b5060c0820151816006019081612e6e9190615895565b5060e0820151816007019081612e849190615895565b506101008201518160080155610120820151816009019081612ea69190615895565b5061014082015181600a019081612ebd9190615895565b505050905050600883604051612ed391906155a4565b9081526020016040518091039020600983604051612ef191906155a4565b908152602001604051809103902090806001815401808255809150506001900390600052602060002090601002016000909190919091506000820160009054906101000a900473ffffffffffffffffffffffffffffffffffffffff168160000160006101000a81548173ffffffffffffffffffffffffffffffffffffffff021916908373ffffffffffffffffffffffffffffffffffffffff1602179055506001820154816001015560028201816002019081612fad919061597d565b5060038201816003019081612fc2919061597d565b5060048201816004019081612fd7919061597d565b5060058201816005016000820160009054906101000a900473ffffffffffffffffffffffffffffffffffffffff168160000160006101000a81548173ffffffffffffffffffffffffffffffffffffffff021916908373ffffffffffffffffffffffffffffffffffffffff1602179055506001820154816001015560028201816002019081613065919061597d565b506003820181600301908161307a919061597d565b506004820181600401908161308f919061597d565b50600582018160050190816130a4919061597d565b50600682018160060190816130b9919061597d565b50600782018160070190816130ce919061597d565b5060088201548160080155600982018160090190816130ed919061597d565b50600a820181600a019081613102919061597d565b50505050508160048260060160405161311b9190615be6565b908152602001604051809103902090816131359190615895565b505050505050565b6060600060078360405161315191906155a4565b9081526020016040518091039020805480602002602001604051908101604052809291908181526020016000905b828210156136ac57838290600052602060002090600b0201604051806101600160405290816000820160009054906101000a900473ffffffffffffffffffffffffffffffffffffffff1673ffffffffffffffffffffffffffffffffffffffff1673ffffffffffffffffffffffffffffffffffffffff16815260200160018201548152602001600282018054613213906155ea565b80601f016020809104026020016040519081016040528092919081815260200182805461323f906155ea565b801561328c5780601f106132615761010080835404028352916020019161328c565b820191906000526020600020905b81548152906001019060200180831161326f57829003601f168201915b505050505081526020016003820180546132a5906155ea565b80601f01602080910402602001604051908101604052809291908181526020018280546132d1906155ea565b801561331e5780601f106132f35761010080835404028352916020019161331e565b820191906000526020600020905b81548152906001019060200180831161330157829003601f168201915b50505050508152602001600482018054613337906155ea565b80601f0160208091040260200160405190810160405280929190818152602001828054613363906155ea565b80156133b05780601f10613385576101008083540402835291602001916133b0565b820191906000526020600020905b81548152906001019060200180831161339357829003601f168201915b505050505081526020016005820180546133c9906155ea565b80601f01602080910402602001604051908101604052809291908181526020018280546133f5906155ea565b80156134425780601f1061341757610100808354040283529160200191613442565b820191906000526020600020905b81548152906001019060200180831161342557829003601f168201915b5050505050815260200160068201805461345b906155ea565b80601f0160208091040260200160405190810160405280929190818152602001828054613487906155ea565b80156134d45780601f106134a9576101008083540402835291602001916134d4565b820191906000526020600020905b8154815290600101906020018083116134b757829003601f168201915b505050505081526020016007820180546134ed906155ea565b80601f0160208091040260200160405190810160405280929190818152602001828054613519906155ea565b80156135665780601f1061353b57610100808354040283529160200191613566565b820191906000526020600020905b81548152906001019060200180831161354957829003601f168201915b5050505050815260200160088201548152602001600982018054613589906155ea565b80601f01602080910402602001604051908101604052809291908181526020018280546135b5906155ea565b80156136025780601f106135d757610100808354040283529160200191613602565b820191906000526020600020905b8154815290600101906020018083116135e557829003601f168201915b50505050508152602001600a8201805461361b906155ea565b80601f0160208091040260200160405190810160405280929190818152602001828054613647906155ea565b80156136945780601f1061366957610100808354040283529160200191613694565b820191906000526020600020905b81548152906001019060200180831161367757829003601f168201915b5050505050815250508152602001906001019061317f565b50505050905080915050919050565b6136c361488d565b60006004836040516136d591906155a4565b908152602001604051809103902080546136ee906155ea565b80601f016020809104026020016040519081016040528092919081815260200182805461371a906155ea565b80156137675780601f1061373c57610100808354040283529160200191613767565b820191906000526020600020905b81548152906001019060200180831161374a57829003601f168201915b505050505090508360405160200161377f91906155a4565b60405160208183030381529060405280519060200120816040516020016137a691906155a4565b60405160208183030381529060405280519060200120146137fc576040517f08c379a00000000000000000000000000000000000000000000000000000000081526004016137f390615c6f565b60405180910390fd5b60098160405161380c91906155a4565b90815260200160405180910390206040518060c00160405290816000820160009054906101000a900473ffffffffffffffffffffffffffffffffffffffff1673ffffffffffffffffffffffffffffffffffffffff1673ffffffffffffffffffffffffffffffffffffffff16815260200160018201548152602001600282018054613895906155ea565b80601f01602080910402602001604051908101604052809291908181526020018280546138c1906155ea565b801561390e5780601f106138e35761010080835404028352916020019161390e565b820191906000526020600020905b8154815290600101906020018083116138f157829003601f168201915b50505050508152602001600382018054613927906155ea565b80601f0160208091040260200160405190810160405280929190818152602001828054613953906155ea565b80156139a05780601f10613975576101008083540402835291602001916139a0565b820191906000526020600020905b81548152906001019060200180831161398357829003601f168201915b505050505081526020016004820180546139b9906155ea565b80601f01602080910402602001604051908101604052809291908181526020018280546139e5906155ea565b8015613a325780601f10613a0757610100808354040283529160200191613a32565b820191906000526020600020905b815481529060010190602001808311613a1557829003601f168201915b5050505050815260200160058201604051806101600160405290816000820160009054906101000a900473ffffffffffffffffffffffffffffffffffffffff1673ffffffffffffffffffffffffffffffffffffffff1673ffffffffffffffffffffffffffffffffffffffff16815260200160018201548152602001600282018054613abc906155ea565b80601f0160208091040260200160405190810160405280929190818152602001828054613ae8906155ea565b8015613b355780601f10613b0a57610100808354040283529160200191613b35565b820191906000526020600020905b815481529060010190602001808311613b1857829003601f168201915b50505050508152602001600382018054613b4e906155ea565b80601f0160208091040260200160405190810160405280929190818152602001828054613b7a906155ea565b8015613bc75780601f10613b9c57610100808354040283529160200191613bc7565b820191906000526020600020905b815481529060010190602001808311613baa57829003601f168201915b50505050508152602001600482018054613be0906155ea565b80601f0160208091040260200160405190810160405280929190818152602001828054613c0c906155ea565b8015613c595780601f10613c2e57610100808354040283529160200191613c59565b820191906000526020600020905b815481529060010190602001808311613c3c57829003601f168201915b50505050508152602001600582018054613c72906155ea565b80601f0160208091040260200160405190810160405280929190818152602001828054613c9e906155ea565b8015613ceb5780601f10613cc057610100808354040283529160200191613ceb565b820191906000526020600020905b815481529060010190602001808311613cce57829003601f168201915b50505050508152602001600682018054613d04906155ea565b80601f0160208091040260200160405190810160405280929190818152602001828054613d30906155ea565b8015613d7d5780601f10613d5257610100808354040283529160200191613d7d565b820191906000526020600020905b815481529060010190602001808311613d6057829003601f168201915b50505050508152602001600782018054613d96906155ea565b80601f0160208091040260200160405190810160405280929190818152602001828054613dc2906155ea565b8015613e0f5780601f10613de457610100808354040283529160200191613e0f565b820191906000526020600020905b815481529060010190602001808311613df257829003601f168201915b5050505050815260200160088201548152602001600982018054613e32906155ea565b80601f0160208091040260200160405190810160405280929190818152602001828054613e5e906155ea565b8015613eab5780601f10613e8057610100808354040283529160200191613eab565b820191906000526020600020905b815481529060010190602001808311613e8e57829003601f168201915b50505050508152602001600a82018054613ec4906155ea565b80601f0160208091040260200160405190810160405280929190818152602001828054613ef0906155ea565b8015613f3d5780601f10613f1257610100808354040283529160200191613f3d565b820191906000526020600020905b815481529060010190602001808311613f2057829003601f168201915b5050505050815250508152505091505092915050565b600381604051613f6391906155a4565b908152602001604051809103902060009054906101000a900460ff1615613fbf576040517f08c379a0000000000000000000000000000000000000000000000000000000008152600401613fb690615cdb565b60405180910390fd5b6000600582604051613fd191906155a4565b9081526020016040518091039020905060008160090182600a01604051602001613ffc929190615d93565b604051602081830303815290604052905060008060068360405161402091906155a4565b908152602001604051809103902080549050905060005b818110156140b757858051906020012060068560405161405791906155a4565b9081526020016040518091039020828154811061407757614076615db7565b5b90600052602060002090600b02016004016040516140959190615de6565b6040518091039020036140aa578092506140b7565b8080600101915050614037565b506006836040516140c891906155a4565b90815260200160405180910390206001826140e39190615dfd565b815481106140f4576140f3615db7565b5b90600052602060002090600b020160068460405161411291906155a4565b9081526020016040518091039020838154811061413257614131615db7565b5b90600052602060002090600b02016000820160009054906101000a900473ffffffffffffffffffffffffffffffffffffffff168160000160006101000a81548173ffffffffffffffffffffffffffffffffffffffff021916908373ffffffffffffffffffffffffffffffffffffffff16021790555060018201548160010155600282018160020190816141c5919061597d565b50600382018160030190816141da919061597d565b50600482018160040190816141ef919061597d565b5060058201816005019081614204919061597d565b5060068201816006019081614219919061597d565b506007820181600701908161422e919061597d565b50600882015481600801556009820181600901908161424d919061597d565b50600a820181600a019081614262919061597d565b5090505060068360405161427691906155a4565b908152602001604051809103902080548061429457614293615e31565b5b60019003818190600052602060002090600b0201600080820160006101000a81549073ffffffffffffffffffffffffffffffffffffffff021916905560018201600090556002820160006142e8919061484d565b6003820160006142f8919061484d565b600482016000614308919061484d565b600582016000614318919061484d565b600682016000614328919061484d565b600782016000614338919061484d565b6008820160009055600982016000614350919061484d565b600a82016000614360919061484d565b505090556007846006016040516143779190615be6565b908152602001604051809103902080549050905060005b818110156144115785805190602001206007866006016040516143b19190615be6565b908152602001604051809103902082815481106143d1576143d0615db7565b5b90600052602060002090600b02016004016040516143ef9190615de6565b60405180910390200361440457809250614411565b808060010191505061438e565b506007846006016040516144259190615be6565b90815260200160405180910390206001826144409190615dfd565b8154811061445157614450615db7565b5b90600052602060002090600b02016007856006016040516144729190615be6565b9081526020016040518091039020838154811061449257614491615db7565b5b90600052602060002090600b02016000820160009054906101000a900473ffffffffffffffffffffffffffffffffffffffff168160000160006101000a81548173ffffffffffffffffffffffffffffffffffffffff021916908373ffffffffffffffffffffffffffffffffffffffff1602179055506001820154816001015560028201816002019081614525919061597d565b506003820181600301908161453a919061597d565b506004820181600401908161454f919061597d565b5060058201816005019081614564919061597d565b5060068201816006019081614579919061597d565b506007820181600701908161458e919061597d565b5060088201548160080155600982018160090190816145ad919061597d565b50600a820181600a0190816145c2919061597d565b509050506007846006016040516145d99190615be6565b90815260200160405180910390208054806145f7576145f6615e31565b5b60019003818190600052602060002090600b0201600080820160006101000a81549073ffffffffffffffffffffffffffffffffffffffff0219169055600182016000905560028201600061464b919061484d565b60038201600061465b919061484d565b60048201600061466b919061484d565b60058201600061467b919061484d565b60068201600061468b919061484d565b60078201600061469b919061484d565b60088201600090556009820160006146b3919061484d565b600a820160006146c3919061484d565b505090556005856040516146d791906155a4565b9081526020016040518091039020600080820160006101000a81549073ffffffffffffffffffffffffffffffffffffffff02191690556001820160009055600282016000614725919061484d565b600382016000614735919061484d565b600482016000614745919061484d565b600582016000614755919061484d565b600682016000614765919061484d565b600782016000614775919061484d565b600882016000905560098201600061478d919061484d565b600a8201600061479d919061484d565b505060016003866040516147b191906155a4565b908152602001604051809103902060006101000a81548160ff0219169083151502179055505050505050565b604051806101600160405280600073ffffffffffffffffffffffffffffffffffffffff168152602001600081526020016060815260200160608152602001606081526020016060815260200160608152602001606081526020016000815260200160608152602001606081525090565b508054614859906155ea565b6000825580601f1061486b575061488a565b601f01602090049060005260206000209081019061488991906148df565b5b50565b6040518060c00160405280600073ffffffffffffffffffffffffffffffffffffffff168152602001600081526020016060815260200160608152602001606081526020016148d96147dd565b81525090565b5b808211156148f85760008160009055506001016148e0565b5090565b6000604051905090565b600080fd5b600080fd5b600080fd5b600080fd5b6000601f19601f8301169050919050565b7f4e487b7100000000000000000000000000000000000000000000000000000000600052604160045260246000fd5b6149638261491a565b810181811067ffffffffffffffff821117156149825761498161492b565b5b80604052505050565b60006149956148fc565b90506149a1828261495a565b919050565b600067ffffffffffffffff8211156149c1576149c061492b565b5b6149ca8261491a565b9050602081019050919050565b82818337600083830152505050565b60006149f96149f4846149a6565b61498b565b905082815260208101848484011115614a1557614a14614915565b5b614a208482856149d7565b509392505050565b600082601f830112614a3d57614a3c614910565b5b8135614a4d8482602086016149e6565b91505092915050565b600060208284031215614a6c57614a6b614906565b5b600082013567ffffffffffffffff811115614a8a57614a8961490b565b5b614a9684828501614a28565b91505092915050565b600081519050919050565b600082825260208201905092915050565b6000819050602082019050919050565b600073ffffffffffffffffffffffffffffffffffffffff82169050919050565b6000614af682614acb565b9050919050565b614b0681614aeb565b82525050565b6000819050919050565b614b1f81614b0c565b82525050565b600081519050919050565b600082825260208201905092915050565b60005b83811015614b5f578082015181840152602081019050614b44565b60008484015250505050565b6000614b7682614b25565b614b808185614b30565b9350614b90818560208601614b41565b614b998161491a565b840191505092915050565b6000614baf82614acb565b9050919050565b614bbf81614ba4565b82525050565b600061016083016000830151614bde6000860182614bb6565b506020830151614bf16020860182614b16565b5060408301518482036040860152614c098282614b6b565b91505060608301518482036060860152614c238282614b6b565b91505060808301518482036080860152614c3d8282614b6b565b91505060a083015184820360a0860152614c578282614b6b565b91505060c083015184820360c0860152614c718282614b6b565b91505060e083015184820360e0860152614c8b8282614b6b565b915050610100830151614ca2610100860182614b16565b50610120830151848203610120860152614cbc8282614b6b565b915050610140830151848203610140860152614cd88282614b6b565b9150508091505092915050565b600060c083016000830151614cfd6000860182614afd565b506020830151614d106020860182614b16565b5060408301518482036040860152614d288282614b6b565b91505060608301518482036060860152614d428282614b6b565b91505060808301518482036080860152614d5c8282614b6b565b91505060a083015184820360a0860152614d768282614bc5565b9150508091505092915050565b6000614d8f8383614ce5565b905092915050565b6000602082019050919050565b6000614daf82614a9f565b614db98185614aaa565b935083602082028501614dcb85614abb565b8060005b85811015614e075784840389528151614de88582614d83565b9450614df383614d97565b925060208a01995050600181019050614dcf565b50829750879550505050505092915050565b60006020820190508181036000830152614e338184614da4565b905092915050565b614e4481614ba4565b8114614e4f57600080fd5b50565b600081359050614e6181614e3b565b92915050565b614e7081614b0c565b8114614e7b57600080fd5b50565b600081359050614e8d81614e67565b92915050565b60008060008060008060008060008060006101608c8e031215614eb957614eb8614906565b5b6000614ec78e828f01614e52565b9b50506020614ed88e828f01614e7e565b9a505060408c013567ffffffffffffffff811115614ef957614ef861490b565b5b614f058e828f01614a28565b99505060608c013567ffffffffffffffff811115614f2657614f2561490b565b5b614f328e828f01614a28565b98505060808c013567ffffffffffffffff811115614f5357614f5261490b565b5b614f5f8e828f01614a28565b97505060a08c013567ffffffffffffffff811115614f8057614f7f61490b565b5b614f8c8e828f01614a28565b96505060c08c013567ffffffffffffffff811115614fad57614fac61490b565b5b614fb98e828f01614a28565b95505060e08c013567ffffffffffffffff811115614fda57614fd961490b565b5b614fe68e828f01614a28565b945050610100614ff88e828f01614e7e565b9350506101208c013567ffffffffffffffff81111561501a5761501961490b565b5b6150268e828f01614a28565b9250506101408c013567ffffffffffffffff8111156150485761504761490b565b5b6150548e828f01614a28565b9150509295989b509295989b9093969950565b6000806040838503121561507e5761507d614906565b5b600083013567ffffffffffffffff81111561509c5761509b61490b565b5b6150a885828601614a28565b925050602083013567ffffffffffffffff8111156150c9576150c861490b565b5b6150d585828601614a28565b9150509250929050565b60008115159050919050565b6150f4816150df565b82525050565b600060208201905061510f60008301846150eb565b92915050565b600082825260208201905092915050565b600061513182614b25565b61513b8185615115565b935061514b818560208601614b41565b6151548161491a565b840191505092915050565b600060208201905081810360008301526151798184615126565b905092915050565b60006101608301600083015161519a6000860182614bb6565b5060208301516151ad6020860182614b16565b50604083015184820360408601526151c58282614b6b565b915050606083015184820360608601526151df8282614b6b565b915050608083015184820360808601526151f98282614b6b565b91505060a083015184820360a08601526152138282614b6b565b91505060c083015184820360c086015261522d8282614b6b565b91505060e083015184820360e08601526152478282614b6b565b91505061010083015161525e610100860182614b16565b506101208301518482036101208601526152788282614b6b565b9150506101408301518482036101408601526152948282614b6b565b9150508091505092915050565b600060208201905081810360008301526152bb8184615181565b905092915050565b600081519050919050565b600082825260208201905092915050565b6000819050602082019050919050565b60006152fb8383614bc5565b905092915050565b6000602082019050919050565b600061531b826152c3565b61532581856152ce565b935083602082028501615337856152df565b8060005b85811015615373578484038952815161535485826152ef565b945061535f83615303565b925060208a0199505060018101905061533b565b50829750879550505050505092915050565b6000602082019050818103600083015261539f8184615310565b905092915050565b6153b081614b0c565b82525050565b60006020820190506153cb60008301846153a7565b92915050565b600080600080608085870312156153eb576153ea614906565b5b600085013567ffffffffffffffff8111156154095761540861490b565b5b61541587828801614a28565b945050602085013567ffffffffffffffff8111156154365761543561490b565b5b61544287828801614a28565b935050604085013567ffffffffffffffff8111156154635761546261490b565b5b61546f87828801614a28565b925050606085013567ffffffffffffffff8111156154905761548f61490b565b5b61549c87828801614a28565b91505092959194509250565b600060c0830160008301516154c06000860182614afd565b5060208301516154d36020860182614b16565b50604083015184820360408601526154eb8282614b6b565b915050606083015184820360608601526155058282614b6b565b9150506080830151848203608086015261551f8282614b6b565b91505060a083015184820360a08601526155398282614bc5565b9150508091505092915050565b6000602082019050818103600083015261556081846154a8565b905092915050565b600081905092915050565b600061557e82614b25565b6155888185615568565b9350615598818560208601614b41565b80840191505092915050565b60006155b08284615573565b915081905092915050565b7f4e487b7100000000000000000000000000000000000000000000000000000000600052602260045260246000fd5b6000600282049050600182168061560257607f821691505b602082108103615615576156146155bb565b5b50919050565b7f4e487b7100000000000000000000000000000000000000000000000000000000600052601160045260246000fd5b600061565582614b0c565b915061566083614b0c565b92508282019050808211156156785761567761561b565b5b92915050565b600081519050919050565b600081905092915050565b600061569f8261567e565b6156a98185615689565b93506156b9818560208601614b41565b80840191505092915050565b60006156d18285615694565b91506156dd8284615694565b91508190509392505050565b60008190508160005260206000209050919050565b60006020601f8301049050919050565b600082821b905092915050565b60006008830261574b7fffffffffffffffffffffffffffffffffffffffffffffffffffffffffffffffff8261570e565b615755868361570e565b95508019841693508086168417925050509392505050565b6000819050919050565b600061579261578d61578884614b0c565b61576d565b614b0c565b9050919050565b6000819050919050565b6157ac83615777565b6157c06157b882615799565b84845461571b565b825550505050565b600090565b6157d56157c8565b6157e08184846157a3565b505050565b5b81811015615804576157f96000826157cd565b6001810190506157e6565b5050565b601f8211156158495761581a816156e9565b615823846156fe565b81016020851015615832578190505b61584661583e856156fe565b8301826157e5565b50505b505050565b600082821c905092915050565b600061586c6000198460080261584e565b1980831691505092915050565b6000615885838361585b565b9150826002028217905092915050565b61589e82614b25565b67ffffffffffffffff8111156158b7576158b661492b565b5b6158c182546155ea565b6158cc828285615808565b600060209050601f8311600181146158ff57600084156158ed578287015190505b6158f78582615879565b86555061595f565b601f19841661590d866156e9565b60005b8281101561593557848901518255600182019150602085019450602081019050615910565b86831015615952578489015161594e601f89168261585b565b8355505b6001600288020188555050505b505050505050565b600081549050615976816155ea565b9050919050565b81810361598b575050615a63565b61599482615967565b67ffffffffffffffff8111156159ad576159ac61492b565b5b6159b782546155ea565b6159c2828285615808565b6000601f8311600181146159f157600084156159df578287015490505b6159e98582615879565b865550615a5c565b601f1984166159ff876156e9565b9650615a0a866156e9565b60005b82811015615a3257848901548255600182019150600185019450602081019050615a0d565b86831015615a4f5784890154615a4b601f89168261585b565b8355505b6001600288020188555050505b5050505050505b565b7f43616e6e6f742070617920796f757273656c6600000000000000000000000000600082015250565b6000615a9b601383615115565b9150615aa682615a65565b602082019050919050565b60006020820190508181036000830152615aca81615a8e565b9050919050565b7f496e73756666696369656e742066756e647320746f206d616b65207061796d6560008201527f6e74000000000000000000000000000000000000000000000000000000000000602082015250565b6000615b2d602283615115565b9150615b3882615ad1565b604082019050919050565b60006020820190508181036000830152615b5c81615b20565b9050919050565b60008154615b70816155ea565b615b7a8186615568565b94506001821660008114615b955760018114615baa57615bdd565b60ff1983168652811515820286019350615bdd565b615bb3856156e9565b60005b83811015615bd557815481890152600182019150602081019050615bb6565b838801955050505b50505092915050565b6000615bf28284615b63565b915081905092915050565b7f4f6e6c792043484f4f5345206472697665722063616e20706572666f726d207460008201527f68697320616374696f6e00000000000000000000000000000000000000000000602082015250565b6000615c59602a83615115565b9150615c6482615bfd565b604082019050919050565b60006020820190508181036000830152615c8881615c4c565b9050919050565b7f546865207265636f726420697320616c72656164792064656c65746564000000600082015250565b6000615cc5601d83615115565b9150615cd082615c8f565b602082019050919050565b60006020820190508181036000830152615cf481615cb8565b9050919050565b60008190508160005260206000209050919050565b60008154615d1d816155ea565b615d278186615689565b94506001821660008114615d425760018114615d5757615d8a565b60ff1983168652811515820286019350615d8a565b615d6085615cfb565b60005b83811015615d8257815481890152600182019150602081019050615d63565b838801955050505b50505092915050565b6000615d9f8285615d10565b9150615dab8284615d10565b91508190509392505050565b7f4e487b7100000000000000000000000000000000000000000000000000000000600052603260045260246000fd5b6000615df28284615d10565b915081905092915050565b6000615e0882614b0c565b9150615e1383614b0c565b9250828203905081811115615e2b57615e2a61561b565b5b92915050565b7f4e487b7100000000000000000000000000000000000000000000000000000000600052603160045260246000fdfea26469706673582212201882cfa1a479005d66e82dd8805f9f13e317e5505b3920a66ebb3aa766673b4864736f6c63430008180033",
  "linkReferences": {},
  "deployedLinkReferences": {}
}