{
  "_format": "hh-sol-artifact-1",
  "contractName": "CarpoolingSystemFinal",
  "sourceName": "contracts/CarPoolFinal.sol",
  "abi": [
    {
      "inputs": [
        {
          "internalType": "address payable",
          "name": "_carOwner",
          "type": "address"
        },
        {
          "internalType": "uint256",
          "name": "_num_of_seat",
          "type": "uint256"
        },
        {
          "internalType": "string",
          "name": "_name",
          "type": "string"
        },
        {
          "internalType": "string",
          "name": "_vehicle",
          "type": "string"
        },
        {
          "internalType": "string",
          "name": "_vehicleNo",
          "type": "string"
        },
        {
          "internalType": "string",
          "name": "_category",
          "type": "string"
        },
        {
          "internalType": "string",
          "name": "_licence_id",
          "type": "string"
        },
        {
          "internalType": "string",
          "name": "_phoneNumber",
          "type": "string"
        },
        {
          "internalType": "uint256",
          "name": "_rent",
          "type": "uint256"
        },
        {
          "internalType": "string",
          "name": "_from",
          "type": "string"
        },
        {
          "internalType": "string",
          "name": "_dest",
          "type": "string"
        }
      ],
      "name": "addCar",
      "outputs": [],
      "stateMutability": "payable",
      "type": "function"
    },
    {
      "inputs": [
        {
          "internalType": "string",
          "name": "_vehicleNo",
          "type": "string"
        },
        {
          "internalType": "string",
          "name": "_licence_id",
          "type": "string"
        }
      ],
      "name": "bookedList",
      "outputs": [],
      "stateMutability": "nonpayable",
      "type": "function"
    },
    {
      "inputs": [
        {
          "internalType": "string",
          "name": "_vehicleNo",
          "type": "string"
        }
      ],
      "name": "cardeleteRecord",
      "outputs": [],
      "stateMutability": "nonpayable",
      "type": "function"
    },
    {
      "inputs": [
        {
          "internalType": "string",
          "name": "_dest",
          "type": "string"
        }
      ],
      "name": "getAvailableCarByDest",
      "outputs": [
        {
          "components": [
            {
              "internalType": "address payable",
              "name": "driver",
              "type": "address"
            },
            {
              "internalType": "uint256",
              "name": "num_of_seat",
              "type": "uint256"
            },
            {
              "internalType": "string",
              "name": "name",
              "type": "string"
            },
            {
              "internalType": "string",
              "name": "vehicle",
              "type": "string"
            },
            {
              "internalType": "string",
              "name": "vehicleNo",
              "type": "string"
            },
            {
              "internalType": "string",
              "name": "category",
              "type": "string"
            },
            {
              "internalType": "string",
              "name": "licence_id",
              "type": "string"
            },
            {
              "internalType": "string",
              "name": "phoneNumber",
              "type": "string"
            },
            {
              "internalType": "uint256",
              "name": "rent",
              "type": "uint256"
            },
            {
              "internalType": "string",
              "name": "from",
              "type": "string"
            },
            {
              "internalType": "string",
              "name": "dest",
              "type": "string"
            }
          ],
          "internalType": "struct CarpoolingSystemFinal.Car[]",
          "name": "",
          "type": "tuple[]"
        }
      ],
      "stateMutability": "view",
      "type": "function"
    },
    {
      "inputs": [
        {
          "internalType": "string",
          "name": "_licence_id",
          "type": "string"
        }
      ],
      "name": "getAvailableCarBylicenceId",
      "outputs": [
        {
          "components": [
            {
              "internalType": "address payable",
              "name": "driver",
              "type": "address"
            },
            {
              "internalType": "uint256",
              "name": "num_of_seat",
              "type": "uint256"
            },
            {
              "internalType": "string",
              "name": "name",
              "type": "string"
            },
            {
              "internalType": "string",
              "name": "vehicle",
              "type": "string"
            },
            {
              "internalType": "string",
              "name": "vehicleNo",
              "type": "string"
            },
            {
              "internalType": "string",
              "name": "category",
              "type": "string"
            },
            {
              "internalType": "string",
              "name": "licence_id",
              "type": "string"
            },
            {
              "internalType": "string",
              "name": "phoneNumber",
              "type": "string"
            },
            {
              "internalType": "uint256",
              "name": "rent",
              "type": "uint256"
            },
            {
              "internalType": "string",
              "name": "from",
              "type": "string"
            },
            {
              "internalType": "string",
              "name": "dest",
              "type": "string"
            }
          ],
          "internalType": "struct CarpoolingSystemFinal.Car[]",
          "name": "",
          "type": "tuple[]"
        }
      ],
      "stateMutability": "view",
      "type": "function"
    },
    {
      "inputs": [
        {
          "internalType": "string",
          "name": "_vehicleNo",
          "type": "string"
        }
      ],
      "name": "getAvailableCarpools",
      "outputs": [
        {
          "components": [
            {
              "internalType": "address payable",
              "name": "driver",
              "type": "address"
            },
            {
              "internalType": "uint256",
              "name": "num_of_seat",
              "type": "uint256"
            },
            {
              "internalType": "string",
              "name": "name",
              "type": "string"
            },
            {
              "internalType": "string",
              "name": "vehicle",
              "type": "string"
            },
            {
              "internalType": "string",
              "name": "vehicleNo",
              "type": "string"
            },
            {
              "internalType": "string",
              "name": "category",
              "type": "string"
            },
            {
              "internalType": "string",
              "name": "licence_id",
              "type": "string"
            },
            {
              "internalType": "string",
              "name": "phoneNumber",
              "type": "string"
            },
            {
              "internalType": "uint256",
              "name": "rent",
              "type": "uint256"
            },
            {
              "internalType": "string",
              "name": "from",
              "type": "string"
            },
            {
              "internalType": "string",
              "name": "dest",
              "type": "string"
            }
          ],
          "internalType": "struct CarpoolingSystemFinal.Car",
          "name": "",
          "type": "tuple"
        }
      ],
      "stateMutability": "view",
      "type": "function"
    },
    {
      "inputs": [
        {
          "internalType": "string",
          "name": "_phoneNo",
          "type": "string"
        }
      ],
      "name": "getAvailableUser",
      "outputs": [
        {
          "components": [
            {
              "internalType": "address",
              "name": "user",
              "type": "address"
            },
            {
              "internalType": "uint256",
              "name": "userId",
              "type": "uint256"
            },
            {
              "internalType": "string",
              "name": "from",
              "type": "string"
            },
            {
              "internalType": "string",
              "name": "dest",
              "type": "string"
            },
            {
              "internalType": "string",
              "name": "phone_no",
              "type": "string"
            },
            {
              "components": [
                {
                  "internalType": "address payable",
                  "name": "driver",
                  "type": "address"
                },
                {
                  "internalType": "uint256",
                  "name": "num_of_seat",
                  "type": "uint256"
                },
                {
                  "internalType": "string",
                  "name": "name",
                  "type": "string"
                },
                {
                  "internalType": "string",
                  "name": "vehicle",
                  "type": "string"
                },
                {
                  "internalType": "string",
                  "name": "vehicleNo",
                  "type": "string"
                },
                {
                  "internalType": "string",
                  "name": "category",
                  "type": "string"
                },
                {
                  "internalType": "string",
                  "name": "licence_id",
                  "type": "string"
                },
                {
                  "internalType": "string",
                  "name": "phoneNumber",
                  "type": "string"
                },
                {
                  "internalType": "uint256",
                  "name": "rent",
                  "type": "uint256"
                },
                {
                  "internalType": "string",
                  "name": "from",
                  "type": "string"
                },
                {
                  "internalType": "string",
                  "name": "dest",
                  "type": "string"
                }
              ],
              "internalType": "struct CarpoolingSystemFinal.Car",
              "name": "BookedCar",
              "type": "tuple"
            }
          ],
          "internalType": "struct CarpoolingSystemFinal.User[]",
          "name": "",
          "type": "tuple[]"
        }
      ],
      "stateMutability": "view",
      "type": "function"
    },
    {
      "inputs": [
        {
          "internalType": "string",
          "name": "_licence_id",
          "type": "string"
        }
      ],
      "name": "getBookedCarBylicenceId",
      "outputs": [
        {
          "components": [
            {
              "internalType": "address",
              "name": "user",
              "type": "address"
            },
            {
              "internalType": "uint256",
              "name": "userId",
              "type": "uint256"
            },
            {
              "internalType": "string",
              "name": "from",
              "type": "string"
            },
            {
              "internalType": "string",
              "name": "dest",
              "type": "string"
            },
            {
              "internalType": "string",
              "name": "phone_no",
              "type": "string"
            },
            {
              "components": [
                {
                  "internalType": "address payable",
                  "name": "driver",
                  "type": "address"
                },
                {
                  "internalType": "uint256",
                  "name": "num_of_seat",
                  "type": "uint256"
                },
                {
                  "internalType": "string",
                  "name": "name",
                  "type": "string"
                },
                {
                  "internalType": "string",
                  "name": "vehicle",
                  "type": "string"
                },
                {
                  "internalType": "string",
                  "name": "vehicleNo",
                  "type": "string"
                },
                {
                  "internalType": "string",
                  "name": "category",
                  "type": "string"
                },
                {
                  "internalType": "string",
                  "name": "licence_id",
                  "type": "string"
                },
                {
                  "internalType": "string",
                  "name": "phoneNumber",
                  "type": "string"
                },
                {
                  "internalType": "uint256",
                  "name": "rent",
                  "type": "uint256"
                },
                {
                  "internalType": "string",
                  "name": "from",
                  "type": "string"
                },
                {
                  "internalType": "string",
                  "name": "dest",
                  "type": "string"
                }
              ],
              "internalType": "struct CarpoolingSystemFinal.Car",
              "name": "BookedCar",
              "type": "tuple"
            }
          ],
          "internalType": "struct CarpoolingSystemFinal.User[]",
          "name": "",
          "type": "tuple[]"
        }
      ],
      "stateMutability": "view",
      "type": "function"
    },
    {
      "inputs": [
        {
          "internalType": "string",
          "name": "_licence_id",
          "type": "string"
        }
      ],
      "name": "getSelected",
      "outputs": [
        {
          "components": [
            {
              "internalType": "address",
              "name": "user",
              "type": "address"
            },
            {
              "internalType": "uint256",
              "name": "userId",
              "type": "uint256"
            },
            {
              "internalType": "string",
              "name": "from",
              "type": "string"
            },
            {
              "internalType": "string",
              "name": "dest",
              "type": "string"
            },
            {
              "internalType": "string",
              "name": "phone_no",
              "type": "string"
            },
            {
              "components": [
                {
                  "internalType": "address payable",
                  "name": "driver",
                  "type": "address"
                },
                {
                  "internalType": "uint256",
                  "name": "num_of_seat",
                  "type": "uint256"
                },
                {
                  "internalType": "string",
                  "name": "name",
                  "type": "string"
                },
                {
                  "internalType": "string",
                  "name": "vehicle",
                  "type": "string"
                },
                {
                  "internalType": "string",
                  "name": "vehicleNo",
                  "type": "string"
                },
                {
                  "internalType": "string",
                  "name": "category",
                  "type": "string"
                },
                {
                  "internalType": "string",
                  "name": "licence_id",
                  "type": "string"
                },
                {
                  "internalType": "string",
                  "name": "phoneNumber",
                  "type": "string"
                },
                {
                  "internalType": "uint256",
                  "name": "rent",
                  "type": "uint256"
                },
                {
                  "internalType": "string",
                  "name": "from",
                  "type": "string"
                },
                {
                  "internalType": "string",
                  "name": "dest",
                  "type": "string"
                }
              ],
              "internalType": "struct CarpoolingSystemFinal.Car",
              "name": "BookedCar",
              "type": "tuple"
            }
          ],
          "internalType": "struct CarpoolingSystemFinal.User",
          "name": "",
          "type": "tuple"
        }
      ],
      "stateMutability": "view",
      "type": "function"
    },
    {
      "inputs": [],
      "name": "getUserCount",
      "outputs": [
        {
          "internalType": "uint256",
          "name": "",
          "type": "uint256"
        }
      ],
      "stateMutability": "view",
      "type": "function"
    },
    {
      "inputs": [
        {
          "internalType": "string",
          "name": "",
          "type": "string"
        }
      ],
      "name": "isDeleted",
      "outputs": [
        {
          "internalType": "bool",
          "name": "",
          "type": "bool"
        }
      ],
      "stateMutability": "view",
      "type": "function"
    },
    {
      "inputs": [
        {
          "internalType": "string",
          "name": "_from",
          "type": "string"
        },
        {
          "internalType": "string",
          "name": "_dest",
          "type": "string"
        },
        {
          "internalType": "string",
          "name": "_phone_no",
          "type": "string"
        },
        {
          "internalType": "string",
          "name": "_vehicleNo",
          "type": "string"
        }
      ],
      "name": "makePayment",
      "outputs": [],
      "stateMutability": "payable",
      "type": "function"
    },
    {
      "inputs": [
        {
          "internalType": "string",
          "name": "",
          "type": "string"
        }
      ],
      "name": "setSelectedDrivers",
      "outputs": [
        {
          "internalType": "string",
          "name": "",
          "type": "string"
        }
      ],
      "stateMutability": "view",
      "type": "function"
    }
  ],
  "bytecode": "0x608060405234801561001057600080fd5b50615d6580620000216000396000f3fe6080604052600436106100c25760003560e01c80637a7d56eb1161007f578063b5cb15f711610059578063b5cb15f7146102b7578063b7a73d59146102e2578063be2c950c146102fe578063f99046e61461033b576100c2565b80637a7d56eb146102005780638c8b984d1461023d578063a5f5645d1461027a576100c2565b806302b426b1146100c757806308c797581461010457806321e603ad14610120578063458f9adb146101495780636c9c088c1461018657806376b576cd146101c3575b600080fd5b3480156100d357600080fd5b506100ee60048036038101906100e991906149b7565b610364565b6040516100fb9190614d7a565b60405180910390f35b61011e60048036038101906101199190614df4565b610b0c565b005b34801561012c57600080fd5b5061014760048036038101906101429190614fc8565b61103c565b005b34801561015557600080fd5b50610170600480360381019061016b91906149b7565b6112ae565b60405161017d9190614d7a565b60405180910390f35b34801561019257600080fd5b506101ad60048036038101906101a891906149b7565b611a56565b6040516101ba919061505b565b60405180910390f35b3480156101cf57600080fd5b506101ea60048036038101906101e591906149b7565b611a8c565b6040516101f791906150c0565b60405180910390f35b34801561020c57600080fd5b50610227600480360381019061022291906149b7565b611b42565b6040516102349190615202565b60405180910390f35b34801561024957600080fd5b50610264600480360381019061025f91906149b7565b61207b565b60405161027191906152c2565b60405180910390f35b34801561028657600080fd5b506102a1600480360381019061029c91906149b7565b612884565b6040516102ae91906153a6565b60405180910390f35b3480156102c357600080fd5b506102cc612e02565b6040516102d991906153d7565b60405180910390f35b6102fc60048036038101906102f791906153f2565b612e0c565b005b34801561030a57600080fd5b50610325600480360381019061032091906149b7565b613936565b60405161033291906153a6565b60405180910390f35b34801561034757600080fd5b50610362600480360381019061035d91906149b7565b613eb4565b005b60606000600a836040516103789190615505565b9081526020016040518091039020805480602002602001604051908101604052809291908181526020016000905b82821015610afd57838290600052602060002090601002016040518060c00160405290816000820160009054906101000a900473ffffffffffffffffffffffffffffffffffffffff1673ffffffffffffffffffffffffffffffffffffffff1673ffffffffffffffffffffffffffffffffffffffff168152602001600182015481526020016002820180546104399061554b565b80601f01602080910402602001604051908101604052809291908181526020018280546104659061554b565b80156104b25780601f10610487576101008083540402835291602001916104b2565b820191906000526020600020905b81548152906001019060200180831161049557829003601f168201915b505050505081526020016003820180546104cb9061554b565b80601f01602080910402602001604051908101604052809291908181526020018280546104f79061554b565b80156105445780601f1061051957610100808354040283529160200191610544565b820191906000526020600020905b81548152906001019060200180831161052757829003601f168201915b5050505050815260200160048201805461055d9061554b565b80601f01602080910402602001604051908101604052809291908181526020018280546105899061554b565b80156105d65780601f106105ab576101008083540402835291602001916105d6565b820191906000526020600020905b8154815290600101906020018083116105b957829003601f168201915b5050505050815260200160058201604051806101600160405290816000820160009054906101000a900473ffffffffffffffffffffffffffffffffffffffff1673ffffffffffffffffffffffffffffffffffffffff1673ffffffffffffffffffffffffffffffffffffffff168152602001600182015481526020016002820180546106609061554b565b80601f016020809104026020016040519081016040528092919081815260200182805461068c9061554b565b80156106d95780601f106106ae576101008083540402835291602001916106d9565b820191906000526020600020905b8154815290600101906020018083116106bc57829003601f168201915b505050505081526020016003820180546106f29061554b565b80601f016020809104026020016040519081016040528092919081815260200182805461071e9061554b565b801561076b5780601f106107405761010080835404028352916020019161076b565b820191906000526020600020905b81548152906001019060200180831161074e57829003601f168201915b505050505081526020016004820180546107849061554b565b80601f01602080910402602001604051908101604052809291908181526020018280546107b09061554b565b80156107fd5780601f106107d2576101008083540402835291602001916107fd565b820191906000526020600020905b8154815290600101906020018083116107e057829003601f168201915b505050505081526020016005820180546108169061554b565b80601f01602080910402602001604051908101604052809291908181526020018280546108429061554b565b801561088f5780601f106108645761010080835404028352916020019161088f565b820191906000526020600020905b81548152906001019060200180831161087257829003601f168201915b505050505081526020016006820180546108a89061554b565b80601f01602080910402602001604051908101604052809291908181526020018280546108d49061554b565b80156109215780601f106108f657610100808354040283529160200191610921565b820191906000526020600020905b81548152906001019060200180831161090457829003601f168201915b5050505050815260200160078201805461093a9061554b565b80601f01602080910402602001604051908101604052809291908181526020018280546109669061554b565b80156109b35780601f10610988576101008083540402835291602001916109b3565b820191906000526020600020905b81548152906001019060200180831161099657829003601f168201915b50505050508152602001600882015481526020016009820180546109d69061554b565b80601f0160208091040260200160405190810160405280929190818152602001828054610a029061554b565b8015610a4f5780601f10610a2457610100808354040283529160200191610a4f565b820191906000526020600020905b815481529060010190602001808311610a3257829003601f168201915b50505050508152602001600a82018054610a689061554b565b80601f0160208091040260200160405190810160405280929190818152602001828054610a949061554b565b8015610ae15780601f10610ab657610100808354040283529160200191610ae1565b820191906000526020600020905b815481529060010190602001808311610ac457829003601f168201915b50505050508152505081525050815260200190600101906103a6565b50505050905080915050919050565b60018054610b1a91906155ab565b6001819055506000829050600082905060008282604051602001610b3f929190615626565b60405160208183030381529060405290506040518061016001604052808f73ffffffffffffffffffffffffffffffffffffffff1681526020018e81526020018d81526020018c81526020018b81526020018a81526020018981526020018881526020018781526020018681526020018581525060058b604051610bc29190615505565b908152602001604051809103902060008201518160000160006101000a81548173ffffffffffffffffffffffffffffffffffffffff021916908373ffffffffffffffffffffffffffffffffffffffff160217905550602082015181600101556040820151816002019081610c3691906157f6565b506060820151816003019081610c4c91906157f6565b506080820151816004019081610c6291906157f6565b5060a0820151816005019081610c7891906157f6565b5060c0820151816006019081610c8e91906157f6565b5060e0820151816007019081610ca491906157f6565b506101008201518160080155610120820151816009019081610cc691906157f6565b5061014082015181600a019081610cdd91906157f6565b50905050600681604051610cf19190615505565b908152602001604051809103902060058b604051610d0f9190615505565b908152602001604051809103902090806001815401808255809150506001900390600052602060002090600b02016000909190919091506000820160009054906101000a900473ffffffffffffffffffffffffffffffffffffffff168160000160006101000a81548173ffffffffffffffffffffffffffffffffffffffff021916908373ffffffffffffffffffffffffffffffffffffffff1602179055506001820154816001015560028201816002019081610dcb91906158de565b5060038201816003019081610de091906158de565b5060048201816004019081610df591906158de565b5060058201816005019081610e0a91906158de565b5060068201816006019081610e1f91906158de565b5060078201816007019081610e3491906158de565b506008820154816008015560098201816009019081610e5391906158de565b50600a820181600a019081610e6891906158de565b505050600788604051610e7b9190615505565b908152602001604051809103902060058b604051610e999190615505565b908152602001604051809103902090806001815401808255809150506001900390600052602060002090600b02016000909190919091506000820160009054906101000a900473ffffffffffffffffffffffffffffffffffffffff168160000160006101000a81548173ffffffffffffffffffffffffffffffffffffffff021916908373ffffffffffffffffffffffffffffffffffffffff1602179055506001820154816001015560028201816002019081610f5591906158de565b5060038201816003019081610f6a91906158de565b5060048201816004019081610f7f91906158de565b5060058201816005019081610f9491906158de565b5060068201816006019081610fa991906158de565b5060078201816007019081610fbe91906158de565b506008820154816008015560098201816009019081610fdd91906158de565b50600a820181600a019081610ff291906158de565b505050600060038b6040516110079190615505565b908152602001604051809103902060006101000a81548160ff0219169083151502179055505050505050505050505050505050565b60048160405161104c9190615505565b90815260200160405180910390206000611066919061473e565b600a816040516110769190615505565b90815260200160405180910390206009836040516110949190615505565b908152602001604051809103902090806001815401808255809150506001900390600052602060002090601002016000909190919091506000820160009054906101000a900473ffffffffffffffffffffffffffffffffffffffff168160000160006101000a81548173ffffffffffffffffffffffffffffffffffffffff021916908373ffffffffffffffffffffffffffffffffffffffff160217905550600182015481600101556002820181600201908161115091906158de565b506003820181600301908161116591906158de565b506004820181600401908161117a91906158de565b5060058201816005016000820160009054906101000a900473ffffffffffffffffffffffffffffffffffffffff168160000160006101000a81548173ffffffffffffffffffffffffffffffffffffffff021916908373ffffffffffffffffffffffffffffffffffffffff160217905550600182015481600101556002820181600201908161120891906158de565b506003820181600301908161121d91906158de565b506004820181600401908161123291906158de565b506005820181600501908161124791906158de565b506006820181600601908161125c91906158de565b506007820181600701908161127191906158de565b50600882015481600801556009820181600901908161129091906158de565b50600a820181600a0190816112a591906158de565b50505050505050565b606060006008836040516112c29190615505565b9081526020016040518091039020805480602002602001604051908101604052809291908181526020016000905b82821015611a4757838290600052602060002090601002016040518060c00160405290816000820160009054906101000a900473ffffffffffffffffffffffffffffffffffffffff1673ffffffffffffffffffffffffffffffffffffffff1673ffffffffffffffffffffffffffffffffffffffff168152602001600182015481526020016002820180546113839061554b565b80601f01602080910402602001604051908101604052809291908181526020018280546113af9061554b565b80156113fc5780601f106113d1576101008083540402835291602001916113fc565b820191906000526020600020905b8154815290600101906020018083116113df57829003601f168201915b505050505081526020016003820180546114159061554b565b80601f01602080910402602001604051908101604052809291908181526020018280546114419061554b565b801561148e5780601f106114635761010080835404028352916020019161148e565b820191906000526020600020905b81548152906001019060200180831161147157829003601f168201915b505050505081526020016004820180546114a79061554b565b80601f01602080910402602001604051908101604052809291908181526020018280546114d39061554b565b80156115205780601f106114f557610100808354040283529160200191611520565b820191906000526020600020905b81548152906001019060200180831161150357829003601f168201915b5050505050815260200160058201604051806101600160405290816000820160009054906101000a900473ffffffffffffffffffffffffffffffffffffffff1673ffffffffffffffffffffffffffffffffffffffff1673ffffffffffffffffffffffffffffffffffffffff168152602001600182015481526020016002820180546115aa9061554b565b80601f01602080910402602001604051908101604052809291908181526020018280546115d69061554b565b80156116235780601f106115f857610100808354040283529160200191611623565b820191906000526020600020905b81548152906001019060200180831161160657829003601f168201915b5050505050815260200160038201805461163c9061554b565b80601f01602080910402602001604051908101604052809291908181526020018280546116689061554b565b80156116b55780601f1061168a576101008083540402835291602001916116b5565b820191906000526020600020905b81548152906001019060200180831161169857829003601f168201915b505050505081526020016004820180546116ce9061554b565b80601f01602080910402602001604051908101604052809291908181526020018280546116fa9061554b565b80156117475780601f1061171c57610100808354040283529160200191611747565b820191906000526020600020905b81548152906001019060200180831161172a57829003601f168201915b505050505081526020016005820180546117609061554b565b80601f016020809104026020016040519081016040528092919081815260200182805461178c9061554b565b80156117d95780601f106117ae576101008083540402835291602001916117d9565b820191906000526020600020905b8154815290600101906020018083116117bc57829003601f168201915b505050505081526020016006820180546117f29061554b565b80601f016020809104026020016040519081016040528092919081815260200182805461181e9061554b565b801561186b5780601f106118405761010080835404028352916020019161186b565b820191906000526020600020905b81548152906001019060200180831161184e57829003601f168201915b505050505081526020016007820180546118849061554b565b80601f01602080910402602001604051908101604052809291908181526020018280546118b09061554b565b80156118fd5780601f106118d2576101008083540402835291602001916118fd565b820191906000526020600020905b8154815290600101906020018083116118e057829003601f168201915b50505050508152602001600882015481526020016009820180546119209061554b565b80601f016020809104026020016040519081016040528092919081815260200182805461194c9061554b565b80156119995780601f1061196e57610100808354040283529160200191611999565b820191906000526020600020905b81548152906001019060200180831161197c57829003601f168201915b50505050508152602001600a820180546119b29061554b565b80601f01602080910402602001604051908101604052809291908181526020018280546119de9061554b565b8015611a2b5780601f10611a0057610100808354040283529160200191611a2b565b820191906000526020600020905b815481529060010190602001808311611a0e57829003601f168201915b50505050508152505081525050815260200190600101906112f0565b50505050905080915050919050565b6003818051602081018201805184825260208301602085012081835280955050505050506000915054906101000a900460ff1681565b6004818051602081018201805184825260208301602085012081835280955050505050506000915090508054611ac19061554b565b80601f0160208091040260200160405190810160405280929190818152602001828054611aed9061554b565b8015611b3a5780601f10611b0f57610100808354040283529160200191611b3a565b820191906000526020600020905b815481529060010190602001808311611b1d57829003601f168201915b505050505081565b611b4a61477e565b6000600583604051611b5c9190615505565b9081526020016040518091039020604051806101600160405290816000820160009054906101000a900473ffffffffffffffffffffffffffffffffffffffff1673ffffffffffffffffffffffffffffffffffffffff1673ffffffffffffffffffffffffffffffffffffffff16815260200160018201548152602001600282018054611be69061554b565b80601f0160208091040260200160405190810160405280929190818152602001828054611c129061554b565b8015611c5f5780601f10611c3457610100808354040283529160200191611c5f565b820191906000526020600020905b815481529060010190602001808311611c4257829003601f168201915b50505050508152602001600382018054611c789061554b565b80601f0160208091040260200160405190810160405280929190818152602001828054611ca49061554b565b8015611cf15780601f10611cc657610100808354040283529160200191611cf1565b820191906000526020600020905b815481529060010190602001808311611cd457829003601f168201915b50505050508152602001600482018054611d0a9061554b565b80601f0160208091040260200160405190810160405280929190818152602001828054611d369061554b565b8015611d835780601f10611d5857610100808354040283529160200191611d83565b820191906000526020600020905b815481529060010190602001808311611d6657829003601f168201915b50505050508152602001600582018054611d9c9061554b565b80601f0160208091040260200160405190810160405280929190818152602001828054611dc89061554b565b8015611e155780601f10611dea57610100808354040283529160200191611e15565b820191906000526020600020905b815481529060010190602001808311611df857829003601f168201915b50505050508152602001600682018054611e2e9061554b565b80601f0160208091040260200160405190810160405280929190818152602001828054611e5a9061554b565b8015611ea75780601f10611e7c57610100808354040283529160200191611ea7565b820191906000526020600020905b815481529060010190602001808311611e8a57829003601f168201915b50505050508152602001600782018054611ec09061554b565b80601f0160208091040260200160405190810160405280929190818152602001828054611eec9061554b565b8015611f395780601f10611f0e57610100808354040283529160200191611f39565b820191906000526020600020905b815481529060010190602001808311611f1c57829003601f168201915b5050505050815260200160088201548152602001600982018054611f5c9061554b565b80601f0160208091040260200160405190810160405280929190818152602001828054611f889061554b565b8015611fd55780601f10611faa57610100808354040283529160200191611fd5565b820191906000526020600020905b815481529060010190602001808311611fb857829003601f168201915b50505050508152602001600a82018054611fee9061554b565b80601f016020809104026020016040519081016040528092919081815260200182805461201a9061554b565b80156120675780601f1061203c57610100808354040283529160200191612067565b820191906000526020600020905b81548152906001019060200180831161204a57829003601f168201915b505050505081525050905080915050919050565b6120836147ee565b60006004836040516120959190615505565b908152602001604051809103902080546120ae9061554b565b80601f01602080910402602001604051908101604052809291908181526020018280546120da9061554b565b80156121275780601f106120fc57610100808354040283529160200191612127565b820191906000526020600020905b81548152906001019060200180831161210a57829003601f168201915b5050505050905060098160405161213e9190615505565b90815260200160405180910390206040518060c00160405290816000820160009054906101000a900473ffffffffffffffffffffffffffffffffffffffff1673ffffffffffffffffffffffffffffffffffffffff1673ffffffffffffffffffffffffffffffffffffffff168152602001600182015481526020016002820180546121c79061554b565b80601f01602080910402602001604051908101604052809291908181526020018280546121f39061554b565b80156122405780601f1061221557610100808354040283529160200191612240565b820191906000526020600020905b81548152906001019060200180831161222357829003601f168201915b505050505081526020016003820180546122599061554b565b80601f01602080910402602001604051908101604052809291908181526020018280546122859061554b565b80156122d25780601f106122a7576101008083540402835291602001916122d2565b820191906000526020600020905b8154815290600101906020018083116122b557829003601f168201915b505050505081526020016004820180546122eb9061554b565b80601f01602080910402602001604051908101604052809291908181526020018280546123179061554b565b80156123645780601f1061233957610100808354040283529160200191612364565b820191906000526020600020905b81548152906001019060200180831161234757829003601f168201915b5050505050815260200160058201604051806101600160405290816000820160009054906101000a900473ffffffffffffffffffffffffffffffffffffffff1673ffffffffffffffffffffffffffffffffffffffff1673ffffffffffffffffffffffffffffffffffffffff168152602001600182015481526020016002820180546123ee9061554b565b80601f016020809104026020016040519081016040528092919081815260200182805461241a9061554b565b80156124675780601f1061243c57610100808354040283529160200191612467565b820191906000526020600020905b81548152906001019060200180831161244a57829003601f168201915b505050505081526020016003820180546124809061554b565b80601f01602080910402602001604051908101604052809291908181526020018280546124ac9061554b565b80156124f95780601f106124ce576101008083540402835291602001916124f9565b820191906000526020600020905b8154815290600101906020018083116124dc57829003601f168201915b505050505081526020016004820180546125129061554b565b80601f016020809104026020016040519081016040528092919081815260200182805461253e9061554b565b801561258b5780601f106125605761010080835404028352916020019161258b565b820191906000526020600020905b81548152906001019060200180831161256e57829003601f168201915b505050505081526020016005820180546125a49061554b565b80601f01602080910402602001604051908101604052809291908181526020018280546125d09061554b565b801561261d5780601f106125f25761010080835404028352916020019161261d565b820191906000526020600020905b81548152906001019060200180831161260057829003601f168201915b505050505081526020016006820180546126369061554b565b80601f01602080910402602001604051908101604052809291908181526020018280546126629061554b565b80156126af5780601f10612684576101008083540402835291602001916126af565b820191906000526020600020905b81548152906001019060200180831161269257829003601f168201915b505050505081526020016007820180546126c89061554b565b80601f01602080910402602001604051908101604052809291908181526020018280546126f49061554b565b80156127415780601f1061271657610100808354040283529160200191612741565b820191906000526020600020905b81548152906001019060200180831161272457829003601f168201915b50505050508152602001600882015481526020016009820180546127649061554b565b80601f01602080910402602001604051908101604052809291908181526020018280546127909061554b565b80156127dd5780601f106127b2576101008083540402835291602001916127dd565b820191906000526020600020905b8154815290600101906020018083116127c057829003601f168201915b50505050508152602001600a820180546127f69061554b565b80601f01602080910402602001604051908101604052809291908181526020018280546128229061554b565b801561286f5780601f106128445761010080835404028352916020019161286f565b820191906000526020600020905b81548152906001019060200180831161285257829003601f168201915b50505050508152505081525050915050919050565b606060006006836040516128989190615505565b9081526020016040518091039020805480602002602001604051908101604052809291908181526020016000905b82821015612df357838290600052602060002090600b0201604051806101600160405290816000820160009054906101000a900473ffffffffffffffffffffffffffffffffffffffff1673ffffffffffffffffffffffffffffffffffffffff1673ffffffffffffffffffffffffffffffffffffffff1681526020016001820154815260200160028201805461295a9061554b565b80601f01602080910402602001604051908101604052809291908181526020018280546129869061554b565b80156129d35780601f106129a8576101008083540402835291602001916129d3565b820191906000526020600020905b8154815290600101906020018083116129b657829003601f168201915b505050505081526020016003820180546129ec9061554b565b80601f0160208091040260200160405190810160405280929190818152602001828054612a189061554b565b8015612a655780601f10612a3a57610100808354040283529160200191612a65565b820191906000526020600020905b815481529060010190602001808311612a4857829003601f168201915b50505050508152602001600482018054612a7e9061554b565b80601f0160208091040260200160405190810160405280929190818152602001828054612aaa9061554b565b8015612af75780601f10612acc57610100808354040283529160200191612af7565b820191906000526020600020905b815481529060010190602001808311612ada57829003601f168201915b50505050508152602001600582018054612b109061554b565b80601f0160208091040260200160405190810160405280929190818152602001828054612b3c9061554b565b8015612b895780601f10612b5e57610100808354040283529160200191612b89565b820191906000526020600020905b815481529060010190602001808311612b6c57829003601f168201915b50505050508152602001600682018054612ba29061554b565b80601f0160208091040260200160405190810160405280929190818152602001828054612bce9061554b565b8015612c1b5780601f10612bf057610100808354040283529160200191612c1b565b820191906000526020600020905b815481529060010190602001808311612bfe57829003601f168201915b50505050508152602001600782018054612c349061554b565b80601f0160208091040260200160405190810160405280929190818152602001828054612c609061554b565b8015612cad5780601f10612c8257610100808354040283529160200191612cad565b820191906000526020600020905b815481529060010190602001808311612c9057829003601f168201915b5050505050815260200160088201548152602001600982018054612cd09061554b565b80601f0160208091040260200160405190810160405280929190818152602001828054612cfc9061554b565b8015612d495780601f10612d1e57610100808354040283529160200191612d49565b820191906000526020600020905b815481529060010190602001808311612d2c57829003601f168201915b50505050508152602001600a82018054612d629061554b565b80601f0160208091040260200160405190810160405280929190818152602001828054612d8e9061554b565b8015612ddb5780601f10612db057610100808354040283529160200191612ddb565b820191906000526020600020905b815481529060010190602001808311612dbe57829003601f168201915b505050505081525050815260200190600101906128c6565b50505050905080915050919050565b6000600254905090565b6000600582604051612e1e9190615505565b908152602001604051809103902090508060000160009054906101000a900473ffffffffffffffffffffffffffffffffffffffff1673ffffffffffffffffffffffffffffffffffffffff163373ffffffffffffffffffffffffffffffffffffffff1603612ec0576040517f08c379a0000000000000000000000000000000000000000000000000000000008152600401612eb790615a12565b60405180910390fd5b8060080154341015612f07576040517f08c379a0000000000000000000000000000000000000000000000000000000008152600401612efe90615aa4565b60405180910390fd5b8060000160009054906101000a900473ffffffffffffffffffffffffffffffffffffffff1673ffffffffffffffffffffffffffffffffffffffff166108fc349081150290604051600060405180830381858888f19350505050158015612f71573d6000803e3d6000fd5b506001600254612f8191906155ab565b6002819055506040518060c001604052803373ffffffffffffffffffffffffffffffffffffffff1681526020016002548152602001868152602001858152602001848152602001600584604051612fd89190615505565b9081526020016040518091039020604051806101600160405290816000820160009054906101000a900473ffffffffffffffffffffffffffffffffffffffff1673ffffffffffffffffffffffffffffffffffffffff1673ffffffffffffffffffffffffffffffffffffffff168152602001600182015481526020016002820180546130629061554b565b80601f016020809104026020016040519081016040528092919081815260200182805461308e9061554b565b80156130db5780601f106130b0576101008083540402835291602001916130db565b820191906000526020600020905b8154815290600101906020018083116130be57829003601f168201915b505050505081526020016003820180546130f49061554b565b80601f01602080910402602001604051908101604052809291908181526020018280546131209061554b565b801561316d5780601f106131425761010080835404028352916020019161316d565b820191906000526020600020905b81548152906001019060200180831161315057829003601f168201915b505050505081526020016004820180546131869061554b565b80601f01602080910402602001604051908101604052809291908181526020018280546131b29061554b565b80156131ff5780601f106131d4576101008083540402835291602001916131ff565b820191906000526020600020905b8154815290600101906020018083116131e257829003601f168201915b505050505081526020016005820180546132189061554b565b80601f01602080910402602001604051908101604052809291908181526020018280546132449061554b565b80156132915780601f1061326657610100808354040283529160200191613291565b820191906000526020600020905b81548152906001019060200180831161327457829003601f168201915b505050505081526020016006820180546132aa9061554b565b80601f01602080910402602001604051908101604052809291908181526020018280546132d69061554b565b80156133235780601f106132f857610100808354040283529160200191613323565b820191906000526020600020905b81548152906001019060200180831161330657829003601f168201915b5050505050815260200160078201805461333c9061554b565b80601f01602080910402602001604051908101604052809291908181526020018280546133689061554b565b80156133b55780601f1061338a576101008083540402835291602001916133b5565b820191906000526020600020905b81548152906001019060200180831161339857829003601f168201915b50505050508152602001600882015481526020016009820180546133d89061554b565b80601f01602080910402602001604051908101604052809291908181526020018280546134049061554b565b80156134515780601f1061342657610100808354040283529160200191613451565b820191906000526020600020905b81548152906001019060200180831161343457829003601f168201915b50505050508152602001600a8201805461346a9061554b565b80601f01602080910402602001604051908101604052809291908181526020018280546134969061554b565b80156134e35780601f106134b8576101008083540402835291602001916134e3565b820191906000526020600020905b8154815290600101906020018083116134c657829003601f168201915b5050505050815250508152506009836040516134ff9190615505565b908152602001604051809103902060008201518160000160006101000a81548173ffffffffffffffffffffffffffffffffffffffff021916908373ffffffffffffffffffffffffffffffffffffffff16021790555060208201518160010155604082015181600201908161357391906157f6565b50606082015181600301908161358991906157f6565b50608082015181600401908161359f91906157f6565b5060a08201518160050160008201518160000160006101000a81548173ffffffffffffffffffffffffffffffffffffffff021916908373ffffffffffffffffffffffffffffffffffffffff16021790555060208201518160010155604082015181600201908161360f91906157f6565b50606082015181600301908161362591906157f6565b50608082015181600401908161363b91906157f6565b5060a082015181600501908161365191906157f6565b5060c082015181600601908161366791906157f6565b5060e082015181600701908161367d91906157f6565b50610100820151816008015561012082015181600901908161369f91906157f6565b5061014082015181600a0190816136b691906157f6565b5050509050506008836040516136cc9190615505565b90815260200160405180910390206009836040516136ea9190615505565b908152602001604051809103902090806001815401808255809150506001900390600052602060002090601002016000909190919091506000820160009054906101000a900473ffffffffffffffffffffffffffffffffffffffff168160000160006101000a81548173ffffffffffffffffffffffffffffffffffffffff021916908373ffffffffffffffffffffffffffffffffffffffff16021790555060018201548160010155600282018160020190816137a691906158de565b50600382018160030190816137bb91906158de565b50600482018160040190816137d091906158de565b5060058201816005016000820160009054906101000a900473ffffffffffffffffffffffffffffffffffffffff168160000160006101000a81548173ffffffffffffffffffffffffffffffffffffffff021916908373ffffffffffffffffffffffffffffffffffffffff160217905550600182015481600101556002820181600201908161385e91906158de565b506003820181600301908161387391906158de565b506004820181600401908161388891906158de565b506005820181600501908161389d91906158de565b50600682018160060190816138b291906158de565b50600782018160070190816138c791906158de565b5060088201548160080155600982018160090190816138e691906158de565b50600a820181600a0190816138fb91906158de565b5050505050816004826006016040516139149190615b47565b9081526020016040518091039020908161392e91906157f6565b505050505050565b6060600060078360405161394a9190615505565b9081526020016040518091039020805480602002602001604051908101604052809291908181526020016000905b82821015613ea557838290600052602060002090600b0201604051806101600160405290816000820160009054906101000a900473ffffffffffffffffffffffffffffffffffffffff1673ffffffffffffffffffffffffffffffffffffffff1673ffffffffffffffffffffffffffffffffffffffff16815260200160018201548152602001600282018054613a0c9061554b565b80601f0160208091040260200160405190810160405280929190818152602001828054613a389061554b565b8015613a855780601f10613a5a57610100808354040283529160200191613a85565b820191906000526020600020905b815481529060010190602001808311613a6857829003601f168201915b50505050508152602001600382018054613a9e9061554b565b80601f0160208091040260200160405190810160405280929190818152602001828054613aca9061554b565b8015613b175780601f10613aec57610100808354040283529160200191613b17565b820191906000526020600020905b815481529060010190602001808311613afa57829003601f168201915b50505050508152602001600482018054613b309061554b565b80601f0160208091040260200160405190810160405280929190818152602001828054613b5c9061554b565b8015613ba95780601f10613b7e57610100808354040283529160200191613ba9565b820191906000526020600020905b815481529060010190602001808311613b8c57829003601f168201915b50505050508152602001600582018054613bc29061554b565b80601f0160208091040260200160405190810160405280929190818152602001828054613bee9061554b565b8015613c3b5780601f10613c1057610100808354040283529160200191613c3b565b820191906000526020600020905b815481529060010190602001808311613c1e57829003601f168201915b50505050508152602001600682018054613c549061554b565b80601f0160208091040260200160405190810160405280929190818152602001828054613c809061554b565b8015613ccd5780601f10613ca257610100808354040283529160200191613ccd565b820191906000526020600020905b815481529060010190602001808311613cb057829003601f168201915b50505050508152602001600782018054613ce69061554b565b80601f0160208091040260200160405190810160405280929190818152602001828054613d129061554b565b8015613d5f5780601f10613d3457610100808354040283529160200191613d5f565b820191906000526020600020905b815481529060010190602001808311613d4257829003601f168201915b5050505050815260200160088201548152602001600982018054613d829061554b565b80601f0160208091040260200160405190810160405280929190818152602001828054613dae9061554b565b8015613dfb5780601f10613dd057610100808354040283529160200191613dfb565b820191906000526020600020905b815481529060010190602001808311613dde57829003601f168201915b50505050508152602001600a82018054613e149061554b565b80601f0160208091040260200160405190810160405280929190818152602001828054613e409061554b565b8015613e8d5780601f10613e6257610100808354040283529160200191613e8d565b820191906000526020600020905b815481529060010190602001808311613e7057829003601f168201915b50505050508152505081526020019060010190613978565b50505050905080915050919050565b600381604051613ec49190615505565b908152602001604051809103902060009054906101000a900460ff1615613f20576040517f08c379a0000000000000000000000000000000000000000000000000000000008152600401613f1790615baa565b60405180910390fd5b6000600582604051613f329190615505565b9081526020016040518091039020905060008160090182600a01604051602001613f5d929190615c62565b6040516020818303038152906040529050600080600683604051613f819190615505565b908152602001604051809103902080549050905060005b81811015614018578580519060200120600685604051613fb89190615505565b90815260200160405180910390208281548110613fd857613fd7615c86565b5b90600052602060002090600b0201600401604051613ff69190615cb5565b60405180910390200361400b57809250614018565b8080600101915050613f98565b506006836040516140299190615505565b90815260200160405180910390206001826140449190615ccc565b8154811061405557614054615c86565b5b90600052602060002090600b02016006846040516140739190615505565b9081526020016040518091039020838154811061409357614092615c86565b5b90600052602060002090600b02016000820160009054906101000a900473ffffffffffffffffffffffffffffffffffffffff168160000160006101000a81548173ffffffffffffffffffffffffffffffffffffffff021916908373ffffffffffffffffffffffffffffffffffffffff160217905550600182015481600101556002820181600201908161412691906158de565b506003820181600301908161413b91906158de565b506004820181600401908161415091906158de565b506005820181600501908161416591906158de565b506006820181600601908161417a91906158de565b506007820181600701908161418f91906158de565b5060088201548160080155600982018160090190816141ae91906158de565b50600a820181600a0190816141c391906158de565b509050506006836040516141d79190615505565b90815260200160405180910390208054806141f5576141f4615d00565b5b60019003818190600052602060002090600b0201600080820160006101000a81549073ffffffffffffffffffffffffffffffffffffffff02191690556001820160009055600282016000614249919061473e565b600382016000614259919061473e565b600482016000614269919061473e565b600582016000614279919061473e565b600682016000614289919061473e565b600782016000614299919061473e565b60088201600090556009820160006142b1919061473e565b600a820160006142c1919061473e565b505090556007846006016040516142d89190615b47565b908152602001604051809103902080549050905060005b818110156143725785805190602001206007866006016040516143129190615b47565b9081526020016040518091039020828154811061433257614331615c86565b5b90600052602060002090600b02016004016040516143509190615cb5565b60405180910390200361436557809250614372565b80806001019150506142ef565b506007846006016040516143869190615b47565b90815260200160405180910390206001826143a19190615ccc565b815481106143b2576143b1615c86565b5b90600052602060002090600b02016007856006016040516143d39190615b47565b908152602001604051809103902083815481106143f3576143f2615c86565b5b90600052602060002090600b02016000820160009054906101000a900473ffffffffffffffffffffffffffffffffffffffff168160000160006101000a81548173ffffffffffffffffffffffffffffffffffffffff021916908373ffffffffffffffffffffffffffffffffffffffff160217905550600182015481600101556002820181600201908161448691906158de565b506003820181600301908161449b91906158de565b50600482018160040190816144b091906158de565b50600582018160050190816144c591906158de565b50600682018160060190816144da91906158de565b50600782018160070190816144ef91906158de565b50600882015481600801556009820181600901908161450e91906158de565b50600a820181600a01908161452391906158de565b5090505060078460060160405161453a9190615b47565b908152602001604051809103902080548061455857614557615d00565b5b60019003818190600052602060002090600b0201600080820160006101000a81549073ffffffffffffffffffffffffffffffffffffffff021916905560018201600090556002820160006145ac919061473e565b6003820160006145bc919061473e565b6004820160006145cc919061473e565b6005820160006145dc919061473e565b6006820160006145ec919061473e565b6007820160006145fc919061473e565b6008820160009055600982016000614614919061473e565b600a82016000614624919061473e565b505090556005856040516146389190615505565b9081526020016040518091039020600080820160006101000a81549073ffffffffffffffffffffffffffffffffffffffff02191690556001820160009055600282016000614686919061473e565b600382016000614696919061473e565b6004820160006146a6919061473e565b6005820160006146b6919061473e565b6006820160006146c6919061473e565b6007820160006146d6919061473e565b60088201600090556009820160006146ee919061473e565b600a820160006146fe919061473e565b505060016003866040516147129190615505565b908152602001604051809103902060006101000a81548160ff0219169083151502179055505050505050565b50805461474a9061554b565b6000825580601f1061475c575061477b565b601f01602090049060005260206000209081019061477a9190614840565b5b50565b604051806101600160405280600073ffffffffffffffffffffffffffffffffffffffff168152602001600081526020016060815260200160608152602001606081526020016060815260200160608152602001606081526020016000815260200160608152602001606081525090565b6040518060c00160405280600073ffffffffffffffffffffffffffffffffffffffff1681526020016000815260200160608152602001606081526020016060815260200161483a61477e565b81525090565b5b80821115614859576000816000905550600101614841565b5090565b6000604051905090565b600080fd5b600080fd5b600080fd5b600080fd5b6000601f19601f8301169050919050565b7f4e487b7100000000000000000000000000000000000000000000000000000000600052604160045260246000fd5b6148c48261487b565b810181811067ffffffffffffffff821117156148e3576148e261488c565b5b80604052505050565b60006148f661485d565b905061490282826148bb565b919050565b600067ffffffffffffffff8211156149225761492161488c565b5b61492b8261487b565b9050602081019050919050565b82818337600083830152505050565b600061495a61495584614907565b6148ec565b90508281526020810184848401111561497657614975614876565b5b614981848285614938565b509392505050565b600082601f83011261499e5761499d614871565b5b81356149ae848260208601614947565b91505092915050565b6000602082840312156149cd576149cc614867565b5b600082013567ffffffffffffffff8111156149eb576149ea61486c565b5b6149f784828501614989565b91505092915050565b600081519050919050565b600082825260208201905092915050565b6000819050602082019050919050565b600073ffffffffffffffffffffffffffffffffffffffff82169050919050565b6000614a5782614a2c565b9050919050565b614a6781614a4c565b82525050565b6000819050919050565b614a8081614a6d565b82525050565b600081519050919050565b600082825260208201905092915050565b60005b83811015614ac0578082015181840152602081019050614aa5565b60008484015250505050565b6000614ad782614a86565b614ae18185614a91565b9350614af1818560208601614aa2565b614afa8161487b565b840191505092915050565b6000614b1082614a2c565b9050919050565b614b2081614b05565b82525050565b600061016083016000830151614b3f6000860182614b17565b506020830151614b526020860182614a77565b5060408301518482036040860152614b6a8282614acc565b91505060608301518482036060860152614b848282614acc565b91505060808301518482036080860152614b9e8282614acc565b91505060a083015184820360a0860152614bb88282614acc565b91505060c083015184820360c0860152614bd28282614acc565b91505060e083015184820360e0860152614bec8282614acc565b915050610100830151614c03610100860182614a77565b50610120830151848203610120860152614c1d8282614acc565b915050610140830151848203610140860152614c398282614acc565b9150508091505092915050565b600060c083016000830151614c5e6000860182614a5e565b506020830151614c716020860182614a77565b5060408301518482036040860152614c898282614acc565b91505060608301518482036060860152614ca38282614acc565b91505060808301518482036080860152614cbd8282614acc565b91505060a083015184820360a0860152614cd78282614b26565b9150508091505092915050565b6000614cf08383614c46565b905092915050565b6000602082019050919050565b6000614d1082614a00565b614d1a8185614a0b565b935083602082028501614d2c85614a1c565b8060005b85811015614d685784840389528151614d498582614ce4565b9450614d5483614cf8565b925060208a01995050600181019050614d30565b50829750879550505050505092915050565b60006020820190508181036000830152614d948184614d05565b905092915050565b614da581614b05565b8114614db057600080fd5b50565b600081359050614dc281614d9c565b92915050565b614dd181614a6d565b8114614ddc57600080fd5b50565b600081359050614dee81614dc8565b92915050565b60008060008060008060008060008060006101608c8e031215614e1a57614e19614867565b5b6000614e288e828f01614db3565b9b50506020614e398e828f01614ddf565b9a505060408c013567ffffffffffffffff811115614e5a57614e5961486c565b5b614e668e828f01614989565b99505060608c013567ffffffffffffffff811115614e8757614e8661486c565b5b614e938e828f01614989565b98505060808c013567ffffffffffffffff811115614eb457614eb361486c565b5b614ec08e828f01614989565b97505060a08c013567ffffffffffffffff811115614ee157614ee061486c565b5b614eed8e828f01614989565b96505060c08c013567ffffffffffffffff811115614f0e57614f0d61486c565b5b614f1a8e828f01614989565b95505060e08c013567ffffffffffffffff811115614f3b57614f3a61486c565b5b614f478e828f01614989565b945050610100614f598e828f01614ddf565b9350506101208c013567ffffffffffffffff811115614f7b57614f7a61486c565b5b614f878e828f01614989565b9250506101408c013567ffffffffffffffff811115614fa957614fa861486c565b5b614fb58e828f01614989565b9150509295989b509295989b9093969950565b60008060408385031215614fdf57614fde614867565b5b600083013567ffffffffffffffff811115614ffd57614ffc61486c565b5b61500985828601614989565b925050602083013567ffffffffffffffff81111561502a5761502961486c565b5b61503685828601614989565b9150509250929050565b60008115159050919050565b61505581615040565b82525050565b6000602082019050615070600083018461504c565b92915050565b600082825260208201905092915050565b600061509282614a86565b61509c8185615076565b93506150ac818560208601614aa2565b6150b58161487b565b840191505092915050565b600060208201905081810360008301526150da8184615087565b905092915050565b6000610160830160008301516150fb6000860182614b17565b50602083015161510e6020860182614a77565b50604083015184820360408601526151268282614acc565b915050606083015184820360608601526151408282614acc565b9150506080830151848203608086015261515a8282614acc565b91505060a083015184820360a08601526151748282614acc565b91505060c083015184820360c086015261518e8282614acc565b91505060e083015184820360e08601526151a88282614acc565b9150506101008301516151bf610100860182614a77565b506101208301518482036101208601526151d98282614acc565b9150506101408301518482036101408601526151f58282614acc565b9150508091505092915050565b6000602082019050818103600083015261521c81846150e2565b905092915050565b600060c08301600083015161523c6000860182614a5e565b50602083015161524f6020860182614a77565b50604083015184820360408601526152678282614acc565b915050606083015184820360608601526152818282614acc565b9150506080830151848203608086015261529b8282614acc565b91505060a083015184820360a08601526152b58282614b26565b9150508091505092915050565b600060208201905081810360008301526152dc8184615224565b905092915050565b600081519050919050565b600082825260208201905092915050565b6000819050602082019050919050565b600061531c8383614b26565b905092915050565b6000602082019050919050565b600061533c826152e4565b61534681856152ef565b93508360208202850161535885615300565b8060005b8581101561539457848403895281516153758582615310565b945061538083615324565b925060208a0199505060018101905061535c565b50829750879550505050505092915050565b600060208201905081810360008301526153c08184615331565b905092915050565b6153d181614a6d565b82525050565b60006020820190506153ec60008301846153c8565b92915050565b6000806000806080858703121561540c5761540b614867565b5b600085013567ffffffffffffffff81111561542a5761542961486c565b5b61543687828801614989565b945050602085013567ffffffffffffffff8111156154575761545661486c565b5b61546387828801614989565b935050604085013567ffffffffffffffff8111156154845761548361486c565b5b61549087828801614989565b925050606085013567ffffffffffffffff8111156154b1576154b061486c565b5b6154bd87828801614989565b91505092959194509250565b600081905092915050565b60006154df82614a86565b6154e981856154c9565b93506154f9818560208601614aa2565b80840191505092915050565b600061551182846154d4565b915081905092915050565b7f4e487b7100000000000000000000000000000000000000000000000000000000600052602260045260246000fd5b6000600282049050600182168061556357607f821691505b6020821081036155765761557561551c565b5b50919050565b7f4e487b7100000000000000000000000000000000000000000000000000000000600052601160045260246000fd5b60006155b682614a6d565b91506155c183614a6d565b92508282019050808211156155d9576155d861557c565b5b92915050565b600081519050919050565b600081905092915050565b6000615600826155df565b61560a81856155ea565b935061561a818560208601614aa2565b80840191505092915050565b600061563282856155f5565b915061563e82846155f5565b91508190509392505050565b60008190508160005260206000209050919050565b60006020601f8301049050919050565b600082821b905092915050565b6000600883026156ac7fffffffffffffffffffffffffffffffffffffffffffffffffffffffffffffffff8261566f565b6156b6868361566f565b95508019841693508086168417925050509392505050565b6000819050919050565b60006156f36156ee6156e984614a6d565b6156ce565b614a6d565b9050919050565b6000819050919050565b61570d836156d8565b615721615719826156fa565b84845461567c565b825550505050565b600090565b615736615729565b615741818484615704565b505050565b5b818110156157655761575a60008261572e565b600181019050615747565b5050565b601f8211156157aa5761577b8161564a565b6157848461565f565b81016020851015615793578190505b6157a761579f8561565f565b830182615746565b50505b505050565b600082821c905092915050565b60006157cd600019846008026157af565b1980831691505092915050565b60006157e683836157bc565b9150826002028217905092915050565b6157ff82614a86565b67ffffffffffffffff8111156158185761581761488c565b5b615822825461554b565b61582d828285615769565b600060209050601f831160018114615860576000841561584e578287015190505b61585885826157da565b8655506158c0565b601f19841661586e8661564a565b60005b8281101561589657848901518255600182019150602085019450602081019050615871565b868310156158b357848901516158af601f8916826157bc565b8355505b6001600288020188555050505b505050505050565b6000815490506158d78161554b565b9050919050565b8181036158ec5750506159c4565b6158f5826158c8565b67ffffffffffffffff81111561590e5761590d61488c565b5b615918825461554b565b615923828285615769565b6000601f8311600181146159525760008415615940578287015490505b61594a85826157da565b8655506159bd565b601f1984166159608761564a565b965061596b8661564a565b60005b828110156159935784890154825560018201915060018501945060208101905061596e565b868310156159b057848901546159ac601f8916826157bc565b8355505b6001600288020188555050505b5050505050505b565b7f43616e6e6f742070617920796f757273656c6600000000000000000000000000600082015250565b60006159fc601383615076565b9150615a07826159c6565b602082019050919050565b60006020820190508181036000830152615a2b816159ef565b9050919050565b7f496e73756666696369656e742066756e647320746f206d616b65207061796d6560008201527f6e74000000000000000000000000000000000000000000000000000000000000602082015250565b6000615a8e602283615076565b9150615a9982615a32565b604082019050919050565b60006020820190508181036000830152615abd81615a81565b9050919050565b60008154615ad18161554b565b615adb81866154c9565b94506001821660008114615af65760018114615b0b57615b3e565b60ff1983168652811515820286019350615b3e565b615b148561564a565b60005b83811015615b3657815481890152600182019150602081019050615b17565b838801955050505b50505092915050565b6000615b538284615ac4565b915081905092915050565b7f546865207265636f726420697320616c72656164792064656c65746564000000600082015250565b6000615b94601d83615076565b9150615b9f82615b5e565b602082019050919050565b60006020820190508181036000830152615bc381615b87565b9050919050565b60008190508160005260206000209050919050565b60008154615bec8161554b565b615bf681866155ea565b94506001821660008114615c115760018114615c2657615c59565b60ff1983168652811515820286019350615c59565b615c2f85615bca565b60005b83811015615c5157815481890152600182019150602081019050615c32565b838801955050505b50505092915050565b6000615c6e8285615bdf565b9150615c7a8284615bdf565b91508190509392505050565b7f4e487b7100000000000000000000000000000000000000000000000000000000600052603260045260246000fd5b6000615cc18284615bdf565b915081905092915050565b6000615cd782614a6d565b9150615ce283614a6d565b9250828203905081811115615cfa57615cf961557c565b5b92915050565b7f4e487b7100000000000000000000000000000000000000000000000000000000600052603160045260246000fdfea2646970667358221220fd998280036e63fd0ea6d6581dac79c04458bfbcaa0ff85e2f5214435449e09664736f6c63430008180033",
  "linkReferences": {},
  "deployedLinkReferences": {}
}