{
    "_format": "hh-sol-artifact-1",
    "contractName": "CarpoolingSystem",
    "sourceName": "contracts/CarPool.sol",
    "abi": [
        {
            "inputs": [
                {
                    "internalType": "address payable",
                    "name": "_carOwner",
                    "type": "address"
                },
                {
                    "internalType": "uint256",
                    "name": "_num_of_seat",
                    "type": "uint256"
                },
                {
                    "internalType": "string",
                    "name": "_name",
                    "type": "string"
                },
                {
                    "internalType": "string",
                    "name": "_vehicle",
                    "type": "string"
                },
                {
                    "internalType": "string",
                    "name": "_vehicleNo",
                    "type": "string"
                },
                {
                    "internalType": "string",
                    "name": "_category",
                    "type": "string"
                },
                {
                    "internalType": "string",
                    "name": "_licence_id",
                    "type": "string"
                },
                {
                    "internalType": "string",
                    "name": "_phoneNumber",
                    "type": "string"
                },
                {
                    "internalType": "uint256",
                    "name": "_rent",
                    "type": "uint256"
                },
                {
                    "internalType": "string",
                    "name": "_from",
                    "type": "string"
                },
                {
                    "internalType": "string",
                    "name": "_dest",
                    "type": "string"
                }
            ],
            "name": "addCar",
            "outputs": [],
            "stateMutability": "payable",
            "type": "function"
        },
        {
            "inputs": [
                {
                    "internalType": "string",
                    "name": "_from",
                    "type": "string"
                },
                {
                    "internalType": "string",
                    "name": "_dest",
                    "type": "string"
                },
                {
                    "internalType": "string",
                    "name": "_phone_no",
                    "type": "string"
                },
                {
                    "internalType": "string",
                    "name": "_vehicleNo",
                    "type": "string"
                }
            ],
            "name": "addUser",
            "outputs": [],
            "stateMutability": "nonpayable",
            "type": "function"
        },
        {
            "inputs": [
                {
                    "internalType": "string",
                    "name": "_dest",
                    "type": "string"
                }
            ],
            "name": "getAvailableCarByDest",
            "outputs": [
                {
                    "components": [
                        {
                            "internalType": "address payable",
                            "name": "carOwner",
                            "type": "address"
                        },
                        {
                            "internalType": "address payable",
                            "name": "driver",
                            "type": "address"
                        },
                        {
                            "internalType": "uint256",
                            "name": "num_of_seat",
                            "type": "uint256"
                        },
                        {
                            "internalType": "uint256",
                            "name": "carId",
                            "type": "uint256"
                        },
                        {
                            "internalType": "string",
                            "name": "name",
                            "type": "string"
                        },
                        {
                            "internalType": "string",
                            "name": "vehicle",
                            "type": "string"
                        },
                        {
                            "internalType": "string",
                            "name": "vehicleNo",
                            "type": "string"
                        },
                        {
                            "internalType": "string",
                            "name": "category",
                            "type": "string"
                        },
                        {
                            "internalType": "string",
                            "name": "licence_id",
                            "type": "string"
                        },
                        {
                            "internalType": "string",
                            "name": "phoneNumber",
                            "type": "string"
                        },
                        {
                            "internalType": "uint256",
                            "name": "rent",
                            "type": "uint256"
                        },
                        {
                            "internalType": "string",
                            "name": "from",
                            "type": "string"
                        },
                        {
                            "internalType": "string",
                            "name": "dest",
                            "type": "string"
                        }
                    ],
                    "internalType": "struct CarpoolingSystem.Car[]",
                    "name": "",
                    "type": "tuple[]"
                }
            ],
            "stateMutability": "view",
            "type": "function"
        },
        {
            "inputs": [
                {
                    "internalType": "string",
                    "name": "_licence_id",
                    "type": "string"
                }
            ],
            "name": "getAvailableCarBylicenceId",
            "outputs": [
                {
                    "components": [
                        {
                            "internalType": "address payable",
                            "name": "carOwner",
                            "type": "address"
                        },
                        {
                            "internalType": "address payable",
                            "name": "driver",
                            "type": "address"
                        },
                        {
                            "internalType": "uint256",
                            "name": "num_of_seat",
                            "type": "uint256"
                        },
                        {
                            "internalType": "uint256",
                            "name": "carId",
                            "type": "uint256"
                        },
                        {
                            "internalType": "string",
                            "name": "name",
                            "type": "string"
                        },
                        {
                            "internalType": "string",
                            "name": "vehicle",
                            "type": "string"
                        },
                        {
                            "internalType": "string",
                            "name": "vehicleNo",
                            "type": "string"
                        },
                        {
                            "internalType": "string",
                            "name": "category",
                            "type": "string"
                        },
                        {
                            "internalType": "string",
                            "name": "licence_id",
                            "type": "string"
                        },
                        {
                            "internalType": "string",
                            "name": "phoneNumber",
                            "type": "string"
                        },
                        {
                            "internalType": "uint256",
                            "name": "rent",
                            "type": "uint256"
                        },
                        {
                            "internalType": "string",
                            "name": "from",
                            "type": "string"
                        },
                        {
                            "internalType": "string",
                            "name": "dest",
                            "type": "string"
                        }
                    ],
                    "internalType": "struct CarpoolingSystem.Car[]",
                    "name": "",
                    "type": "tuple[]"
                }
            ],
            "stateMutability": "view",
            "type": "function"
        },
        {
            "inputs": [
                {
                    "internalType": "string",
                    "name": "_vehicleNo",
                    "type": "string"
                }
            ],
            "name": "getAvailableCarpools",
            "outputs": [
                {
                    "components": [
                        {
                            "internalType": "address payable",
                            "name": "carOwner",
                            "type": "address"
                        },
                        {
                            "internalType": "address payable",
                            "name": "driver",
                            "type": "address"
                        },
                        {
                            "internalType": "uint256",
                            "name": "num_of_seat",
                            "type": "uint256"
                        },
                        {
                            "internalType": "uint256",
                            "name": "carId",
                            "type": "uint256"
                        },
                        {
                            "internalType": "string",
                            "name": "name",
                            "type": "string"
                        },
                        {
                            "internalType": "string",
                            "name": "vehicle",
                            "type": "string"
                        },
                        {
                            "internalType": "string",
                            "name": "vehicleNo",
                            "type": "string"
                        },
                        {
                            "internalType": "string",
                            "name": "category",
                            "type": "string"
                        },
                        {
                            "internalType": "string",
                            "name": "licence_id",
                            "type": "string"
                        },
                        {
                            "internalType": "string",
                            "name": "phoneNumber",
                            "type": "string"
                        },
                        {
                            "internalType": "uint256",
                            "name": "rent",
                            "type": "uint256"
                        },
                        {
                            "internalType": "string",
                            "name": "from",
                            "type": "string"
                        },
                        {
                            "internalType": "string",
                            "name": "dest",
                            "type": "string"
                        }
                    ],
                    "internalType": "struct CarpoolingSystem.Car",
                    "name": "",
                    "type": "tuple"
                }
            ],
            "stateMutability": "view",
            "type": "function"
        },
        {
            "inputs": [
                {
                    "internalType": "string",
                    "name": "_phoneNo",
                    "type": "string"
                }
            ],
            "name": "getAvailableUser",
            "outputs": [
                {
                    "components": [
                        {
                            "internalType": "address",
                            "name": "user",
                            "type": "address"
                        },
                        {
                            "internalType": "uint256",
                            "name": "userId",
                            "type": "uint256"
                        },
                        {
                            "internalType": "string",
                            "name": "from",
                            "type": "string"
                        },
                        {
                            "internalType": "string",
                            "name": "dest",
                            "type": "string"
                        },
                        {
                            "internalType": "string",
                            "name": "phone_no",
                            "type": "string"
                        },
                        {
                            "components": [
                                {
                                    "internalType": "address payable",
                                    "name": "carOwner",
                                    "type": "address"
                                },
                                {
                                    "internalType": "address payable",
                                    "name": "driver",
                                    "type": "address"
                                },
                                {
                                    "internalType": "uint256",
                                    "name": "num_of_seat",
                                    "type": "uint256"
                                },
                                {
                                    "internalType": "uint256",
                                    "name": "carId",
                                    "type": "uint256"
                                },
                                {
                                    "internalType": "string",
                                    "name": "name",
                                    "type": "string"
                                },
                                {
                                    "internalType": "string",
                                    "name": "vehicle",
                                    "type": "string"
                                },
                                {
                                    "internalType": "string",
                                    "name": "vehicleNo",
                                    "type": "string"
                                },
                                {
                                    "internalType": "string",
                                    "name": "category",
                                    "type": "string"
                                },
                                {
                                    "internalType": "string",
                                    "name": "licence_id",
                                    "type": "string"
                                },
                                {
                                    "internalType": "string",
                                    "name": "phoneNumber",
                                    "type": "string"
                                },
                                {
                                    "internalType": "uint256",
                                    "name": "rent",
                                    "type": "uint256"
                                },
                                {
                                    "internalType": "string",
                                    "name": "from",
                                    "type": "string"
                                },
                                {
                                    "internalType": "string",
                                    "name": "dest",
                                    "type": "string"
                                }
                            ],
                            "internalType": "struct CarpoolingSystem.Car",
                            "name": "BookedCar",
                            "type": "tuple"
                        }
                    ],
                    "internalType": "struct CarpoolingSystem.User[]",
                    "name": "",
                    "type": "tuple[]"
                }
            ],
            "stateMutability": "view",
            "type": "function"
        },
        {
            "inputs": [],
            "name": "getCarCount",
            "outputs": [
                {
                    "internalType": "uint256",
                    "name": "",
                    "type": "uint256"
                }
            ],
            "stateMutability": "view",
            "type": "function"
        },
        {
            "inputs": [
                {
                    "internalType": "string",
                    "name": "_vehicleNo",
                    "type": "string"
                }
            ],
            "name": "getSelected",
            "outputs": [
                {
                    "components": [
                        {
                            "internalType": "address payable",
                            "name": "carOwner",
                            "type": "address"
                        },
                        {
                            "internalType": "address payable",
                            "name": "driver",
                            "type": "address"
                        },
                        {
                            "internalType": "uint256",
                            "name": "num_of_seat",
                            "type": "uint256"
                        },
                        {
                            "internalType": "uint256",
                            "name": "carId",
                            "type": "uint256"
                        },
                        {
                            "internalType": "string",
                            "name": "name",
                            "type": "string"
                        },
                        {
                            "internalType": "string",
                            "name": "vehicle",
                            "type": "string"
                        },
                        {
                            "internalType": "string",
                            "name": "vehicleNo",
                            "type": "string"
                        },
                        {
                            "internalType": "string",
                            "name": "category",
                            "type": "string"
                        },
                        {
                            "internalType": "string",
                            "name": "licence_id",
                            "type": "string"
                        },
                        {
                            "internalType": "string",
                            "name": "phoneNumber",
                            "type": "string"
                        },
                        {
                            "internalType": "uint256",
                            "name": "rent",
                            "type": "uint256"
                        },
                        {
                            "internalType": "string",
                            "name": "from",
                            "type": "string"
                        },
                        {
                            "internalType": "string",
                            "name": "dest",
                            "type": "string"
                        }
                    ],
                    "internalType": "struct CarpoolingSystem.Car",
                    "name": "",
                    "type": "tuple"
                }
            ],
            "stateMutability": "view",
            "type": "function"
        },
        {
            "inputs": [],
            "name": "getUserCount",
            "outputs": [
                {
                    "internalType": "uint256",
                    "name": "",
                    "type": "uint256"
                }
            ],
            "stateMutability": "view",
            "type": "function"
        },
        {
            "inputs": [
                {
                    "internalType": "string",
                    "name": "_vehicleNo",
                    "type": "string"
                }
            ],
            "name": "makePayment",
            "outputs": [],
            "stateMutability": "payable",
            "type": "function"
        },
        {
            "inputs": [
                {
                    "internalType": "string",
                    "name": "_vehicleNo",
                    "type": "string"
                }
            ],
            "name": "setSelected",
            "outputs": [],
            "stateMutability": "nonpayable",
            "type": "function"
        }
    ],
    "bytecode": "0x60806040526000600155600060025534801561001a57600080fd5b506145b78061002a6000396000f3fe60806040526004361061009c5760003560e01c80638111211211610064578063811121121461018b5780638c8b984d146101b4578063a5f5645d146101f1578063b5cb15f71461022e578063be2c950c14610259578063f9e823e6146102965761009c565b806301cda3ac146100a157806308c79758146100ca57806327436b59146100e6578063458f9adb146101115780637a7d56eb1461014e575b600080fd5b3480156100ad57600080fd5b506100c860048036038101906100c391906134bd565b6102b2565b005b6100e460048036038101906100df9190613628565b610add565b005b3480156100f257600080fd5b506100fb61112f565b604051610108919061380b565b60405180910390f35b34801561011d57600080fd5b5061013860048036038101906101339190613826565b611139565b6040516101459190613bd7565b60405180910390f35b34801561015a57600080fd5b5061017560048036038101906101709190613826565b611941565b6040516101829190613d43565b60405180910390f35b34801561019757600080fd5b506101b260048036038101906101ad9190613826565b611eda565b005b3480156101c057600080fd5b506101db60048036038101906101d69190613826565b611eed565b6040516101e89190613d43565b60405180910390f35b3480156101fd57600080fd5b5061021860048036038101906102139190613826565b61259f565b6040516102259190613e27565b60405180910390f35b34801561023a57600080fd5b50610243612b7d565b604051610250919061380b565b60405180910390f35b34801561026557600080fd5b50610280600480360381019061027b9190613826565b612b87565b60405161028d9190613e27565b60405180910390f35b6102b060048036038101906102ab9190613826565b613165565b005b60016002546102c19190613e78565b6002819055506007826040516102d79190613ee8565b90815260200160405180910390206040518060c001604052803373ffffffffffffffffffffffffffffffffffffffff16815260200160025481526020018681526020018581526020018481526020016004846040516103369190613ee8565b9081526020016040518091039020604051806101a00160405290816000820160009054906101000a900473ffffffffffffffffffffffffffffffffffffffff1673ffffffffffffffffffffffffffffffffffffffff1673ffffffffffffffffffffffffffffffffffffffff1681526020016001820160009054906101000a900473ffffffffffffffffffffffffffffffffffffffff1673ffffffffffffffffffffffffffffffffffffffff1673ffffffffffffffffffffffffffffffffffffffff168152602001600282015481526020016003820154815260200160048201805461042090613f2e565b80601f016020809104026020016040519081016040528092919081815260200182805461044c90613f2e565b80156104995780601f1061046e57610100808354040283529160200191610499565b820191906000526020600020905b81548152906001019060200180831161047c57829003601f168201915b505050505081526020016005820180546104b290613f2e565b80601f01602080910402602001604051908101604052809291908181526020018280546104de90613f2e565b801561052b5780601f106105005761010080835404028352916020019161052b565b820191906000526020600020905b81548152906001019060200180831161050e57829003601f168201915b5050505050815260200160068201805461054490613f2e565b80601f016020809104026020016040519081016040528092919081815260200182805461057090613f2e565b80156105bd5780601f10610592576101008083540402835291602001916105bd565b820191906000526020600020905b8154815290600101906020018083116105a057829003601f168201915b505050505081526020016007820180546105d690613f2e565b80601f016020809104026020016040519081016040528092919081815260200182805461060290613f2e565b801561064f5780601f106106245761010080835404028352916020019161064f565b820191906000526020600020905b81548152906001019060200180831161063257829003601f168201915b5050505050815260200160088201805461066890613f2e565b80601f016020809104026020016040519081016040528092919081815260200182805461069490613f2e565b80156106e15780601f106106b6576101008083540402835291602001916106e1565b820191906000526020600020905b8154815290600101906020018083116106c457829003601f168201915b505050505081526020016009820180546106fa90613f2e565b80601f016020809104026020016040519081016040528092919081815260200182805461072690613f2e565b80156107735780601f1061074857610100808354040283529160200191610773565b820191906000526020600020905b81548152906001019060200180831161075657829003601f168201915b50505050508152602001600a8201548152602001600b8201805461079690613f2e565b80601f01602080910402602001604051908101604052809291908181526020018280546107c290613f2e565b801561080f5780601f106107e45761010080835404028352916020019161080f565b820191906000526020600020905b8154815290600101906020018083116107f257829003601f168201915b50505050508152602001600c8201805461082890613f2e565b80601f016020809104026020016040519081016040528092919081815260200182805461085490613f2e565b80156108a15780601f10610876576101008083540402835291602001916108a1565b820191906000526020600020905b81548152906001019060200180831161088457829003601f168201915b505050505081525050815250908060018154018082558091505060019003906000526020600020906012020160009091909190915060008201518160000160006101000a81548173ffffffffffffffffffffffffffffffffffffffff021916908373ffffffffffffffffffffffffffffffffffffffff16021790555060208201518160010155604082015181600201908161093c919061410b565b506060820151816003019081610952919061410b565b506080820151816004019081610968919061410b565b5060a08201518160050160008201518160000160006101000a81548173ffffffffffffffffffffffffffffffffffffffff021916908373ffffffffffffffffffffffffffffffffffffffff16021790555060208201518160010160006101000a81548173ffffffffffffffffffffffffffffffffffffffff021916908373ffffffffffffffffffffffffffffffffffffffff16021790555060408201518160020155606082015181600301556080820151816004019081610a29919061410b565b5060a0820151816005019081610a3f919061410b565b5060c0820151816006019081610a55919061410b565b5060e0820151816007019081610a6b919061410b565b50610100820151816008019081610a82919061410b565b50610120820151816009019081610a99919061410b565b5061014082015181600a015561016082015181600b019081610abb919061410b565b5061018082015181600c019081610ad2919061410b565b505050505050505050565b60018054610aeb9190613e78565b6001819055506000829050600082905060008282604051602001610b10929190614224565b6040516020818303038152906040529050604051806101a001604052808f73ffffffffffffffffffffffffffffffffffffffff1681526020013373ffffffffffffffffffffffffffffffffffffffff1681526020018e815260200160015481526020018d81526020018c81526020018b81526020018a81526020018981526020018881526020018781526020018681526020018581525060048b604051610bb79190613ee8565b908152602001604051809103902060008201518160000160006101000a81548173ffffffffffffffffffffffffffffffffffffffff021916908373ffffffffffffffffffffffffffffffffffffffff16021790555060208201518160010160006101000a81548173ffffffffffffffffffffffffffffffffffffffff021916908373ffffffffffffffffffffffffffffffffffffffff16021790555060408201518160020155606082015181600301556080820151816004019081610c7c919061410b565b5060a0820151816005019081610c92919061410b565b5060c0820151816006019081610ca8919061410b565b5060e0820151816007019081610cbe919061410b565b50610100820151816008019081610cd5919061410b565b50610120820151816009019081610cec919061410b565b5061014082015181600a015561016082015181600b019081610d0e919061410b565b5061018082015181600c019081610d25919061410b565b50905050600581604051610d399190613ee8565b908152602001604051809103902060048b604051610d579190613ee8565b908152602001604051809103902090806001815401808255809150506001900390600052602060002090600d02016000909190919091506000820160009054906101000a900473ffffffffffffffffffffffffffffffffffffffff168160000160006101000a81548173ffffffffffffffffffffffffffffffffffffffff021916908373ffffffffffffffffffffffffffffffffffffffff1602179055506001820160009054906101000a900473ffffffffffffffffffffffffffffffffffffffff168160010160006101000a81548173ffffffffffffffffffffffffffffffffffffffff021916908373ffffffffffffffffffffffffffffffffffffffff160217905550600282015481600201556003820154816003015560048201816004019081610e84919061425e565b5060058201816005019081610e99919061425e565b5060068201816006019081610eae919061425e565b5060078201816007019081610ec3919061425e565b5060088201816008019081610ed8919061425e565b5060098201816009019081610eed919061425e565b50600a82015481600a0155600b820181600b019081610f0c919061425e565b50600c820181600c019081610f21919061425e565b505050600688604051610f349190613ee8565b908152602001604051809103902060048b604051610f529190613ee8565b908152602001604051809103902090806001815401808255809150506001900390600052602060002090600d02016000909190919091506000820160009054906101000a900473ffffffffffffffffffffffffffffffffffffffff168160000160006101000a81548173ffffffffffffffffffffffffffffffffffffffff021916908373ffffffffffffffffffffffffffffffffffffffff1602179055506001820160009054906101000a900473ffffffffffffffffffffffffffffffffffffffff168160010160006101000a81548173ffffffffffffffffffffffffffffffffffffffff021916908373ffffffffffffffffffffffffffffffffffffffff16021790555060028201548160020155600382015481600301556004820181600401908161107f919061425e565b5060058201816005019081611094919061425e565b50600682018160060190816110a9919061425e565b50600782018160070190816110be919061425e565b50600882018160080190816110d3919061425e565b50600982018160090190816110e8919061425e565b50600a82015481600a0155600b820181600b019081611107919061425e565b50600c820181600c01908161111c919061425e565b5050505050505050505050505050505050565b6000600154905090565b6060600060078360405161114d9190613ee8565b9081526020016040518091039020805480602002602001604051908101604052809291908181526020016000905b8282101561193257838290600052602060002090601202016040518060c00160405290816000820160009054906101000a900473ffffffffffffffffffffffffffffffffffffffff1673ffffffffffffffffffffffffffffffffffffffff1673ffffffffffffffffffffffffffffffffffffffff1681526020016001820154815260200160028201805461120e90613f2e565b80601f016020809104026020016040519081016040528092919081815260200182805461123a90613f2e565b80156112875780601f1061125c57610100808354040283529160200191611287565b820191906000526020600020905b81548152906001019060200180831161126a57829003601f168201915b505050505081526020016003820180546112a090613f2e565b80601f01602080910402602001604051908101604052809291908181526020018280546112cc90613f2e565b80156113195780601f106112ee57610100808354040283529160200191611319565b820191906000526020600020905b8154815290600101906020018083116112fc57829003601f168201915b5050505050815260200160048201805461133290613f2e565b80601f016020809104026020016040519081016040528092919081815260200182805461135e90613f2e565b80156113ab5780601f10611380576101008083540402835291602001916113ab565b820191906000526020600020905b81548152906001019060200180831161138e57829003601f168201915b5050505050815260200160058201604051806101a00160405290816000820160009054906101000a900473ffffffffffffffffffffffffffffffffffffffff1673ffffffffffffffffffffffffffffffffffffffff1673ffffffffffffffffffffffffffffffffffffffff1681526020016001820160009054906101000a900473ffffffffffffffffffffffffffffffffffffffff1673ffffffffffffffffffffffffffffffffffffffff1673ffffffffffffffffffffffffffffffffffffffff168152602001600282015481526020016003820154815260200160048201805461149590613f2e565b80601f01602080910402602001604051908101604052809291908181526020018280546114c190613f2e565b801561150e5780601f106114e35761010080835404028352916020019161150e565b820191906000526020600020905b8154815290600101906020018083116114f157829003601f168201915b5050505050815260200160058201805461152790613f2e565b80601f016020809104026020016040519081016040528092919081815260200182805461155390613f2e565b80156115a05780601f10611575576101008083540402835291602001916115a0565b820191906000526020600020905b81548152906001019060200180831161158357829003601f168201915b505050505081526020016006820180546115b990613f2e565b80601f01602080910402602001604051908101604052809291908181526020018280546115e590613f2e565b80156116325780601f1061160757610100808354040283529160200191611632565b820191906000526020600020905b81548152906001019060200180831161161557829003601f168201915b5050505050815260200160078201805461164b90613f2e565b80601f016020809104026020016040519081016040528092919081815260200182805461167790613f2e565b80156116c45780601f10611699576101008083540402835291602001916116c4565b820191906000526020600020905b8154815290600101906020018083116116a757829003601f168201915b505050505081526020016008820180546116dd90613f2e565b80601f016020809104026020016040519081016040528092919081815260200182805461170990613f2e565b80156117565780601f1061172b57610100808354040283529160200191611756565b820191906000526020600020905b81548152906001019060200180831161173957829003601f168201915b5050505050815260200160098201805461176f90613f2e565b80601f016020809104026020016040519081016040528092919081815260200182805461179b90613f2e565b80156117e85780601f106117bd576101008083540402835291602001916117e8565b820191906000526020600020905b8154815290600101906020018083116117cb57829003601f168201915b50505050508152602001600a8201548152602001600b8201805461180b90613f2e565b80601f016020809104026020016040519081016040528092919081815260200182805461183790613f2e565b80156118845780601f1061185957610100808354040283529160200191611884565b820191906000526020600020905b81548152906001019060200180831161186757829003601f168201915b50505050508152602001600c8201805461189d90613f2e565b80601f01602080910402602001604051908101604052809291908181526020018280546118c990613f2e565b80156119165780601f106118eb57610100808354040283529160200191611916565b820191906000526020600020905b8154815290600101906020018083116118f957829003601f168201915b505050505081525050815250508152602001906001019061117b565b50505050905080915050919050565b6119496132cf565b600060048360405161195b9190613ee8565b9081526020016040518091039020604051806101a00160405290816000820160009054906101000a900473ffffffffffffffffffffffffffffffffffffffff1673ffffffffffffffffffffffffffffffffffffffff1673ffffffffffffffffffffffffffffffffffffffff1681526020016001820160009054906101000a900473ffffffffffffffffffffffffffffffffffffffff1673ffffffffffffffffffffffffffffffffffffffff1673ffffffffffffffffffffffffffffffffffffffff1681526020016002820154815260200160038201548152602001600482018054611a4590613f2e565b80601f0160208091040260200160405190810160405280929190818152602001828054611a7190613f2e565b8015611abe5780601f10611a9357610100808354040283529160200191611abe565b820191906000526020600020905b815481529060010190602001808311611aa157829003601f168201915b50505050508152602001600582018054611ad790613f2e565b80601f0160208091040260200160405190810160405280929190818152602001828054611b0390613f2e565b8015611b505780601f10611b2557610100808354040283529160200191611b50565b820191906000526020600020905b815481529060010190602001808311611b3357829003601f168201915b50505050508152602001600682018054611b6990613f2e565b80601f0160208091040260200160405190810160405280929190818152602001828054611b9590613f2e565b8015611be25780601f10611bb757610100808354040283529160200191611be2565b820191906000526020600020905b815481529060010190602001808311611bc557829003601f168201915b50505050508152602001600782018054611bfb90613f2e565b80601f0160208091040260200160405190810160405280929190818152602001828054611c2790613f2e565b8015611c745780601f10611c4957610100808354040283529160200191611c74565b820191906000526020600020905b815481529060010190602001808311611c5757829003601f168201915b50505050508152602001600882018054611c8d90613f2e565b80601f0160208091040260200160405190810160405280929190818152602001828054611cb990613f2e565b8015611d065780601f10611cdb57610100808354040283529160200191611d06565b820191906000526020600020905b815481529060010190602001808311611ce957829003601f168201915b50505050508152602001600982018054611d1f90613f2e565b80601f0160208091040260200160405190810160405280929190818152602001828054611d4b90613f2e565b8015611d985780601f10611d6d57610100808354040283529160200191611d98565b820191906000526020600020905b815481529060010190602001808311611d7b57829003601f168201915b50505050508152602001600a8201548152602001600b82018054611dbb90613f2e565b80601f0160208091040260200160405190810160405280929190818152602001828054611de790613f2e565b8015611e345780601f10611e0957610100808354040283529160200191611e34565b820191906000526020600020905b815481529060010190602001808311611e1757829003601f168201915b50505050508152602001600c82018054611e4d90613f2e565b80601f0160208091040260200160405190810160405280929190818152602001828054611e7990613f2e565b8015611ec65780601f10611e9b57610100808354040283529160200191611ec6565b820191906000526020600020905b815481529060010190602001808311611ea957829003601f168201915b505050505081525050905080915050919050565b8060039081611ee9919061410b565b5050565b611ef56132cf565b600060038054611f0490613f2e565b80601f0160208091040260200160405190810160405280929190818152602001828054611f3090613f2e565b8015611f7d5780601f10611f5257610100808354040283529160200191611f7d565b820191906000526020600020905b815481529060010190602001808311611f6057829003601f168201915b5050505050905082604051602001611f959190613ee8565b6040516020818303038152906040528051906020012081604051602001611fbc9190613ee8565b6040516020818303038152906040528051906020012014612012576040517f08c379a0000000000000000000000000000000000000000000000000000000008152600401612009906143c9565b60405180910390fd5b60046003604051612023919061446c565b9081526020016040518091039020604051806101a00160405290816000820160009054906101000a900473ffffffffffffffffffffffffffffffffffffffff1673ffffffffffffffffffffffffffffffffffffffff1673ffffffffffffffffffffffffffffffffffffffff1681526020016001820160009054906101000a900473ffffffffffffffffffffffffffffffffffffffff1673ffffffffffffffffffffffffffffffffffffffff1673ffffffffffffffffffffffffffffffffffffffff168152602001600282015481526020016003820154815260200160048201805461210d90613f2e565b80601f016020809104026020016040519081016040528092919081815260200182805461213990613f2e565b80156121865780601f1061215b57610100808354040283529160200191612186565b820191906000526020600020905b81548152906001019060200180831161216957829003601f168201915b5050505050815260200160058201805461219f90613f2e565b80601f01602080910402602001604051908101604052809291908181526020018280546121cb90613f2e565b80156122185780601f106121ed57610100808354040283529160200191612218565b820191906000526020600020905b8154815290600101906020018083116121fb57829003601f168201915b5050505050815260200160068201805461223190613f2e565b80601f016020809104026020016040519081016040528092919081815260200182805461225d90613f2e565b80156122aa5780601f1061227f576101008083540402835291602001916122aa565b820191906000526020600020905b81548152906001019060200180831161228d57829003601f168201915b505050505081526020016007820180546122c390613f2e565b80601f01602080910402602001604051908101604052809291908181526020018280546122ef90613f2e565b801561233c5780601f106123115761010080835404028352916020019161233c565b820191906000526020600020905b81548152906001019060200180831161231f57829003601f168201915b5050505050815260200160088201805461235590613f2e565b80601f016020809104026020016040519081016040528092919081815260200182805461238190613f2e565b80156123ce5780601f106123a3576101008083540402835291602001916123ce565b820191906000526020600020905b8154815290600101906020018083116123b157829003601f168201915b505050505081526020016009820180546123e790613f2e565b80601f016020809104026020016040519081016040528092919081815260200182805461241390613f2e565b80156124605780601f1061243557610100808354040283529160200191612460565b820191906000526020600020905b81548152906001019060200180831161244357829003601f168201915b50505050508152602001600a8201548152602001600b8201805461248390613f2e565b80601f01602080910402602001604051908101604052809291908181526020018280546124af90613f2e565b80156124fc5780601f106124d1576101008083540402835291602001916124fc565b820191906000526020600020905b8154815290600101906020018083116124df57829003601f168201915b50505050508152602001600c8201805461251590613f2e565b80601f016020809104026020016040519081016040528092919081815260200182805461254190613f2e565b801561258e5780601f106125635761010080835404028352916020019161258e565b820191906000526020600020905b81548152906001019060200180831161257157829003601f168201915b505050505081525050915050919050565b606060006005836040516125b39190613ee8565b9081526020016040518091039020805480602002602001604051908101604052809291908181526020016000905b82821015612b6e57838290600052602060002090600d0201604051806101a00160405290816000820160009054906101000a900473ffffffffffffffffffffffffffffffffffffffff1673ffffffffffffffffffffffffffffffffffffffff1673ffffffffffffffffffffffffffffffffffffffff1681526020016001820160009054906101000a900473ffffffffffffffffffffffffffffffffffffffff1673ffffffffffffffffffffffffffffffffffffffff1673ffffffffffffffffffffffffffffffffffffffff16815260200160028201548152602001600382015481526020016004820180546126d590613f2e565b80601f016020809104026020016040519081016040528092919081815260200182805461270190613f2e565b801561274e5780601f106127235761010080835404028352916020019161274e565b820191906000526020600020905b81548152906001019060200180831161273157829003601f168201915b5050505050815260200160058201805461276790613f2e565b80601f016020809104026020016040519081016040528092919081815260200182805461279390613f2e565b80156127e05780601f106127b5576101008083540402835291602001916127e0565b820191906000526020600020905b8154815290600101906020018083116127c357829003601f168201915b505050505081526020016006820180546127f990613f2e565b80601f016020809104026020016040519081016040528092919081815260200182805461282590613f2e565b80156128725780601f1061284757610100808354040283529160200191612872565b820191906000526020600020905b81548152906001019060200180831161285557829003601f168201915b5050505050815260200160078201805461288b90613f2e565b80601f01602080910402602001604051908101604052809291908181526020018280546128b790613f2e565b80156129045780601f106128d957610100808354040283529160200191612904565b820191906000526020600020905b8154815290600101906020018083116128e757829003601f168201915b5050505050815260200160088201805461291d90613f2e565b80601f016020809104026020016040519081016040528092919081815260200182805461294990613f2e565b80156129965780601f1061296b57610100808354040283529160200191612996565b820191906000526020600020905b81548152906001019060200180831161297957829003601f168201915b505050505081526020016009820180546129af90613f2e565b80601f01602080910402602001604051908101604052809291908181526020018280546129db90613f2e565b8015612a285780601f106129fd57610100808354040283529160200191612a28565b820191906000526020600020905b815481529060010190602001808311612a0b57829003601f168201915b50505050508152602001600a8201548152602001600b82018054612a4b90613f2e565b80601f0160208091040260200160405190810160405280929190818152602001828054612a7790613f2e565b8015612ac45780601f10612a9957610100808354040283529160200191612ac4565b820191906000526020600020905b815481529060010190602001808311612aa757829003601f168201915b50505050508152602001600c82018054612add90613f2e565b80601f0160208091040260200160405190810160405280929190818152602001828054612b0990613f2e565b8015612b565780601f10612b2b57610100808354040283529160200191612b56565b820191906000526020600020905b815481529060010190602001808311612b3957829003601f168201915b505050505081525050815260200190600101906125e1565b50505050905080915050919050565b6000600254905090565b60606000600683604051612b9b9190613ee8565b9081526020016040518091039020805480602002602001604051908101604052809291908181526020016000905b8282101561315657838290600052602060002090600d0201604051806101a00160405290816000820160009054906101000a900473ffffffffffffffffffffffffffffffffffffffff1673ffffffffffffffffffffffffffffffffffffffff1673ffffffffffffffffffffffffffffffffffffffff1681526020016001820160009054906101000a900473ffffffffffffffffffffffffffffffffffffffff1673ffffffffffffffffffffffffffffffffffffffff1673ffffffffffffffffffffffffffffffffffffffff1681526020016002820154815260200160038201548152602001600482018054612cbd90613f2e565b80601f0160208091040260200160405190810160405280929190818152602001828054612ce990613f2e565b8015612d365780601f10612d0b57610100808354040283529160200191612d36565b820191906000526020600020905b815481529060010190602001808311612d1957829003601f168201915b50505050508152602001600582018054612d4f90613f2e565b80601f0160208091040260200160405190810160405280929190818152602001828054612d7b90613f2e565b8015612dc85780601f10612d9d57610100808354040283529160200191612dc8565b820191906000526020600020905b815481529060010190602001808311612dab57829003601f168201915b50505050508152602001600682018054612de190613f2e565b80601f0160208091040260200160405190810160405280929190818152602001828054612e0d90613f2e565b8015612e5a5780601f10612e2f57610100808354040283529160200191612e5a565b820191906000526020600020905b815481529060010190602001808311612e3d57829003601f168201915b50505050508152602001600782018054612e7390613f2e565b80601f0160208091040260200160405190810160405280929190818152602001828054612e9f90613f2e565b8015612eec5780601f10612ec157610100808354040283529160200191612eec565b820191906000526020600020905b815481529060010190602001808311612ecf57829003601f168201915b50505050508152602001600882018054612f0590613f2e565b80601f0160208091040260200160405190810160405280929190818152602001828054612f3190613f2e565b8015612f7e5780601f10612f5357610100808354040283529160200191612f7e565b820191906000526020600020905b815481529060010190602001808311612f6157829003601f168201915b50505050508152602001600982018054612f9790613f2e565b80601f0160208091040260200160405190810160405280929190818152602001828054612fc390613f2e565b80156130105780601f10612fe557610100808354040283529160200191613010565b820191906000526020600020905b815481529060010190602001808311612ff357829003601f168201915b50505050508152602001600a8201548152602001600b8201805461303390613f2e565b80601f016020809104026020016040519081016040528092919081815260200182805461305f90613f2e565b80156130ac5780601f10613081576101008083540402835291602001916130ac565b820191906000526020600020905b81548152906001019060200180831161308f57829003601f168201915b50505050508152602001600c820180546130c590613f2e565b80601f01602080910402602001604051908101604052809291908181526020018280546130f190613f2e565b801561313e5780601f106131135761010080835404028352916020019161313e565b820191906000526020600020905b81548152906001019060200180831161312157829003601f168201915b50505050508152505081526020019060010190612bc9565b50505050905080915050919050565b60006004826040516131779190613ee8565b908152602001604051809103902090508060010160009054906101000a900473ffffffffffffffffffffffffffffffffffffffff1673ffffffffffffffffffffffffffffffffffffffff163373ffffffffffffffffffffffffffffffffffffffff1603613219576040517f08c379a0000000000000000000000000000000000000000000000000000000008152600401613210906144cf565b60405180910390fd5b80600a0154341015613260576040517f08c379a000000000000000000000000000000000000000000000000000000000815260040161325790614561565b60405180910390fd5b8060000160009054906101000a900473ffffffffffffffffffffffffffffffffffffffff1673ffffffffffffffffffffffffffffffffffffffff166108fc349081150290604051600060405180830381858888f193505050501580156132ca573d6000803e3d6000fd5b505050565b604051806101a00160405280600073ffffffffffffffffffffffffffffffffffffffff168152602001600073ffffffffffffffffffffffffffffffffffffffff16815260200160008152602001600081526020016060815260200160608152602001606081526020016060815260200160608152602001606081526020016000815260200160608152602001606081525090565b6000604051905090565b600080fd5b600080fd5b600080fd5b600080fd5b6000601f19601f8301169050919050565b7f4e487b7100000000000000000000000000000000000000000000000000000000600052604160045260246000fd5b6133ca82613381565b810181811067ffffffffffffffff821117156133e9576133e8613392565b5b80604052505050565b60006133fc613363565b905061340882826133c1565b919050565b600067ffffffffffffffff82111561342857613427613392565b5b61343182613381565b9050602081019050919050565b82818337600083830152505050565b600061346061345b8461340d565b6133f2565b90508281526020810184848401111561347c5761347b61337c565b5b61348784828561343e565b509392505050565b600082601f8301126134a4576134a3613377565b5b81356134b484826020860161344d565b91505092915050565b600080600080608085870312156134d7576134d661336d565b5b600085013567ffffffffffffffff8111156134f5576134f4613372565b5b6135018782880161348f565b945050602085013567ffffffffffffffff81111561352257613521613372565b5b61352e8782880161348f565b935050604085013567ffffffffffffffff81111561354f5761354e613372565b5b61355b8782880161348f565b925050606085013567ffffffffffffffff81111561357c5761357b613372565b5b6135888782880161348f565b91505092959194509250565b600073ffffffffffffffffffffffffffffffffffffffff82169050919050565b60006135bf82613594565b9050919050565b6135cf816135b4565b81146135da57600080fd5b50565b6000813590506135ec816135c6565b92915050565b6000819050919050565b613605816135f2565b811461361057600080fd5b50565b600081359050613622816135fc565b92915050565b60008060008060008060008060008060006101608c8e03121561364e5761364d61336d565b5b600061365c8e828f016135dd565b9b5050602061366d8e828f01613613565b9a505060408c013567ffffffffffffffff81111561368e5761368d613372565b5b61369a8e828f0161348f565b99505060608c013567ffffffffffffffff8111156136bb576136ba613372565b5b6136c78e828f0161348f565b98505060808c013567ffffffffffffffff8111156136e8576136e7613372565b5b6136f48e828f0161348f565b97505060a08c013567ffffffffffffffff81111561371557613714613372565b5b6137218e828f0161348f565b96505060c08c013567ffffffffffffffff81111561374257613741613372565b5b61374e8e828f0161348f565b95505060e08c013567ffffffffffffffff81111561376f5761376e613372565b5b61377b8e828f0161348f565b94505061010061378d8e828f01613613565b9350506101208c013567ffffffffffffffff8111156137af576137ae613372565b5b6137bb8e828f0161348f565b9250506101408c013567ffffffffffffffff8111156137dd576137dc613372565b5b6137e98e828f0161348f565b9150509295989b509295989b9093969950565b613805816135f2565b82525050565b600060208201905061382060008301846137fc565b92915050565b60006020828403121561383c5761383b61336d565b5b600082013567ffffffffffffffff81111561385a57613859613372565b5b6138668482850161348f565b91505092915050565b600081519050919050565b600082825260208201905092915050565b6000819050602082019050919050565b60006138a682613594565b9050919050565b6138b68161389b565b82525050565b6138c5816135f2565b82525050565b600081519050919050565b600082825260208201905092915050565b60005b838110156139055780820151818401526020810190506138ea565b60008484015250505050565b600061391c826138cb565b61392681856138d6565b93506139368185602086016138e7565b61393f81613381565b840191505092915050565b613953816135b4565b82525050565b60006101a083016000830151613972600086018261394a565b506020830151613985602086018261394a565b50604083015161399860408601826138bc565b5060608301516139ab60608601826138bc565b50608083015184820360808601526139c38282613911565b91505060a083015184820360a08601526139dd8282613911565b91505060c083015184820360c08601526139f78282613911565b91505060e083015184820360e0860152613a118282613911565b915050610100830151848203610100860152613a2d8282613911565b915050610120830151848203610120860152613a498282613911565b915050610140830151613a606101408601826138bc565b50610160830151848203610160860152613a7a8282613911565b915050610180830151848203610180860152613a968282613911565b9150508091505092915050565b600060c083016000830151613abb60008601826138ad565b506020830151613ace60208601826138bc565b5060408301518482036040860152613ae68282613911565b91505060608301518482036060860152613b008282613911565b91505060808301518482036080860152613b1a8282613911565b91505060a083015184820360a0860152613b348282613959565b9150508091505092915050565b6000613b4d8383613aa3565b905092915050565b6000602082019050919050565b6000613b6d8261386f565b613b77818561387a565b935083602082028501613b898561388b565b8060005b85811015613bc55784840389528151613ba68582613b41565b9450613bb183613b55565b925060208a01995050600181019050613b8d565b50829750879550505050505092915050565b60006020820190508181036000830152613bf18184613b62565b905092915050565b60006101a083016000830151613c12600086018261394a565b506020830151613c25602086018261394a565b506040830151613c3860408601826138bc565b506060830151613c4b60608601826138bc565b5060808301518482036080860152613c638282613911565b91505060a083015184820360a0860152613c7d8282613911565b91505060c083015184820360c0860152613c978282613911565b91505060e083015184820360e0860152613cb18282613911565b915050610100830151848203610100860152613ccd8282613911565b915050610120830151848203610120860152613ce98282613911565b915050610140830151613d006101408601826138bc565b50610160830151848203610160860152613d1a8282613911565b915050610180830151848203610180860152613d368282613911565b9150508091505092915050565b60006020820190508181036000830152613d5d8184613bf9565b905092915050565b600081519050919050565b600082825260208201905092915050565b6000819050602082019050919050565b6000613d9d8383613959565b905092915050565b6000602082019050919050565b6000613dbd82613d65565b613dc78185613d70565b935083602082028501613dd985613d81565b8060005b85811015613e155784840389528151613df68582613d91565b9450613e0183613da5565b925060208a01995050600181019050613ddd565b50829750879550505050505092915050565b60006020820190508181036000830152613e418184613db2565b905092915050565b7f4e487b7100000000000000000000000000000000000000000000000000000000600052601160045260246000fd5b6000613e83826135f2565b9150613e8e836135f2565b9250828201905080821115613ea657613ea5613e49565b5b92915050565b600081905092915050565b6000613ec2826138cb565b613ecc8185613eac565b9350613edc8185602086016138e7565b80840191505092915050565b6000613ef48284613eb7565b915081905092915050565b7f4e487b7100000000000000000000000000000000000000000000000000000000600052602260045260246000fd5b60006002820490506001821680613f4657607f821691505b602082108103613f5957613f58613eff565b5b50919050565b60008190508160005260206000209050919050565b60006020601f8301049050919050565b600082821b905092915050565b600060088302613fc17fffffffffffffffffffffffffffffffffffffffffffffffffffffffffffffffff82613f84565b613fcb8683613f84565b95508019841693508086168417925050509392505050565b6000819050919050565b6000614008614003613ffe846135f2565b613fe3565b6135f2565b9050919050565b6000819050919050565b61402283613fed565b61403661402e8261400f565b848454613f91565b825550505050565b600090565b61404b61403e565b614056818484614019565b505050565b5b8181101561407a5761406f600082614043565b60018101905061405c565b5050565b601f8211156140bf5761409081613f5f565b61409984613f74565b810160208510156140a8578190505b6140bc6140b485613f74565b83018261405b565b50505b505050565b600082821c905092915050565b60006140e2600019846008026140c4565b1980831691505092915050565b60006140fb83836140d1565b9150826002028217905092915050565b614114826138cb565b67ffffffffffffffff81111561412d5761412c613392565b5b6141378254613f2e565b61414282828561407e565b600060209050601f8311600181146141755760008415614163578287015190505b61416d85826140ef565b8655506141d5565b601f19841661418386613f5f565b60005b828110156141ab57848901518255600182019150602085019450602081019050614186565b868310156141c857848901516141c4601f8916826140d1565b8355505b6001600288020188555050505b505050505050565b600081519050919050565b600081905092915050565b60006141fe826141dd565b61420881856141e8565b93506142188185602086016138e7565b80840191505092915050565b600061423082856141f3565b915061423c82846141f3565b91508190509392505050565b60008154905061425781613f2e565b9050919050565b81810361426c575050614344565b61427582614248565b67ffffffffffffffff81111561428e5761428d613392565b5b6142988254613f2e565b6142a382828561407e565b6000601f8311600181146142d257600084156142c0578287015490505b6142ca85826140ef565b86555061433d565b601f1984166142e087613f5f565b96506142eb86613f5f565b60005b82811015614313578489015482556001820191506001850194506020810190506142ee565b86831015614330578489015461432c601f8916826140d1565b8355505b6001600288020188555050505b5050505050505b565b600082825260208201905092915050565b7f4f6e6c792043484f4f5345206472697665722063616e20706572666f726d207460008201527f68697320616374696f6e00000000000000000000000000000000000000000000602082015250565b60006143b3602a83614346565b91506143be82614357565b604082019050919050565b600060208201905081810360008301526143e2816143a6565b9050919050565b600081546143f681613f2e565b6144008186613eac565b9450600182166000811461441b576001811461443057614463565b60ff1983168652811515820286019350614463565b61443985613f5f565b60005b8381101561445b5781548189015260018201915060208101905061443c565b838801955050505b50505092915050565b600061447882846143e9565b915081905092915050565b7f43616e6e6f742070617920796f757273656c6600000000000000000000000000600082015250565b60006144b9601383614346565b91506144c482614483565b602082019050919050565b600060208201905081810360008301526144e8816144ac565b9050919050565b7f496e73756666696369656e742066756e647320746f206d616b65207061796d6560008201527f6e74000000000000000000000000000000000000000000000000000000000000602082015250565b600061454b602283614346565b9150614556826144ef565b604082019050919050565b6000602082019050818103600083015261457a8161453e565b905091905056fea26469706673582212203c50c731d0517455141340d341168c15092e2936cd09a4b364528ed23fac14aa64736f6c63430008180033",
    "linkReferences": {},
    "deployedLinkReferences": {}
}